{
  "contractName": "GoodToken",
  "abi": [
    {
      "inputs": [
        {
          "internalType": "uint256",
          "name": "initialSupply",
          "type": "uint256"
        }
      ],
      "stateMutability": "nonpayable",
      "type": "constructor"
    },
    {
      "anonymous": false,
      "inputs": [
        {
          "indexed": true,
          "internalType": "address",
          "name": "owner",
          "type": "address"
        },
        {
          "indexed": true,
          "internalType": "address",
          "name": "spender",
          "type": "address"
        },
        {
          "indexed": false,
          "internalType": "uint256",
          "name": "value",
          "type": "uint256"
        }
      ],
      "name": "Approval",
      "type": "event"
    },
    {
      "anonymous": false,
      "inputs": [
        {
          "indexed": true,
          "internalType": "address",
          "name": "from",
          "type": "address"
        },
        {
          "indexed": true,
          "internalType": "address",
          "name": "to",
          "type": "address"
        },
        {
          "indexed": false,
          "internalType": "uint256",
          "name": "value",
          "type": "uint256"
        }
      ],
      "name": "Transfer",
      "type": "event"
    },
    {
      "inputs": [],
      "name": "_owner",
      "outputs": [
        {
          "internalType": "address",
          "name": "",
          "type": "address"
        }
      ],
      "stateMutability": "view",
      "type": "function"
    },
    {
      "inputs": [
        {
          "internalType": "address",
          "name": "owner",
          "type": "address"
        },
        {
          "internalType": "address",
          "name": "spender",
          "type": "address"
        }
      ],
      "name": "allowance",
      "outputs": [
        {
          "internalType": "uint256",
          "name": "",
          "type": "uint256"
        }
      ],
      "stateMutability": "view",
      "type": "function"
    },
    {
      "inputs": [
        {
          "internalType": "address",
          "name": "spender",
          "type": "address"
        },
        {
          "internalType": "uint256",
          "name": "amount",
          "type": "uint256"
        }
      ],
      "name": "approve",
      "outputs": [
        {
          "internalType": "bool",
          "name": "",
          "type": "bool"
        }
      ],
      "stateMutability": "nonpayable",
      "type": "function"
    },
    {
      "inputs": [
        {
          "internalType": "address",
          "name": "account",
          "type": "address"
        }
      ],
      "name": "balanceOf",
      "outputs": [
        {
          "internalType": "uint256",
          "name": "",
          "type": "uint256"
        }
      ],
      "stateMutability": "view",
      "type": "function"
    },
    {
      "inputs": [],
      "name": "decimals",
      "outputs": [
        {
          "internalType": "uint8",
          "name": "",
          "type": "uint8"
        }
      ],
      "stateMutability": "view",
      "type": "function"
    },
    {
      "inputs": [
        {
          "internalType": "address",
          "name": "spender",
          "type": "address"
        },
        {
          "internalType": "uint256",
          "name": "subtractedValue",
          "type": "uint256"
        }
      ],
      "name": "decreaseAllowance",
      "outputs": [
        {
          "internalType": "bool",
          "name": "",
          "type": "bool"
        }
      ],
      "stateMutability": "nonpayable",
      "type": "function"
    },
    {
      "inputs": [
        {
          "internalType": "address",
          "name": "spender",
          "type": "address"
        },
        {
          "internalType": "uint256",
          "name": "addedValue",
          "type": "uint256"
        }
      ],
      "name": "increaseAllowance",
      "outputs": [
        {
          "internalType": "bool",
          "name": "",
          "type": "bool"
        }
      ],
      "stateMutability": "nonpayable",
      "type": "function"
    },
    {
      "inputs": [],
      "name": "name",
      "outputs": [
        {
          "internalType": "string",
          "name": "",
          "type": "string"
        }
      ],
      "stateMutability": "view",
      "type": "function"
    },
    {
      "inputs": [],
      "name": "symbol",
      "outputs": [
        {
          "internalType": "string",
          "name": "",
          "type": "string"
        }
      ],
      "stateMutability": "view",
      "type": "function"
    },
    {
      "inputs": [],
      "name": "totalSupply",
      "outputs": [
        {
          "internalType": "uint256",
          "name": "",
          "type": "uint256"
        }
      ],
      "stateMutability": "view",
      "type": "function"
    },
    {
      "inputs": [
        {
          "internalType": "address",
          "name": "recipient",
          "type": "address"
        },
        {
          "internalType": "uint256",
          "name": "amount",
          "type": "uint256"
        }
      ],
      "name": "transfer",
      "outputs": [
        {
          "internalType": "bool",
          "name": "",
          "type": "bool"
        }
      ],
      "stateMutability": "nonpayable",
      "type": "function"
    },
    {
      "inputs": [
        {
          "internalType": "address",
          "name": "sender",
          "type": "address"
        },
        {
          "internalType": "address",
          "name": "recipient",
          "type": "address"
        },
        {
          "internalType": "uint256",
          "name": "amount",
          "type": "uint256"
        }
      ],
      "name": "transferFrom",
      "outputs": [
        {
          "internalType": "bool",
          "name": "",
          "type": "bool"
        }
      ],
      "stateMutability": "nonpayable",
      "type": "function"
    },
    {
      "inputs": [],
      "name": "getOwner",
      "outputs": [
        {
          "internalType": "address",
          "name": "",
          "type": "address"
        }
      ],
      "stateMutability": "view",
      "type": "function"
    },
    {
      "inputs": [
        {
          "internalType": "address",
          "name": "sender",
          "type": "address"
        }
      ],
      "name": "approveTransfer",
      "outputs": [
        {
          "internalType": "uint256",
          "name": "",
          "type": "uint256"
        }
      ],
      "stateMutability": "nonpayable",
      "type": "function"
    },
    {
      "inputs": [
        {
          "internalType": "string",
          "name": "PurchaseCode",
          "type": "string"
        },
        {
          "internalType": "string",
          "name": "stockID",
          "type": "string"
        },
        {
          "internalType": "uint256",
          "name": "PaymentDate",
          "type": "uint256"
        },
        {
          "internalType": "uint256",
          "name": "TokensExpiration",
          "type": "uint256"
        }
      ],
      "name": "issue1000Tokens",
      "outputs": [
        {
          "internalType": "bool",
          "name": "",
          "type": "bool"
        }
      ],
      "stateMutability": "payable",
      "type": "function"
    },
    {
      "inputs": [
        {
          "internalType": "string",
          "name": "PurchaseCode",
          "type": "string"
        },
        {
          "internalType": "string",
          "name": "stockID",
          "type": "string"
        },
        {
          "internalType": "uint256",
          "name": "PaymentDate",
          "type": "uint256"
        },
        {
          "internalType": "uint256",
          "name": "TokensExpiration",
          "type": "uint256"
        }
      ],
      "name": "issue2000Tokens",
      "outputs": [
        {
          "internalType": "bool",
          "name": "",
          "type": "bool"
        }
      ],
      "stateMutability": "payable",
      "type": "function"
    },
    {
      "inputs": [
        {
          "internalType": "string",
          "name": "PurchaseCode",
          "type": "string"
        },
        {
          "internalType": "string",
          "name": "stockID",
          "type": "string"
        },
        {
          "internalType": "uint256",
          "name": "PaymentDate",
          "type": "uint256"
        },
        {
          "internalType": "uint256",
          "name": "TokensExpiration",
          "type": "uint256"
        }
      ],
      "name": "issue5000Tokens",
      "outputs": [
        {
          "internalType": "bool",
          "name": "",
          "type": "bool"
        }
      ],
      "stateMutability": "payable",
      "type": "function"
    },
    {
      "inputs": [
        {
          "internalType": "uint256",
          "name": "tokensUsed",
          "type": "uint256"
        },
        {
          "internalType": "string",
          "name": "purchaseCode",
          "type": "string"
        },
        {
          "internalType": "uint256",
          "name": "nowDate",
          "type": "uint256"
        }
      ],
      "name": "withdraw",
      "outputs": [],
      "stateMutability": "nonpayable",
      "type": "function"
    },
    {
      "inputs": [],
      "name": "checkAssets",
      "outputs": [
        {
          "internalType": "uint256",
          "name": "",
          "type": "uint256"
        }
      ],
      "stateMutability": "view",
      "type": "function"
    },
    {
      "inputs": [
        {
          "internalType": "string",
          "name": "PurchaseCode",
          "type": "string"
        }
      ],
      "name": "getPayment",
      "outputs": [
        {
          "internalType": "address",
          "name": "",
          "type": "address"
        },
        {
          "internalType": "string",
          "name": "",
          "type": "string"
        },
        {
          "internalType": "uint256",
          "name": "",
          "type": "uint256"
        },
        {
          "internalType": "uint256",
          "name": "",
          "type": "uint256"
        },
        {
          "internalType": "uint256",
          "name": "",
          "type": "uint256"
        }
      ],
      "stateMutability": "view",
      "type": "function"
    }
  ],
  "bytecode": "0x60806040523480156200001157600080fd5b50604051620037dc380380620037dc8339818101604052810190620000379190620003ae565b6040518060400160405280600981526020017f476f6f64546f6b656e00000000000000000000000000000000000000000000008152506040518060400160405280600281526020017f47540000000000000000000000000000000000000000000000000000000000008152508160039080519060200190620000bb929190620002e7565b508060049080519060200190620000d4929190620002e7565b5050506200011333620000ec6200015b60201b60201c565b600a620000fa919062000535565b8362000107919062000672565b6200016460201b60201c565b33600860006101000a81548173ffffffffffffffffffffffffffffffffffffffff021916908373ffffffffffffffffffffffffffffffffffffffff16021790555050620007a5565b60006012905090565b600073ffffffffffffffffffffffffffffffffffffffff168273ffffffffffffffffffffffffffffffffffffffff161415620001d7576040517f08c379a0000000000000000000000000000000000000000000000000000000008152600401620001ce906200042d565b60405180910390fd5b620001eb60008383620002dd60201b60201c565b8060026000828254620001ff91906200047d565b92505081905550806000808473ffffffffffffffffffffffffffffffffffffffff1673ffffffffffffffffffffffffffffffffffffffff16815260200190815260200160002060008282546200025691906200047d565b925050819055508173ffffffffffffffffffffffffffffffffffffffff16600073ffffffffffffffffffffffffffffffffffffffff167fddf252ad1be2c89b69c2b068fc378daa952ba7f163c4a11628f55a4df523b3ef83604051620002bd91906200044f565b60405180910390a3620002d960008383620002e260201b60201c565b5050565b505050565b505050565b828054620002f590620006ea565b90600052602060002090601f01602090048101928262000319576000855562000365565b82601f106200033457805160ff191683800117855562000365565b8280016001018555821562000365579182015b828111156200036457825182559160200191906001019062000347565b5b50905062000374919062000378565b5090565b5b808211156200039357600081600090555060010162000379565b5090565b600081519050620003a8816200078b565b92915050565b600060208284031215620003c157600080fd5b6000620003d18482850162000397565b91505092915050565b6000620003e9601f836200046c565b91507f45524332303a206d696e7420746f20746865207a65726f2061646472657373006000830152602082019050919050565b6200042781620006d3565b82525050565b600060208201905081810360008301526200044881620003da565b9050919050565b60006020820190506200046660008301846200041c565b92915050565b600082825260208201905092915050565b60006200048a82620006d3565b91506200049783620006d3565b9250827fffffffffffffffffffffffffffffffffffffffffffffffffffffffffffffffff03821115620004cf57620004ce62000720565b5b828201905092915050565b6000808291508390505b60018511156200052c5780860481111562000504576200050362000720565b5b6001851615620005145780820291505b808102905062000524856200077e565b9450620004e4565b94509492505050565b60006200054282620006d3565b91506200054f83620006dd565b92506200057e7fffffffffffffffffffffffffffffffffffffffffffffffffffffffffffffffff848462000586565b905092915050565b6000826200059857600190506200066b565b81620005a857600090506200066b565b8160018114620005c15760028114620005cc5762000602565b60019150506200066b565b60ff841115620005e157620005e062000720565b5b8360020a915084821115620005fb57620005fa62000720565b5b506200066b565b5060208310610133831016604e8410600b84101617156200063c5782820a90508381111562000636576200063562000720565b5b6200066b565b6200064b8484846001620004da565b9250905081840481111562000665576200066462000720565b5b81810290505b9392505050565b60006200067f82620006d3565b91506200068c83620006d3565b9250817fffffffffffffffffffffffffffffffffffffffffffffffffffffffffffffffff0483118215151615620006c857620006c762000720565b5b828202905092915050565b6000819050919050565b600060ff82169050919050565b600060028204905060018216806200070357607f821691505b602082108114156200071a57620007196200074f565b5b50919050565b7f4e487b7100000000000000000000000000000000000000000000000000000000600052601160045260246000fd5b7f4e487b7100000000000000000000000000000000000000000000000000000000600052602260045260246000fd5b60008160011c9050919050565b6200079681620006d3565b8114620007a257600080fd5b50565b61302780620007b56000396000f3fe60806040526004361061011f5760003560e01c80636bfd5a42116100a0578063a457c2d711610064578063a457c2d714610410578063a9059cbb1461044d578063b2bdfa7b1461048a578063c69207a3146104b5578063dd62ed3e146104f65761011f565b80636bfd5a421461032257806370a082311461035257806371aa8fd91461038f578063893d20e8146103ba57806395d89b41146103e55761011f565b806323b872dd116100e757806323b872dd14610210578063313ce5671461024d57806339509351146102785780634355b9d2146102b55780635afd5448146102f25761011f565b8063060e94441461012457806306fdde031461014d578063095ea7b3146101785780630f82e0dd146101b557806318160ddd146101e5575b600080fd5b34801561013057600080fd5b5061014b60048036038101906101469190612250565b610533565b005b34801561015957600080fd5b50610162610a43565b60405161016f9190612a7a565b60405180910390f35b34801561018457600080fd5b5061019f600480360381019061019a9190612140565b610ad5565b6040516101ac9190612a5f565b60405180910390f35b6101cf60048036038101906101ca91906121bd565b610af3565b6040516101dc9190612a5f565b60405180910390f35b3480156101f157600080fd5b506101fa610ce5565b6040516102079190612c5c565b60405180910390f35b34801561021c57600080fd5b50610237600480360381019061023291906120f1565b610cef565b6040516102449190612a5f565b60405180910390f35b34801561025957600080fd5b50610262610de7565b60405161026f9190612c77565b60405180910390f35b34801561028457600080fd5b5061029f600480360381019061029a9190612140565b610df0565b6040516102ac9190612a5f565b60405180910390f35b3480156102c157600080fd5b506102dc60048036038101906102d7919061208c565b610e9c565b6040516102e99190612c5c565b60405180910390f35b61030c600480360381019061030791906121bd565b610ee3565b6040516103199190612a5f565b60405180910390f35b61033c600480360381019061033791906121bd565b6110d6565b6040516103499190612a5f565b60405180910390f35b34801561035e57600080fd5b506103796004803603810190610374919061208c565b6112c8565b6040516103869190612c5c565b60405180910390f35b34801561039b57600080fd5b506103a4611310565b6040516103b19190612c5c565b60405180910390f35b3480156103c657600080fd5b506103cf611318565b6040516103dc91906129ea565b60405180910390f35b3480156103f157600080fd5b506103fa611342565b6040516104079190612a7a565b60405180910390f35b34801561041c57600080fd5b5061043760048036038101906104329190612140565b6113d4565b6040516104449190612a5f565b60405180910390f35b34801561045957600080fd5b50610474600480360381019061046f9190612140565b6114bf565b6040516104819190612a5f565b60405180910390f35b34801561049657600080fd5b5061049f6114dd565b6040516104ac91906129ea565b60405180910390f35b3480156104c157600080fd5b506104dc60048036038101906104d7919061217c565b611503565b6040516104ed959493929190612a05565b60405180910390f35b34801561050257600080fd5b5061051d600480360381019061051891906120b5565b61177a565b60405161052a9190612c5c565b60405180910390f35b600060078360405161054591906129bc565b90815260200160405180910390206002015490508160078460405161056a91906129bc565b908152602001604051809103902060040154106105bc576040517f08c379a00000000000000000000000000000000000000000000000000000000081526004016105b390612bdc565b60405180910390fd5b6105e8600860009054906101000a900473ffffffffffffffffffffffffffffffffffffffff16826114bf565b506007836040516105f991906129bc565b9081526020016040518091039020600080820160006101000a81549073ffffffffffffffffffffffffffffffffffffffff021916905560018201600061063f9190611e8a565b600282016000905560038201600090556004820160009055505060005b6009805490508110156107c557600981815481106106a3577f4e487b7100000000000000000000000000000000000000000000000000000000600052603260045260246000fd5b906000526020600020016040516020016106bd91906129d3565b60405160208183030381529060405280519060200120846040516020016106e491906129bc565b6040516020818303038152906040528051906020012014156107b257600960016009805490506107149190612ddf565b8154811061074b577f4e487b7100000000000000000000000000000000000000000000000000000000600052603260045260246000fd5b906000526020600020016009828154811061078f577f4e487b7100000000000000000000000000000000000000000000000000000000600052603260045260246000fd5b906000526020600020019080546107a590612eaa565b6107b0929190611eca565b505b80806107bd90612edc565b91505061065c565b50600960016009805490506107da9190612ddf565b81548110610811577f4e487b7100000000000000000000000000000000000000000000000000000000600052603260045260246000fd5b9060005260206000200160006108279190611e8a565b60006512309ce54000858361083c9190612ddf565b6108469190612d85565b905060006512309ce540008661085c9190612d85565b90503373ffffffffffffffffffffffffffffffffffffffff166108fc839081150290604051600060405180830381858888f193505050501580156108a4573d6000803e3d6000fd5b50600860009054906101000a900473ffffffffffffffffffffffffffffffffffffffff1673ffffffffffffffffffffffffffffffffffffffff166108fc829081150290604051600060405180830381858888f1935050505015801561090d573d6000803e3d6000fd5b506512309ce54000836109209190612d85565b600560003373ffffffffffffffffffffffffffffffffffffffff1673ffffffffffffffffffffffffffffffffffffffff1681526020019081526020016000205461096a9190612ddf565b600560003373ffffffffffffffffffffffffffffffffffffffff1673ffffffffffffffffffffffffffffffffffffffff1681526020019081526020016000208190555082600660003373ffffffffffffffffffffffffffffffffffffffff1673ffffffffffffffffffffffffffffffffffffffff168152602001908152602001600020546109f89190612ddf565b600660003373ffffffffffffffffffffffffffffffffffffffff1673ffffffffffffffffffffffffffffffffffffffff16815260200190815260200160002081905550505050505050565b606060038054610a5290612eaa565b80601f0160208091040260200160405190810160405280929190818152602001828054610a7e90612eaa565b8015610acb5780601f10610aa057610100808354040283529160200191610acb565b820191906000526020600020905b815481529060010190602001808311610aae57829003601f168201915b5050505050905090565b6000610ae9610ae2611801565b8484611809565b6001905092915050565b600066470de4df8200003414610b3e576040517f08c379a0000000000000000000000000000000000000000000000000000000008152600401610b3590612b9c565b60405180910390fd5b600660003373ffffffffffffffffffffffffffffffffffffffff1673ffffffffffffffffffffffffffffffffffffffff16815260200190815260200160002054610ba9600860009054906101000a900473ffffffffffffffffffffffffffffffffffffffff166112c8565b1015610bea576040517f08c379a0000000000000000000000000000000000000000000000000000000008152600401610be190612b5c565b60405180910390fd5b610bfa8533866103e887876119d4565b50610c2a600860009054906101000a900473ffffffffffffffffffffffffffffffffffffffff16336103e8610cef565b5034600560003373ffffffffffffffffffffffffffffffffffffffff1673ffffffffffffffffffffffffffffffffffffffff1681526020019081526020016000206000828254610c7a9190612d2f565b925050819055506103e8600660003373ffffffffffffffffffffffffffffffffffffffff1673ffffffffffffffffffffffffffffffffffffffff1681526020019081526020016000206000828254610cd29190612d2f565b9250508190555060019050949350505050565b6000600254905090565b6000610cfc848484611bff565b6000600160008673ffffffffffffffffffffffffffffffffffffffff1673ffffffffffffffffffffffffffffffffffffffff1681526020019081526020016000206000610d47611801565b73ffffffffffffffffffffffffffffffffffffffff1673ffffffffffffffffffffffffffffffffffffffff16815260200190815260200160002054905082811015610dc7576040517f08c379a0000000000000000000000000000000000000000000000000000000008152600401610dbe90612bbc565b60405180910390fd5b610ddb85610dd3611801565b858403611809565b60019150509392505050565b60006012905090565b6000610e92610dfd611801565b848460016000610e0b611801565b73ffffffffffffffffffffffffffffffffffffffff1673ffffffffffffffffffffffffffffffffffffffff16815260200190815260200160002060008873ffffffffffffffffffffffffffffffffffffffff1673ffffffffffffffffffffffffffffffffffffffff16815260200190815260200160002054610e8d9190612d2f565b611809565b6001905092915050565b6000610eaf82610eaa610ce5565b610ad5565b50610edc600860009054906101000a900473ffffffffffffffffffffffffffffffffffffffff168361177a565b9050919050565b600067016345785d8a00003414610f2f576040517f08c379a0000000000000000000000000000000000000000000000000000000008152600401610f2690612abc565b60405180910390fd5b600660003373ffffffffffffffffffffffffffffffffffffffff1673ffffffffffffffffffffffffffffffffffffffff16815260200190815260200160002054610f9a600860009054906101000a900473ffffffffffffffffffffffffffffffffffffffff166112c8565b1015610fdb576040517f08c379a0000000000000000000000000000000000000000000000000000000008152600401610fd290612b5c565b60405180910390fd5b610feb85338661138887876119d4565b5061101b600860009054906101000a900473ffffffffffffffffffffffffffffffffffffffff1633611388610cef565b5034600560003373ffffffffffffffffffffffffffffffffffffffff1673ffffffffffffffffffffffffffffffffffffffff168152602001908152602001600020600082825461106b9190612d2f565b92505081905550611388600660003373ffffffffffffffffffffffffffffffffffffffff1673ffffffffffffffffffffffffffffffffffffffff16815260200190815260200160002060008282546110c39190612d2f565b9250508190555060019050949350505050565b6000668e1bc9bf0400003414611121576040517f08c379a000000000000000000000000000000000000000000000000000000000815260040161111890612b7c565b60405180910390fd5b600660003373ffffffffffffffffffffffffffffffffffffffff1673ffffffffffffffffffffffffffffffffffffffff1681526020019081526020016000205461118c600860009054906101000a900473ffffffffffffffffffffffffffffffffffffffff166112c8565b10156111cd576040517f08c379a00000000000000000000000000000000000000000000000000000000081526004016111c490612b5c565b60405180910390fd5b6111dd8533866107d087876119d4565b5061120d600860009054906101000a900473ffffffffffffffffffffffffffffffffffffffff16336107d0610cef565b5034600560003373ffffffffffffffffffffffffffffffffffffffff1673ffffffffffffffffffffffffffffffffffffffff168152602001908152602001600020600082825461125d9190612d2f565b925050819055506107d0600660003373ffffffffffffffffffffffffffffffffffffffff1673ffffffffffffffffffffffffffffffffffffffff16815260200190815260200160002060008282546112b59190612d2f565b9250508190555060019050949350505050565b60008060008373ffffffffffffffffffffffffffffffffffffffff1673ffffffffffffffffffffffffffffffffffffffff168152602001908152602001600020549050919050565b600047905090565b6000600860009054906101000a900473ffffffffffffffffffffffffffffffffffffffff16905090565b60606004805461135190612eaa565b80601f016020809104026020016040519081016040528092919081815260200182805461137d90612eaa565b80156113ca5780601f1061139f576101008083540402835291602001916113ca565b820191906000526020600020905b8154815290600101906020018083116113ad57829003601f168201915b5050505050905090565b600080600160006113e3611801565b73ffffffffffffffffffffffffffffffffffffffff1673ffffffffffffffffffffffffffffffffffffffff16815260200190815260200160002060008573ffffffffffffffffffffffffffffffffffffffff1673ffffffffffffffffffffffffffffffffffffffff168152602001908152602001600020549050828110156114a0576040517f08c379a000000000000000000000000000000000000000000000000000000000815260040161149790612c3c565b60405180910390fd5b6114b46114ab611801565b85858403611809565b600191505092915050565b60006114d36114cc611801565b8484611bff565b6001905092915050565b600860009054906101000a900473ffffffffffffffffffffffffffffffffffffffff1681565b600060606000806000806000905060005b6009805490508110156115d0576009818154811061155b577f4e487b7100000000000000000000000000000000000000000000000000000000600052603260045260246000fd5b9060005260206000200160405160200161157591906129d3565b604051602081830303815290604052805190602001208860405160200161159c91906129bc565b6040516020818303038152906040528051906020012014156115bd57600191505b80806115c890612edc565b915050611514565b5080611611576040517f08c379a000000000000000000000000000000000000000000000000000000000815260040161160890612adc565b60405180910390fd5b60078760405161162191906129bc565b908152602001604051809103902060000160009054906101000a900473ffffffffffffffffffffffffffffffffffffffff1660078860405161166391906129bc565b908152602001604051809103902060010160078960405161168491906129bc565b90815260200160405180910390206002015460078a6040516116a691906129bc565b90815260200160405180910390206003015460078b6040516116c891906129bc565b9081526020016040518091039020600401548380546116e690612eaa565b80601f016020809104026020016040519081016040528092919081815260200182805461171290612eaa565b801561175f5780601f106117345761010080835404028352916020019161175f565b820191906000526020600020905b81548152906001019060200180831161174257829003601f168201915b50505050509350955095509550955095505091939590929450565b6000600160008473ffffffffffffffffffffffffffffffffffffffff1673ffffffffffffffffffffffffffffffffffffffff16815260200190815260200160002060008373ffffffffffffffffffffffffffffffffffffffff1673ffffffffffffffffffffffffffffffffffffffff16815260200190815260200160002054905092915050565b600033905090565b600073ffffffffffffffffffffffffffffffffffffffff168373ffffffffffffffffffffffffffffffffffffffff161415611879576040517f08c379a000000000000000000000000000000000000000000000000000000000815260040161187090612c1c565b60405180910390fd5b600073ffffffffffffffffffffffffffffffffffffffff168273ffffffffffffffffffffffffffffffffffffffff1614156118e9576040517f08c379a00000000000000000000000000000000000000000000000000000000081526004016118e090612afc565b60405180910390fd5b80600160008573ffffffffffffffffffffffffffffffffffffffff1673ffffffffffffffffffffffffffffffffffffffff16815260200190815260200160002060008473ffffffffffffffffffffffffffffffffffffffff1673ffffffffffffffffffffffffffffffffffffffff168152602001908152602001600020819055508173ffffffffffffffffffffffffffffffffffffffff168373ffffffffffffffffffffffffffffffffffffffff167f8c5be1e5ebec7d5bd14f71427d1e84f3dd0314c0f7b2291e5b200ac8c7c3b925836040516119c79190612c5c565b60405180910390a3505050565b600080600090505b600980549050811015611ace5760098181548110611a23577f4e487b7100000000000000000000000000000000000000000000000000000000600052603260045260246000fd5b90600052602060002001604051602001611a3d91906129d3565b6040516020818303038152906040528051906020012088604051602001611a6491906129bc565b604051602081830303815290604052805190602001201415611abb576040517f08c379a0000000000000000000000000000000000000000000000000000000008152600401611ab290612b3c565b60405180910390fd5b8080611ac690612edc565b9150506119dc565b5060006040518060a001604052808873ffffffffffffffffffffffffffffffffffffffff168152602001878152602001868152602001858152602001848152509050600988908060018154018082558091505060019003906000526020600020016000909190919091509080519060200190611b4b929190611f57565b5080600789604051611b5d91906129bc565b908152602001604051809103902060008201518160000160006101000a81548173ffffffffffffffffffffffffffffffffffffffff021916908373ffffffffffffffffffffffffffffffffffffffff1602179055506020820151816001019080519060200190611bce929190611f57565b5060408201518160020155606082015181600301556080820151816004015590505060019150509695505050505050565b600073ffffffffffffffffffffffffffffffffffffffff168373ffffffffffffffffffffffffffffffffffffffff161415611c6f576040517f08c379a0000000000000000000000000000000000000000000000000000000008152600401611c6690612bfc565b60405180910390fd5b600073ffffffffffffffffffffffffffffffffffffffff168273ffffffffffffffffffffffffffffffffffffffff161415611cdf576040517f08c379a0000000000000000000000000000000000000000000000000000000008152600401611cd690612a9c565b60405180910390fd5b611cea838383611e80565b60008060008573ffffffffffffffffffffffffffffffffffffffff1673ffffffffffffffffffffffffffffffffffffffff16815260200190815260200160002054905081811015611d70576040517f08c379a0000000000000000000000000000000000000000000000000000000008152600401611d6790612b1c565b60405180910390fd5b8181036000808673ffffffffffffffffffffffffffffffffffffffff1673ffffffffffffffffffffffffffffffffffffffff16815260200190815260200160002081905550816000808573ffffffffffffffffffffffffffffffffffffffff1673ffffffffffffffffffffffffffffffffffffffff1681526020019081526020016000206000828254611e039190612d2f565b925050819055508273ffffffffffffffffffffffffffffffffffffffff168473ffffffffffffffffffffffffffffffffffffffff167fddf252ad1be2c89b69c2b068fc378daa952ba7f163c4a11628f55a4df523b3ef84604051611e679190612c5c565b60405180910390a3611e7a848484611e85565b50505050565b505050565b505050565b508054611e9690612eaa565b6000825580601f10611ea85750611ec7565b601f016020900490600052602060002090810190611ec69190611fdd565b5b50565b828054611ed690612eaa565b90600052602060002090601f016020900481019282611ef85760008555611f46565b82601f10611f095780548555611f46565b82800160010185558215611f4657600052602060002091601f016020900482015b82811115611f45578254825591600101919060010190611f2a565b5b509050611f539190611fdd565b5090565b828054611f6390612eaa565b90600052602060002090601f016020900481019282611f855760008555611fcc565b82601f10611f9e57805160ff1916838001178555611fcc565b82800160010185558215611fcc579182015b82811115611fcb578251825591602001919060010190611fb0565b5b509050611fd99190611fdd565b5090565b5b80821115611ff6576000816000905550600101611fde565b5090565b600061200d61200884612cc3565b612c92565b90508281526020810184848401111561202557600080fd5b612030848285612e68565b509392505050565b60008135905061204781612fc3565b92915050565b600082601f83011261205e57600080fd5b813561206e848260208601611ffa565b91505092915050565b60008135905061208681612fda565b92915050565b60006020828403121561209e57600080fd5b60006120ac84828501612038565b91505092915050565b600080604083850312156120c857600080fd5b60006120d685828601612038565b92505060206120e785828601612038565b9150509250929050565b60008060006060848603121561210657600080fd5b600061211486828701612038565b935050602061212586828701612038565b925050604061213686828701612077565b9150509250925092565b6000806040838503121561215357600080fd5b600061216185828601612038565b925050602061217285828601612077565b9150509250929050565b60006020828403121561218e57600080fd5b600082013567ffffffffffffffff8111156121a857600080fd5b6121b48482850161204d565b91505092915050565b600080600080608085870312156121d357600080fd5b600085013567ffffffffffffffff8111156121ed57600080fd5b6121f98782880161204d565b945050602085013567ffffffffffffffff81111561221657600080fd5b6122228782880161204d565b935050604061223387828801612077565b925050606061224487828801612077565b91505092959194509250565b60008060006060848603121561226557600080fd5b600061227386828701612077565b935050602084013567ffffffffffffffff81111561229057600080fd5b61229c8682870161204d565b92505060406122ad86828701612077565b9150509250925092565b6122c081612e13565b82525050565b6122cf81612e25565b82525050565b60006122e082612d08565b6122ea8185612d13565b93506122fa818560208601612e77565b61230381612fb2565b840191505092915050565b600061231982612d08565b6123238185612d24565b9350612333818560208601612e77565b80840191505092915050565b6000815461234c81612eaa565b6123568186612d24565b945060018216600081146123715760018114612382576123b5565b60ff198316865281860193506123b5565b61238b85612cf3565b60005b838110156123ad5781548189015260018201915060208101905061238e565b838801955050505b50505092915050565b60006123cb602383612d13565b91507f45524332303a207472616e7366657220746f20746865207a65726f206164647260008301527f65737300000000000000000000000000000000000000000000000000000000006020830152604082019050919050565b6000612431604483612d13565b91507f313030303030303030303030303030303030207765692061726520726571756960008301527f72656420746f206973737565203530303020746f6b656e732028302e3120657460208301527f68657229000000000000000000000000000000000000000000000000000000006040830152606082019050919050565b60006124bd602583612d13565b91507f5468657265206973206e6f2073756368205075726368617365436f646520696e60008301527f20686572650000000000000000000000000000000000000000000000000000006020830152604082019050919050565b6000612523602283612d13565b91507f45524332303a20617070726f766520746f20746865207a65726f20616464726560008301527f73730000000000000000000000000000000000000000000000000000000000006020830152604082019050919050565b6000612589602683612d13565b91507f45524332303a207472616e7366657220616d6f756e742065786365656473206260008301527f616c616e636500000000000000000000000000000000000000000000000000006020830152604082019050919050565b60006125ef602f83612d13565b91507f54686973205075726368617365436f646520697320616c72656164792070726560008301527f73656e742c2074727920616761696e00000000000000000000000000000000006020830152604082019050919050565b6000612655602d83612d13565b91507f546f6b656e73206e6f7420617661696c61626c6520617420746865206d6f6d6560008301527f6e742c20747279206c61746572000000000000000000000000000000000000006020830152604082019050919050565b60006126bb604483612d13565b91507f343030303030303030303030303030303020776569206172652072657175697260008301527f656420746f206973737565203230303020746f6b656e732028302e303420657460208301527f68657229000000000000000000000000000000000000000000000000000000006040830152606082019050919050565b6000612747604483612d13565b91507f323030303030303030303030303030303020776569206172652072657175697260008301527f656420746f206973737565203130303020746f6b656e732028302e303220657460208301527f68657229000000000000000000000000000000000000000000000000000000006040830152606082019050919050565b60006127d3602883612d13565b91507f45524332303a207472616e7366657220616d6f756e742065786365656473206160008301527f6c6c6f77616e63650000000000000000000000000000000000000000000000006020830152604082019050919050565b6000612839601e83612d13565b91507f546869732073746f636b206973206e6f742079657420657870697265642100006000830152602082019050919050565b6000612879602583612d13565b91507f45524332303a207472616e736665722066726f6d20746865207a65726f20616460008301527f64726573730000000000000000000000000000000000000000000000000000006020830152604082019050919050565b60006128df602483612d13565b91507f45524332303a20617070726f76652066726f6d20746865207a65726f2061646460008301527f72657373000000000000000000000000000000000000000000000000000000006020830152604082019050919050565b6000612945602583612d13565b91507f45524332303a2064656372656173656420616c6c6f77616e63652062656c6f7760008301527f207a65726f0000000000000000000000000000000000000000000000000000006020830152604082019050919050565b6129a781612e51565b82525050565b6129b681612e5b565b82525050565b60006129c8828461230e565b915081905092915050565b60006129df828461233f565b915081905092915050565b60006020820190506129ff60008301846122b7565b92915050565b600060a082019050612a1a60008301886122b7565b8181036020830152612a2c81876122d5565b9050612a3b604083018661299e565b612a48606083018561299e565b612a55608083018461299e565b9695505050505050565b6000602082019050612a7460008301846122c6565b92915050565b60006020820190508181036000830152612a9481846122d5565b905092915050565b60006020820190508181036000830152612ab5816123be565b9050919050565b60006020820190508181036000830152612ad581612424565b9050919050565b60006020820190508181036000830152612af5816124b0565b9050919050565b60006020820190508181036000830152612b1581612516565b9050919050565b60006020820190508181036000830152612b358161257c565b9050919050565b60006020820190508181036000830152612b55816125e2565b9050919050565b60006020820190508181036000830152612b7581612648565b9050919050565b60006020820190508181036000830152612b95816126ae565b9050919050565b60006020820190508181036000830152612bb58161273a565b9050919050565b60006020820190508181036000830152612bd5816127c6565b9050919050565b60006020820190508181036000830152612bf58161282c565b9050919050565b60006020820190508181036000830152612c158161286c565b9050919050565b60006020820190508181036000830152612c35816128d2565b9050919050565b60006020820190508181036000830152612c5581612938565b9050919050565b6000602082019050612c71600083018461299e565b92915050565b6000602082019050612c8c60008301846129ad565b92915050565b6000604051905081810181811067ffffffffffffffff82111715612cb957612cb8612f83565b5b8060405250919050565b600067ffffffffffffffff821115612cde57612cdd612f83565b5b601f19601f8301169050602081019050919050565b60008190508160005260206000209050919050565b600081519050919050565b600082825260208201905092915050565b600081905092915050565b6000612d3a82612e51565b9150612d4583612e51565b9250827fffffffffffffffffffffffffffffffffffffffffffffffffffffffffffffffff03821115612d7a57612d79612f25565b5b828201905092915050565b6000612d9082612e51565b9150612d9b83612e51565b9250817fffffffffffffffffffffffffffffffffffffffffffffffffffffffffffffffff0483118215151615612dd457612dd3612f25565b5b828202905092915050565b6000612dea82612e51565b9150612df583612e51565b925082821015612e0857612e07612f25565b5b828203905092915050565b6000612e1e82612e31565b9050919050565b60008115159050919050565b600073ffffffffffffffffffffffffffffffffffffffff82169050919050565b6000819050919050565b600060ff82169050919050565b82818337600083830152505050565b60005b83811015612e95578082015181840152602081019050612e7a565b83811115612ea4576000848401525b50505050565b60006002820490506001821680612ec257607f821691505b60208210811415612ed657612ed5612f54565b5b50919050565b6000612ee782612e51565b91507fffffffffffffffffffffffffffffffffffffffffffffffffffffffffffffffff821415612f1a57612f19612f25565b5b600182019050919050565b7f4e487b7100000000000000000000000000000000000000000000000000000000600052601160045260246000fd5b7f4e487b7100000000000000000000000000000000000000000000000000000000600052602260045260246000fd5b7f4e487b7100000000000000000000000000000000000000000000000000000000600052604160045260246000fd5b6000601f19601f8301169050919050565b612fcc81612e13565b8114612fd757600080fd5b50565b612fe381612e51565b8114612fee57600080fd5b5056fea26469706673582212209e3b2a8e4f45fca33185dee3d418da708c2905a3f69755e1c1d5714f7fd578ac64736f6c63430008000033",
  "immutableReferences": {},
  "source": "pragma solidity ^0.8.0;\r\n\r\nimport \"@openzeppelin/contracts/token/ERC20/ERC20.sol\";\r\nimport \"@openzeppelin/contracts/utils/Strings.sol\";\r\n\r\n\r\n\r\ncontract GoodToken is ERC20{\r\n\r\n    mapping(address => uint256) depositedEther;\r\n    mapping(address => uint256) tokensDeserved;\r\n    mapping(string => PurchaseInfo) Payments;\r\n\r\n    address public _owner;\r\n    string[] PurchaseID;\r\n\r\n    struct PurchaseInfo{\r\n\r\n        address BuyerAddress;\r\n        string stockId;\r\n        uint256 stockSize;\r\n        uint256 StartDate;\r\n        uint256 EndDate;\r\n\r\n    }\r\n\r\n    constructor(uint256 initialSupply) ERC20(\"GoodToken\", \"GT\"){\r\n        _mint(msg.sender, initialSupply * (10 ** decimals()));\r\n        _owner = msg.sender;\r\n  \r\n    }\r\n\r\n    function getOwner() public view returns (address){\r\n\r\n        return _owner;\r\n    }  \r\n    \r\n    modifier hasFunds(uint256 _amount){\r\n        \r\n        require(_amount <= depositedEther[msg.sender], \"Not sufficient funds\");\r\n        _;\r\n        \r\n    }\r\n\r\n\r\n    function approveTransfer(address sender) public returns (uint256){\r\n        \r\n        approve(sender , totalSupply() );\r\n        \r\n        \r\n        return allowance(_owner , sender);\r\n        \r\n    }\r\n    \r\n    \r\n\r\n    function issue1000Tokens(string memory PurchaseCode, string memory stockID, uint256 PaymentDate, uint256 TokensExpiration) public payable returns (bool){      // 1.000 tokens per ETH deposited\r\n        // deposit ether in the contract\r\n        require(msg.value == 20000000000000000 wei , '20000000000000000 wei are required to issue 1000 tokens (0.02 ether)');\r\n\r\n        // transfer the equivalent amount to buyer adding infos to contract\r\n        \r\n        require( balanceOf(_owner) >= tokensDeserved[msg.sender] , 'Tokens not available at the moment, try later');\r\n    \r\n\r\n        addPayment(PurchaseCode, msg.sender, stockID,  1000 , PaymentDate, TokensExpiration);\r\n        //addInfos(PurchaseCode, h_0 , H_N);\r\n        \r\n        transferFrom(_owner, msg.sender ,  1000 );\r\n\r\n        depositedEther[msg.sender] += msg.value;\r\n        tokensDeserved[msg.sender] += 1000;\r\n\r\n        \r\n        \r\n        return true;\r\n\r\n    }\r\n\r\n    function issue2000Tokens(string memory PurchaseCode, string memory stockID, uint256 PaymentDate, uint256 TokensExpiration) public payable returns (bool){      // 1.000 tokens per ETH deposited\r\n        // deposit ether in the contract\r\n        require(msg.value == 40000000000000000 wei , '40000000000000000 wei are required to issue 2000 tokens (0.04 ether)');\r\n        \r\n\r\n        // transfer the equivalent amount to buyer adding infos to contract\r\n        \r\n        require( balanceOf(_owner) >= tokensDeserved[msg.sender] , 'Tokens not available at the moment, try later');\r\n    \r\n\r\n        addPayment(PurchaseCode, msg.sender, stockID,  2000 , PaymentDate, TokensExpiration);\r\n        //addInfos(PurchaseCode, h_0 , H_N);\r\n        \r\n        transferFrom(_owner, msg.sender ,  2000 );\r\n\r\n        depositedEther[msg.sender] += msg.value;\r\n        tokensDeserved[msg.sender] += 2000;\r\n        \r\n        \r\n        return true;\r\n\r\n    }\r\n\r\n    function issue5000Tokens(string memory PurchaseCode, string memory stockID, uint256 PaymentDate, uint256 TokensExpiration) public payable returns (bool){      // 1.000 tokens per ETH deposited\r\n        // deposit ether in the contract\r\n        require(msg.value == 100000000000000000 wei , '100000000000000000 wei are required to issue 5000 tokens (0.1 ether)');\r\n        \r\n\r\n        // transfer the equivalent amount to buyer adding infos to contract\r\n        \r\n        require( balanceOf(_owner) >= tokensDeserved[msg.sender] , 'Tokens not available at the moment, try later');\r\n    \r\n\r\n        addPayment(PurchaseCode, msg.sender, stockID,  5000 , PaymentDate, TokensExpiration);\r\n        //addInfos(PurchaseCode, h_0 , H_N);\r\n        \r\n        transferFrom(_owner, msg.sender ,  5000 );\r\n\r\n        depositedEther[msg.sender] += msg.value;\r\n        tokensDeserved[msg.sender] += 5000;\r\n        \r\n        \r\n        return true;\r\n\r\n    }\r\n    \r\n    function withdraw(uint256 tokensUsed, string memory purchaseCode , uint256 nowDate) public {\r\n        \r\n        uint256 stockSize = Payments[purchaseCode].stockSize;\r\n\r\n        require(Payments[purchaseCode].EndDate < nowDate , 'This stock is not yet expired!');\r\n\r\n        // transfer all tokens of the stock to the owner\r\n        transfer(_owner, stockSize );\r\n        \r\n        \r\n\r\n        // remove the stock due to expiration\r\n        delete (Payments[purchaseCode]);\r\n        for (uint256 i = 0; i < PurchaseID.length; i++) {\r\n            if(keccak256(abi.encodePacked(purchaseCode)) == keccak256(abi.encodePacked(PurchaseID[i]))){\r\n                PurchaseID[i] = PurchaseID[PurchaseID.length - 1];\r\n            }\r\n        }\r\n        delete PurchaseID[PurchaseID.length - 1];\r\n        \r\n        // check ether's amount reserved for owner and buyer and transfer the equivalent amount\r\n        uint256 weiToBuyer = (stockSize - tokensUsed) * 20000000000000;\r\n        uint256 weiToOwner = (tokensUsed * 20000000000000);\r\n        payable(msg.sender).transfer(weiToBuyer);\r\n        payable(_owner).transfer(weiToOwner);\r\n\r\n        // update amount of tokens still active and deposited ether\r\n        depositedEther[msg.sender] = depositedEther[msg.sender] - (stockSize * 20000000000000);\r\n        tokensDeserved[msg.sender] = tokensDeserved[msg.sender] - stockSize;\r\n\r\n        \r\n    }\r\n    \r\n    function checkAssets() public view returns(uint256){\r\n        return address(this).balance;\r\n        \r\n    }\r\n\r\n    function addPayment(string memory PurchaseCode , address buyerAddress, string memory stockID, uint256 stockSize , uint256 PaymentDate, uint256 TokenExpiration ) internal returns (bool){\r\n        //bytes32 PurchaseHash = sha256(abi.encodePacked(PurchaseCode));\r\n\r\n        //Checks if there is already this PurchaseCode in the array\r\n\r\n        for (uint256 i = 0; i < PurchaseID.length; i++) {\r\n            if(keccak256(abi.encodePacked((PurchaseCode))) == keccak256(abi.encodePacked((PurchaseID[i]))))\r\n                revert('This PurchaseCode is already present, try again');\r\n        }\r\n\r\n        //==========================================================================//\r\n\r\n        // Adds new PurchaseInfo, adds the purchaseID to PurchaseList and maps this value with the new Purchase //\r\n\r\n        PurchaseInfo memory newPurchase = PurchaseInfo(buyerAddress, stockID , stockSize, PaymentDate, TokenExpiration);\r\n        PurchaseID.push(PurchaseCode);\r\n        Payments[PurchaseCode] = newPurchase;\r\n\r\n        //==========================================================================//\r\n\r\n        return true;     \r\n    }\r\n\r\n    function getPayment(string memory PurchaseCode) public view returns (address, string memory, uint256 , uint256, uint256){\r\n        bool isInPayments = false;\r\n        //bytes32 PurchaseHash = sha256(abi.encodePacked(PurchaseCode));\r\n\r\n        // Checks if PurchaseCode is valid\r\n        \r\n        for (uint256 i = 0; i < PurchaseID.length; i++) {\r\n            if(keccak256(abi.encodePacked((PurchaseCode))) == keccak256(abi.encodePacked((PurchaseID[i])))){ \r\n                isInPayments = true;\r\n            }\r\n        }\r\n        if(!isInPayments)\r\n            revert('There is no such PurchaseCode in here');\r\n\r\n\r\n        //--------------------------------------------------------------------------//\r\n\r\n        \r\n\r\n        return (Payments[PurchaseCode].BuyerAddress, Payments[PurchaseCode].stockId, Payments[PurchaseCode].stockSize, Payments[PurchaseCode].StartDate , Payments[PurchaseCode].EndDate);\r\n\r\n    }\r\n\r\n    \r\n    \r\n    \r\n    \r\n\r\n    \r\n\r\n\r\n}\r\n\r\n    /*\r\n    \r\n    function deposit(uint256 amount, string memory PurchaseCode, string memory stockID, uint256 PaymentDate, uint256 TokensExpiration) public payable{      // 10'000 tokens per ETH deposited\r\n        // deposit ether in the contract\r\n        require(msg.value >= 1 ether , 'At least 1 ether is required to deposit');\r\n        accounts[msg.sender] += msg.value;\r\n\r\n        // trasnfer the equivalent amount to buyer\r\n\r\n        uint256 tokensAmount = 10000 * (msg.value / (10 ** 18));\r\n        \r\n        require( balanceOf(_owner) >= amount , 'Tokens not available at the moment, try later');\r\n        approve(msg.sender, amount);\r\n        transferFrom(_owner, msg.sender, amount);\r\n\r\n        addPayment(PurchaseCode, msg.sender, stockID, tokensAmount, PaymentDate, TokenExpiration);\r\n\r\n\r\n        \r\n    }\r\n\r\n\r\n\r\n\r\n    function issueTokens(string memory PurchaseCode, string memory stockID, uint256 PaymentDate, uint256 TokensExpiration, string memory h_0 , string memory H_N) public payable returns (bool){      // 1.000 tokens per ETH deposited\r\n        // deposit ether in the contract\r\n        require(msg.value >= 1 ether , 'At least 1 ether is required to deposit');\r\n        depositedEther[msg.sender] += msg.value;\r\n        tokensDeserved[msg.sender] += ( msg.value / (10 ** 18) ) * 1000;\r\n\r\n        // transfer the equivalent amount to buyer adding infos to contract\r\n        \r\n        require( balanceOf(_owner) >= tokensDeserved[msg.sender] , 'Tokens not available at the moment, try later');\r\n    \r\n\r\n        addPayment(PurchaseCode, msg.sender, stockID, ( msg.value / (10 ** 18) ) * 1000, PaymentDate, TokensExpiration);\r\n        //addInfos(PurchaseCode, h_0 , H_N);\r\n        \r\n        transferFrom(_owner, msg.sender , ( msg.value / (10 ** 18) ) * 1000 );\r\n        \r\n        \r\n        return true;\r\n\r\n    }\r\n\r\n    \r\n\r\n    function getPurchaseInfos(string memory PurchaseCode) public view returns (string memory, string memory, address ){\r\n        require(msg.sender == _owner, 'Only the owner can see the PurchaseInfos');\r\n        bool isInPayments = false;\r\n        //bytes32 PurchaseHash = sha256(abi.encodePacked(PurchaseCode));\r\n        \r\n        // Checks if PurchaseCode is valid\r\n        \r\n        for (uint256 i = 0; i < PurchaseID.length; i++) {\r\n            if(keccak256(abi.encodePacked((PurchaseCode))) == keccak256(abi.encodePacked((PurchaseID[i])))){    \r\n                isInPayments = true;\r\n            }\r\n        }\r\n        if(!isInPayments)\r\n            revert('There is no such PurchaseCode in here');\r\n\r\n\r\n        //--------------------------------------------------------------------------//\r\n        \r\n        \r\n        \r\n        return(BuyerInfos[Payments[PurchaseCode].stockId].h_0, BuyerInfos[Payments[PurchaseCode].stockId].H_N , BuyerInfos[Payments[PurchaseCode].stockId].BuyerAddress);\r\n        \r\n    }\r\n\r\n    function addInfos(string memory PurchaseCode, string memory h_0 , string memory H_N ) public returns (bool){\r\n            //bytes32 PurchaseHash = sha256(abi.encodePacked(PurchaseCode));\r\n\r\n            // Adds BuyerInfos\r\n\r\n            uint256 TotalAmount = Payments[PurchaseCode].stockSize;\r\n            PurchaseHashes memory thisPurchaseHashes = PurchaseHashes(TotalAmount, h_0 , H_N, Payments[PurchaseCode].BuyerAddress);\r\n            BuyerInfos[Payments[PurchaseCode].stockId] = thisPurchaseHashes;\r\n\r\n            //--------------------------------------------------------------------------//\r\n\r\n            return true;\r\n    }\r\n\r\n\r\n\r\n\r\n    function getHashedThing(string memory thisString, string memory thatString, uint256 number) public pure returns (bytes32){\r\n        \r\n        string memory numberString = toString(number);\r\n        bytes32 result = sha256(abi.encodePacked(thisString , thatString , numberString));\r\n        \r\n        return result;\r\n        \r\n    }\r\n\r\n    function toString(uint256 value) internal pure returns (string memory) {\r\n        if (value == 0) {\r\n            return \"0\";\r\n        }\r\n        uint256 temp = value;\r\n        uint256 digits;\r\n        while (temp != 0) {\r\n            digits++;\r\n            temp /= 10;\r\n        }\r\n        bytes memory buffer = new bytes(digits);\r\n        while (value != 0) {\r\n            digits -= 1;\r\n            buffer[digits] = bytes1(uint8(48 + uint256(value % 10)));\r\n            value /= 10;\r\n        }\r\n        return string(buffer);\r\n    }\r\n\r\n\r\n\r\n    */",
  "sourcePath": "C:\\Users\\l\\Desktop\\Universit\\II Semestre\\Tesi\\Project\\GoodTokenProject\\contracts\\SafeToken.sol",
  "compiler": {
    "name": "solc",
    "version": "0.8.0+commit.c7dfd78e.Emscripten.clang"
  },
  "schemaVersion": "3.4.2",
  "updatedAt": "2021-08-30T14:03:31.268Z",
  "devdoc": {
    "kind": "dev",
    "methods": {
      "allowance(address,address)": {
        "details": "See {IERC20-allowance}."
      },
      "approve(address,uint256)": {
        "details": "See {IERC20-approve}. Requirements: - `spender` cannot be the zero address."
      },
      "balanceOf(address)": {
        "details": "See {IERC20-balanceOf}."
      },
      "decimals()": {
        "details": "Returns the number of decimals used to get its user representation. For example, if `decimals` equals `2`, a balance of `505` tokens should be displayed to a user as `5,05` (`505 / 10 ** 2`). Tokens usually opt for a value of 18, imitating the relationship between Ether and Wei. This is the value {ERC20} uses, unless this function is overridden; NOTE: This information is only used for _display_ purposes: it in no way affects any of the arithmetic of the contract, including {IERC20-balanceOf} and {IERC20-transfer}."
      },
      "decreaseAllowance(address,uint256)": {
        "details": "Atomically decreases the allowance granted to `spender` by the caller. This is an alternative to {approve} that can be used as a mitigation for problems described in {IERC20-approve}. Emits an {Approval} event indicating the updated allowance. Requirements: - `spender` cannot be the zero address. - `spender` must have allowance for the caller of at least `subtractedValue`."
      },
      "increaseAllowance(address,uint256)": {
        "details": "Atomically increases the allowance granted to `spender` by the caller. This is an alternative to {approve} that can be used as a mitigation for problems described in {IERC20-approve}. Emits an {Approval} event indicating the updated allowance. Requirements: - `spender` cannot be the zero address."
      },
      "name()": {
        "details": "Returns the name of the token."
      },
      "symbol()": {
        "details": "Returns the symbol of the token, usually a shorter version of the name."
      },
      "totalSupply()": {
        "details": "See {IERC20-totalSupply}."
      },
      "transfer(address,uint256)": {
        "details": "See {IERC20-transfer}. Requirements: - `recipient` cannot be the zero address. - the caller must have a balance of at least `amount`."
      },
      "transferFrom(address,address,uint256)": {
        "details": "See {IERC20-transferFrom}. Emits an {Approval} event indicating the updated allowance. This is not required by the EIP. See the note at the beginning of {ERC20}. Requirements: - `sender` and `recipient` cannot be the zero address. - `sender` must have a balance of at least `amount`. - the caller must have allowance for ``sender``'s tokens of at least `amount`."
      }
    },
    "version": 1
  },
  "userdoc": {
    "kind": "user",
    "methods": {},
    "version": 1
  }
}