{
  "contractName": "SafeToken",
  "abi": [
    {
      "inputs": [
        {
          "internalType": "uint256",
          "name": "initialSupply",
          "type": "uint256"
        }
      ],
      "stateMutability": "nonpayable",
      "type": "constructor"
    },
    {
      "anonymous": false,
      "inputs": [
        {
          "indexed": true,
          "internalType": "address",
          "name": "owner",
          "type": "address"
        },
        {
          "indexed": true,
          "internalType": "address",
          "name": "spender",
          "type": "address"
        },
        {
          "indexed": false,
          "internalType": "uint256",
          "name": "value",
          "type": "uint256"
        }
      ],
      "name": "Approval",
      "type": "event"
    },
    {
      "anonymous": false,
      "inputs": [
        {
          "indexed": true,
          "internalType": "address",
          "name": "from",
          "type": "address"
        },
        {
          "indexed": true,
          "internalType": "address",
          "name": "to",
          "type": "address"
        },
        {
          "indexed": false,
          "internalType": "uint256",
          "name": "value",
          "type": "uint256"
        }
      ],
      "name": "Transfer",
      "type": "event"
    },
    {
      "inputs": [],
      "name": "_owner",
      "outputs": [
        {
          "internalType": "address",
          "name": "",
          "type": "address"
        }
      ],
      "stateMutability": "view",
      "type": "function"
    },
    {
      "inputs": [
        {
          "internalType": "address",
          "name": "owner",
          "type": "address"
        },
        {
          "internalType": "address",
          "name": "spender",
          "type": "address"
        }
      ],
      "name": "allowance",
      "outputs": [
        {
          "internalType": "uint256",
          "name": "",
          "type": "uint256"
        }
      ],
      "stateMutability": "view",
      "type": "function"
    },
    {
      "inputs": [
        {
          "internalType": "address",
          "name": "spender",
          "type": "address"
        },
        {
          "internalType": "uint256",
          "name": "amount",
          "type": "uint256"
        }
      ],
      "name": "approve",
      "outputs": [
        {
          "internalType": "bool",
          "name": "",
          "type": "bool"
        }
      ],
      "stateMutability": "nonpayable",
      "type": "function"
    },
    {
      "inputs": [
        {
          "internalType": "address",
          "name": "account",
          "type": "address"
        }
      ],
      "name": "balanceOf",
      "outputs": [
        {
          "internalType": "uint256",
          "name": "",
          "type": "uint256"
        }
      ],
      "stateMutability": "view",
      "type": "function"
    },
    {
      "inputs": [],
      "name": "decimals",
      "outputs": [
        {
          "internalType": "uint8",
          "name": "",
          "type": "uint8"
        }
      ],
      "stateMutability": "view",
      "type": "function"
    },
    {
      "inputs": [
        {
          "internalType": "address",
          "name": "spender",
          "type": "address"
        },
        {
          "internalType": "uint256",
          "name": "subtractedValue",
          "type": "uint256"
        }
      ],
      "name": "decreaseAllowance",
      "outputs": [
        {
          "internalType": "bool",
          "name": "",
          "type": "bool"
        }
      ],
      "stateMutability": "nonpayable",
      "type": "function"
    },
    {
      "inputs": [
        {
          "internalType": "address",
          "name": "spender",
          "type": "address"
        },
        {
          "internalType": "uint256",
          "name": "addedValue",
          "type": "uint256"
        }
      ],
      "name": "increaseAllowance",
      "outputs": [
        {
          "internalType": "bool",
          "name": "",
          "type": "bool"
        }
      ],
      "stateMutability": "nonpayable",
      "type": "function"
    },
    {
      "inputs": [],
      "name": "name",
      "outputs": [
        {
          "internalType": "string",
          "name": "",
          "type": "string"
        }
      ],
      "stateMutability": "view",
      "type": "function"
    },
    {
      "inputs": [],
      "name": "symbol",
      "outputs": [
        {
          "internalType": "string",
          "name": "",
          "type": "string"
        }
      ],
      "stateMutability": "view",
      "type": "function"
    },
    {
      "inputs": [],
      "name": "totalSupply",
      "outputs": [
        {
          "internalType": "uint256",
          "name": "",
          "type": "uint256"
        }
      ],
      "stateMutability": "view",
      "type": "function"
    },
    {
      "inputs": [
        {
          "internalType": "address",
          "name": "recipient",
          "type": "address"
        },
        {
          "internalType": "uint256",
          "name": "amount",
          "type": "uint256"
        }
      ],
      "name": "transfer",
      "outputs": [
        {
          "internalType": "bool",
          "name": "",
          "type": "bool"
        }
      ],
      "stateMutability": "nonpayable",
      "type": "function"
    },
    {
      "inputs": [
        {
          "internalType": "address",
          "name": "sender",
          "type": "address"
        },
        {
          "internalType": "address",
          "name": "recipient",
          "type": "address"
        },
        {
          "internalType": "uint256",
          "name": "amount",
          "type": "uint256"
        }
      ],
      "name": "transferFrom",
      "outputs": [
        {
          "internalType": "bool",
          "name": "",
          "type": "bool"
        }
      ],
      "stateMutability": "nonpayable",
      "type": "function"
    },
    {
      "inputs": [],
      "name": "getOwner",
      "outputs": [
        {
          "internalType": "address",
          "name": "",
          "type": "address"
        }
      ],
      "stateMutability": "view",
      "type": "function"
    },
    {
      "inputs": [
        {
          "internalType": "address",
          "name": "sender",
          "type": "address"
        },
        {
          "internalType": "uint256",
          "name": "supply",
          "type": "uint256"
        }
      ],
      "name": "approveTransfer",
      "outputs": [
        {
          "internalType": "uint256",
          "name": "",
          "type": "uint256"
        }
      ],
      "stateMutability": "nonpayable",
      "type": "function"
    },
    {
      "inputs": [
        {
          "internalType": "string",
          "name": "PurchaseCode",
          "type": "string"
        },
        {
          "internalType": "string",
          "name": "stockID",
          "type": "string"
        },
        {
          "internalType": "uint256",
          "name": "PaymentDate",
          "type": "uint256"
        },
        {
          "internalType": "uint256",
          "name": "TokensExpiration",
          "type": "uint256"
        }
      ],
      "name": "issue250Tokens",
      "outputs": [
        {
          "internalType": "bool",
          "name": "",
          "type": "bool"
        }
      ],
      "stateMutability": "payable",
      "type": "function"
    },
    {
      "inputs": [
        {
          "internalType": "string",
          "name": "PurchaseCode",
          "type": "string"
        },
        {
          "internalType": "string",
          "name": "stockID",
          "type": "string"
        },
        {
          "internalType": "uint256",
          "name": "PaymentDate",
          "type": "uint256"
        },
        {
          "internalType": "uint256",
          "name": "TokensExpiration",
          "type": "uint256"
        }
      ],
      "name": "issue500Tokens",
      "outputs": [
        {
          "internalType": "bool",
          "name": "",
          "type": "bool"
        }
      ],
      "stateMutability": "payable",
      "type": "function"
    },
    {
      "inputs": [
        {
          "internalType": "string",
          "name": "PurchaseCode",
          "type": "string"
        },
        {
          "internalType": "string",
          "name": "stockID",
          "type": "string"
        },
        {
          "internalType": "uint256",
          "name": "PaymentDate",
          "type": "uint256"
        },
        {
          "internalType": "uint256",
          "name": "TokensExpiration",
          "type": "uint256"
        }
      ],
      "name": "issue1000Tokens",
      "outputs": [
        {
          "internalType": "bool",
          "name": "",
          "type": "bool"
        }
      ],
      "stateMutability": "payable",
      "type": "function"
    },
    {
      "inputs": [
        {
          "internalType": "uint256",
          "name": "tokensUsed",
          "type": "uint256"
        },
        {
          "internalType": "string",
          "name": "purchaseCode",
          "type": "string"
        },
        {
          "internalType": "uint256",
          "name": "nowDate",
          "type": "uint256"
        }
      ],
      "name": "withdraw",
      "outputs": [],
      "stateMutability": "nonpayable",
      "type": "function"
    },
    {
      "inputs": [],
      "name": "checkAssets",
      "outputs": [
        {
          "internalType": "uint256",
          "name": "",
          "type": "uint256"
        }
      ],
      "stateMutability": "view",
      "type": "function"
    },
    {
      "inputs": [
        {
          "internalType": "string",
          "name": "PurchaseCode",
          "type": "string"
        }
      ],
      "name": "getPayment",
      "outputs": [
        {
          "internalType": "address",
          "name": "",
          "type": "address"
        },
        {
          "internalType": "string",
          "name": "",
          "type": "string"
        },
        {
          "internalType": "uint256",
          "name": "",
          "type": "uint256"
        },
        {
          "internalType": "uint256",
          "name": "",
          "type": "uint256"
        },
        {
          "internalType": "uint256",
          "name": "",
          "type": "uint256"
        }
      ],
      "stateMutability": "view",
      "type": "function"
    }
  ],
  "bytecode": "0x60806040523480156200001157600080fd5b506040516200347e3803806200347e8339818101604052810190620000379190620003ae565b6040518060400160405280600981526020017f53616665546f6b656e00000000000000000000000000000000000000000000008152506040518060400160405280600281526020017f53540000000000000000000000000000000000000000000000000000000000008152508160039080519060200190620000bb929190620002e7565b508060049080519060200190620000d4929190620002e7565b5050506200011333620000ec6200015b60201b60201c565b600a620000fa919062000535565b8362000107919062000672565b6200016460201b60201c565b33600860006101000a81548173ffffffffffffffffffffffffffffffffffffffff021916908373ffffffffffffffffffffffffffffffffffffffff16021790555050620007a5565b60006012905090565b600073ffffffffffffffffffffffffffffffffffffffff168273ffffffffffffffffffffffffffffffffffffffff161415620001d7576040517f08c379a0000000000000000000000000000000000000000000000000000000008152600401620001ce906200042d565b60405180910390fd5b620001eb60008383620002dd60201b60201c565b8060026000828254620001ff91906200047d565b92505081905550806000808473ffffffffffffffffffffffffffffffffffffffff1673ffffffffffffffffffffffffffffffffffffffff16815260200190815260200160002060008282546200025691906200047d565b925050819055508173ffffffffffffffffffffffffffffffffffffffff16600073ffffffffffffffffffffffffffffffffffffffff167fddf252ad1be2c89b69c2b068fc378daa952ba7f163c4a11628f55a4df523b3ef83604051620002bd91906200044f565b60405180910390a3620002d960008383620002e260201b60201c565b5050565b505050565b505050565b828054620002f590620006ea565b90600052602060002090601f01602090048101928262000319576000855562000365565b82601f106200033457805160ff191683800117855562000365565b8280016001018555821562000365579182015b828111156200036457825182559160200191906001019062000347565b5b50905062000374919062000378565b5090565b5b808211156200039357600081600090555060010162000379565b5090565b600081519050620003a8816200078b565b92915050565b600060208284031215620003c157600080fd5b6000620003d18482850162000397565b91505092915050565b6000620003e9601f836200046c565b91507f45524332303a206d696e7420746f20746865207a65726f2061646472657373006000830152602082019050919050565b6200042781620006d3565b82525050565b600060208201905081810360008301526200044881620003da565b9050919050565b60006020820190506200046660008301846200041c565b92915050565b600082825260208201905092915050565b60006200048a82620006d3565b91506200049783620006d3565b9250827fffffffffffffffffffffffffffffffffffffffffffffffffffffffffffffffff03821115620004cf57620004ce62000720565b5b828201905092915050565b6000808291508390505b60018511156200052c5780860481111562000504576200050362000720565b5b6001851615620005145780820291505b808102905062000524856200077e565b9450620004e4565b94509492505050565b60006200054282620006d3565b91506200054f83620006dd565b92506200057e7fffffffffffffffffffffffffffffffffffffffffffffffffffffffffffffffff848462000586565b905092915050565b6000826200059857600190506200066b565b81620005a857600090506200066b565b8160018114620005c15760028114620005cc5762000602565b60019150506200066b565b60ff841115620005e157620005e062000720565b5b8360020a915084821115620005fb57620005fa62000720565b5b506200066b565b5060208310610133831016604e8410600b84101617156200063c5782820a90508381111562000636576200063562000720565b5b6200066b565b6200064b8484846001620004da565b9250905081840481111562000665576200066462000720565b5b81810290505b9392505050565b60006200067f82620006d3565b91506200068c83620006d3565b9250817fffffffffffffffffffffffffffffffffffffffffffffffffffffffffffffffff0483118215151615620006c857620006c762000720565b5b828202905092915050565b6000819050919050565b600060ff82169050919050565b600060028204905060018216806200070357607f821691505b602082108114156200071a57620007196200074f565b5b50919050565b7f4e487b7100000000000000000000000000000000000000000000000000000000600052601160045260246000fd5b7f4e487b7100000000000000000000000000000000000000000000000000000000600052602260045260246000fd5b60008160011c9050919050565b6200079681620006d3565b8114620007a257600080fd5b50565b612cc980620007b56000396000f3fe60806040526004361061011f5760003560e01c806370a08231116100a0578063a9059cbb11610064578063a9059cbb14610410578063b2bdfa7b1461044d578063c69207a314610478578063dd62ed3e146104b9578063fa02c4b7146104f65761011f565b806370a082311461031557806371aa8fd914610352578063893d20e81461037d57806395d89b41146103a8578063a457c2d7146103d35761011f565b806323b872dd116100e757806323b872dd14610210578063313ce5671461024d578063395093511461027857806357f19731146102b5578063637b2131146102e55761011f565b8063060e94441461012457806306fdde031461014d578063095ea7b3146101785780630f82e0dd146101b557806318160ddd146101e5575b600080fd5b34801561013057600080fd5b5061014b60048036038101906101469190611ef2565b610533565b005b34801561015957600080fd5b5061016261083f565b60405161016f919061271c565b60405180910390f35b34801561018457600080fd5b5061019f600480360381019061019a9190611de2565b6108d1565b6040516101ac9190612701565b60405180910390f35b6101cf60048036038101906101ca9190611e5f565b6108ef565b6040516101dc9190612701565b60405180910390f35b3480156101f157600080fd5b506101fa610a35565b60405161020791906128fe565b60405180910390f35b34801561021c57600080fd5b5061023760048036038101906102329190611d93565b610a3f565b6040516102449190612701565b60405180910390f35b34801561025957600080fd5b50610262610b37565b60405161026f9190612919565b60405180910390f35b34801561028457600080fd5b5061029f600480360381019061029a9190611de2565b610b40565b6040516102ac9190612701565b60405180910390f35b6102cf60048036038101906102ca9190611e5f565b610bec565b6040516102dc9190612701565b60405180910390f35b6102ff60048036038101906102fa9190611e5f565b610ddb565b60405161030c9190612701565b60405180910390f35b34801561032157600080fd5b5061033c60048036038101906103379190611d2e565b610fcd565b60405161034991906128fe565b60405180910390f35b34801561035e57600080fd5b50610367611015565b60405161037491906128fe565b60405180910390f35b34801561038957600080fd5b5061039261101d565b60405161039f919061268c565b60405180910390f35b3480156103b457600080fd5b506103bd611047565b6040516103ca919061271c565b60405180910390f35b3480156103df57600080fd5b506103fa60048036038101906103f59190611de2565b6110d9565b6040516104079190612701565b60405180910390f35b34801561041c57600080fd5b5061043760048036038101906104329190611de2565b6111c4565b6040516104449190612701565b60405180910390f35b34801561045957600080fd5b506104626111e2565b60405161046f919061268c565b60405180910390f35b34801561048457600080fd5b5061049f600480360381019061049a9190611e1e565b611208565b6040516104b09594939291906126a7565b60405180910390f35b3480156104c557600080fd5b506104e060048036038101906104db9190611d57565b61147f565b6040516104ed91906128fe565b60405180910390f35b34801561050257600080fd5b5061051d60048036038101906105189190611de2565b611506565b60405161052a91906128fe565b60405180910390f35b6000600783604051610545919061265e565b90815260200160405180910390206002015490508160078460405161056a919061265e565b908152602001604051809103902060040154106105bc576040517f08c379a00000000000000000000000000000000000000000000000000000000081526004016105b39061287e565b60405180910390fd5b6105e8600860009054906101000a900473ffffffffffffffffffffffffffffffffffffffff16826111c4565b5060016007846040516105fb919061265e565b908152602001604051809103902060050160006101000a81548160ff0219169083151502179055506000650da475abf00085836106389190612a81565b6106429190612a27565b90506000650da475abf000866106589190612a27565b90503373ffffffffffffffffffffffffffffffffffffffff166108fc839081150290604051600060405180830381858888f193505050501580156106a0573d6000803e3d6000fd5b50600860009054906101000a900473ffffffffffffffffffffffffffffffffffffffff1673ffffffffffffffffffffffffffffffffffffffff166108fc829081150290604051600060405180830381858888f19350505050158015610709573d6000803e3d6000fd5b50650da475abf0008361071c9190612a27565b600560003373ffffffffffffffffffffffffffffffffffffffff1673ffffffffffffffffffffffffffffffffffffffff168152602001908152602001600020546107669190612a81565b600560003373ffffffffffffffffffffffffffffffffffffffff1673ffffffffffffffffffffffffffffffffffffffff1681526020019081526020016000208190555082600660003373ffffffffffffffffffffffffffffffffffffffff1673ffffffffffffffffffffffffffffffffffffffff168152602001908152602001600020546107f49190612a81565b600660003373ffffffffffffffffffffffffffffffffffffffff1673ffffffffffffffffffffffffffffffffffffffff16815260200190815260200160002081905550505050505050565b60606003805461084e90612b4c565b80601f016020809104026020016040519081016040528092919081815260200182805461087a90612b4c565b80156108c75780601f1061089c576101008083540402835291602001916108c7565b820191906000526020600020905b8154815290600101906020018083116108aa57829003601f168201915b5050505050905090565b60006108e56108de611547565b848461154f565b6001905092915050565b600066354a6ba7a18000341461093a576040517f08c379a00000000000000000000000000000000000000000000000000000000081526004016109319061273e565b60405180910390fd5b61094a8533866103e8878761171a565b5061097a600860009054906101000a900473ffffffffffffffffffffffffffffffffffffffff16336103e8610a3f565b5034600560003373ffffffffffffffffffffffffffffffffffffffff1673ffffffffffffffffffffffffffffffffffffffff16815260200190815260200160002060008282546109ca91906129d1565b925050819055506103e8600660003373ffffffffffffffffffffffffffffffffffffffff1673ffffffffffffffffffffffffffffffffffffffff1681526020019081526020016000206000828254610a2291906129d1565b9250508190555060019050949350505050565b6000600254905090565b6000610a4c84848461196e565b6000600160008673ffffffffffffffffffffffffffffffffffffffff1673ffffffffffffffffffffffffffffffffffffffff1681526020019081526020016000206000610a97611547565b73ffffffffffffffffffffffffffffffffffffffff1673ffffffffffffffffffffffffffffffffffffffff16815260200190815260200160002054905082811015610b17576040517f08c379a0000000000000000000000000000000000000000000000000000000008152600401610b0e9061283e565b60405180910390fd5b610b2b85610b23611547565b85840361154f565b60019150509392505050565b60006012905090565b6000610be2610b4d611547565b848460016000610b5b611547565b73ffffffffffffffffffffffffffffffffffffffff1673ffffffffffffffffffffffffffffffffffffffff16815260200190815260200160002060008873ffffffffffffffffffffffffffffffffffffffff1673ffffffffffffffffffffffffffffffffffffffff16815260200190815260200160002054610bdd91906129d1565b61154f565b6001905092915050565b6000660d529ae9e860003414610c37576040517f08c379a0000000000000000000000000000000000000000000000000000000008152600401610c2e9061285e565b60405180910390fd5b600660003373ffffffffffffffffffffffffffffffffffffffff1673ffffffffffffffffffffffffffffffffffffffff16815260200190815260200160002054610ca2600860009054906101000a900473ffffffffffffffffffffffffffffffffffffffff16610fcd565b1015610ce3576040517f08c379a0000000000000000000000000000000000000000000000000000000008152600401610cda906127fe565b60405180910390fd5b610cf285338660fa878761171a565b50610d21600860009054906101000a900473ffffffffffffffffffffffffffffffffffffffff163360fa610a3f565b5034600560003373ffffffffffffffffffffffffffffffffffffffff1673ffffffffffffffffffffffffffffffffffffffff1681526020019081526020016000206000828254610d7191906129d1565b9250508190555060fa600660003373ffffffffffffffffffffffffffffffffffffffff1673ffffffffffffffffffffffffffffffffffffffff1681526020019081526020016000206000828254610dc891906129d1565b9250508190555060019050949350505050565b6000661aa535d3d0c0003414610e26576040517f08c379a0000000000000000000000000000000000000000000000000000000008152600401610e1d9061281e565b60405180910390fd5b600660003373ffffffffffffffffffffffffffffffffffffffff1673ffffffffffffffffffffffffffffffffffffffff16815260200190815260200160002054610e91600860009054906101000a900473ffffffffffffffffffffffffffffffffffffffff16610fcd565b1015610ed2576040517f08c379a0000000000000000000000000000000000000000000000000000000008152600401610ec9906127fe565b60405180910390fd5b610ee28533866101f4878761171a565b50610f12600860009054906101000a900473ffffffffffffffffffffffffffffffffffffffff16336101f4610a3f565b5034600560003373ffffffffffffffffffffffffffffffffffffffff1673ffffffffffffffffffffffffffffffffffffffff1681526020019081526020016000206000828254610f6291906129d1565b925050819055506101f4600660003373ffffffffffffffffffffffffffffffffffffffff1673ffffffffffffffffffffffffffffffffffffffff1681526020019081526020016000206000828254610fba91906129d1565b9250508190555060019050949350505050565b60008060008373ffffffffffffffffffffffffffffffffffffffff1673ffffffffffffffffffffffffffffffffffffffff168152602001908152602001600020549050919050565b600047905090565b6000600860009054906101000a900473ffffffffffffffffffffffffffffffffffffffff16905090565b60606004805461105690612b4c565b80601f016020809104026020016040519081016040528092919081815260200182805461108290612b4c565b80156110cf5780601f106110a4576101008083540402835291602001916110cf565b820191906000526020600020905b8154815290600101906020018083116110b257829003601f168201915b5050505050905090565b600080600160006110e8611547565b73ffffffffffffffffffffffffffffffffffffffff1673ffffffffffffffffffffffffffffffffffffffff16815260200190815260200160002060008573ffffffffffffffffffffffffffffffffffffffff1673ffffffffffffffffffffffffffffffffffffffff168152602001908152602001600020549050828110156111a5576040517f08c379a000000000000000000000000000000000000000000000000000000000815260040161119c906128de565b60405180910390fd5b6111b96111b0611547565b8585840361154f565b600191505092915050565b60006111d86111d1611547565b848461196e565b6001905092915050565b600860009054906101000a900473ffffffffffffffffffffffffffffffffffffffff1681565b600060606000806000806000905060005b6009805490508110156112d55760098181548110611260577f4e487b7100000000000000000000000000000000000000000000000000000000600052603260045260246000fd5b9060005260206000200160405160200161127a9190612675565b60405160208183030381529060405280519060200120886040516020016112a1919061265e565b6040516020818303038152906040528051906020012014156112c257600191505b80806112cd90612b7e565b915050611219565b5080611316576040517f08c379a000000000000000000000000000000000000000000000000000000000815260040161130d9061277e565b60405180910390fd5b600787604051611326919061265e565b908152602001604051809103902060000160009054906101000a900473ffffffffffffffffffffffffffffffffffffffff16600788604051611368919061265e565b9081526020016040518091039020600101600789604051611389919061265e565b90815260200160405180910390206002015460078a6040516113ab919061265e565b90815260200160405180910390206003015460078b6040516113cd919061265e565b9081526020016040518091039020600401548380546113eb90612b4c565b80601f016020809104026020016040519081016040528092919081815260200182805461141790612b4c565b80156114645780601f1061143957610100808354040283529160200191611464565b820191906000526020600020905b81548152906001019060200180831161144757829003601f168201915b50505050509350955095509550955095505091939590929450565b6000600160008473ffffffffffffffffffffffffffffffffffffffff1673ffffffffffffffffffffffffffffffffffffffff16815260200190815260200160002060008373ffffffffffffffffffffffffffffffffffffffff1673ffffffffffffffffffffffffffffffffffffffff16815260200190815260200160002054905092915050565b600061151283836108d1565b5061153f600860009054906101000a900473ffffffffffffffffffffffffffffffffffffffff168461147f565b905092915050565b600033905090565b600073ffffffffffffffffffffffffffffffffffffffff168373ffffffffffffffffffffffffffffffffffffffff1614156115bf576040517f08c379a00000000000000000000000000000000000000000000000000000000081526004016115b6906128be565b60405180910390fd5b600073ffffffffffffffffffffffffffffffffffffffff168273ffffffffffffffffffffffffffffffffffffffff16141561162f576040517f08c379a00000000000000000000000000000000000000000000000000000000081526004016116269061279e565b60405180910390fd5b80600160008573ffffffffffffffffffffffffffffffffffffffff1673ffffffffffffffffffffffffffffffffffffffff16815260200190815260200160002060008473ffffffffffffffffffffffffffffffffffffffff1673ffffffffffffffffffffffffffffffffffffffff168152602001908152602001600020819055508173ffffffffffffffffffffffffffffffffffffffff168373ffffffffffffffffffffffffffffffffffffffff167f8c5be1e5ebec7d5bd14f71427d1e84f3dd0314c0f7b2291e5b200ac8c7c3b9258360405161170d91906128fe565b60405180910390a3505050565b600080600090505b6009805490508110156118145760098181548110611769577f4e487b7100000000000000000000000000000000000000000000000000000000600052603260045260246000fd5b906000526020600020016040516020016117839190612675565b60405160208183030381529060405280519060200120886040516020016117aa919061265e565b604051602081830303815290604052805190602001201415611801576040517f08c379a00000000000000000000000000000000000000000000000000000000081526004016117f8906127de565b60405180910390fd5b808061180c90612b7e565b915050611722565b5060006040518060c001604052808873ffffffffffffffffffffffffffffffffffffffff16815260200187815260200186815260200185815260200184815260200160001515815250905060098890806001815401808255809150506001900390600052602060002001600090919091909150908051906020019061189a929190611bf9565b50806007896040516118ac919061265e565b908152602001604051809103902060008201518160000160006101000a81548173ffffffffffffffffffffffffffffffffffffffff021916908373ffffffffffffffffffffffffffffffffffffffff160217905550602082015181600101908051906020019061191d929190611bf9565b5060408201518160020155606082015181600301556080820151816004015560a08201518160050160006101000a81548160ff02191690831515021790555090505060019150509695505050505050565b600073ffffffffffffffffffffffffffffffffffffffff168373ffffffffffffffffffffffffffffffffffffffff1614156119de576040517f08c379a00000000000000000000000000000000000000000000000000000000081526004016119d59061289e565b60405180910390fd5b600073ffffffffffffffffffffffffffffffffffffffff168273ffffffffffffffffffffffffffffffffffffffff161415611a4e576040517f08c379a0000000000000000000000000000000000000000000000000000000008152600401611a459061275e565b60405180910390fd5b611a59838383611bef565b60008060008573ffffffffffffffffffffffffffffffffffffffff1673ffffffffffffffffffffffffffffffffffffffff16815260200190815260200160002054905081811015611adf576040517f08c379a0000000000000000000000000000000000000000000000000000000008152600401611ad6906127be565b60405180910390fd5b8181036000808673ffffffffffffffffffffffffffffffffffffffff1673ffffffffffffffffffffffffffffffffffffffff16815260200190815260200160002081905550816000808573ffffffffffffffffffffffffffffffffffffffff1673ffffffffffffffffffffffffffffffffffffffff1681526020019081526020016000206000828254611b7291906129d1565b925050819055508273ffffffffffffffffffffffffffffffffffffffff168473ffffffffffffffffffffffffffffffffffffffff167fddf252ad1be2c89b69c2b068fc378daa952ba7f163c4a11628f55a4df523b3ef84604051611bd691906128fe565b60405180910390a3611be9848484611bf4565b50505050565b505050565b505050565b828054611c0590612b4c565b90600052602060002090601f016020900481019282611c275760008555611c6e565b82601f10611c4057805160ff1916838001178555611c6e565b82800160010185558215611c6e579182015b82811115611c6d578251825591602001919060010190611c52565b5b509050611c7b9190611c7f565b5090565b5b80821115611c98576000816000905550600101611c80565b5090565b6000611caf611caa84612965565b612934565b905082815260208101848484011115611cc757600080fd5b611cd2848285612b0a565b509392505050565b600081359050611ce981612c65565b92915050565b600082601f830112611d0057600080fd5b8135611d10848260208601611c9c565b91505092915050565b600081359050611d2881612c7c565b92915050565b600060208284031215611d4057600080fd5b6000611d4e84828501611cda565b91505092915050565b60008060408385031215611d6a57600080fd5b6000611d7885828601611cda565b9250506020611d8985828601611cda565b9150509250929050565b600080600060608486031215611da857600080fd5b6000611db686828701611cda565b9350506020611dc786828701611cda565b9250506040611dd886828701611d19565b9150509250925092565b60008060408385031215611df557600080fd5b6000611e0385828601611cda565b9250506020611e1485828601611d19565b9150509250929050565b600060208284031215611e3057600080fd5b600082013567ffffffffffffffff811115611e4a57600080fd5b611e5684828501611cef565b91505092915050565b60008060008060808587031215611e7557600080fd5b600085013567ffffffffffffffff811115611e8f57600080fd5b611e9b87828801611cef565b945050602085013567ffffffffffffffff811115611eb857600080fd5b611ec487828801611cef565b9350506040611ed587828801611d19565b9250506060611ee687828801611d19565b91505092959194509250565b600080600060608486031215611f0757600080fd5b6000611f1586828701611d19565b935050602084013567ffffffffffffffff811115611f3257600080fd5b611f3e86828701611cef565b9250506040611f4f86828701611d19565b9150509250925092565b611f6281612ab5565b82525050565b611f7181612ac7565b82525050565b6000611f82826129aa565b611f8c81856129b5565b9350611f9c818560208601612b19565b611fa581612c54565b840191505092915050565b6000611fbb826129aa565b611fc581856129c6565b9350611fd5818560208601612b19565b80840191505092915050565b60008154611fee81612b4c565b611ff881866129c6565b94506001821660008114612013576001811461202457612057565b60ff19831686528186019350612057565b61202d85612995565b60005b8381101561204f57815481890152600182019150602081019050612030565b838801955050505b50505092915050565b600061206d6045836129b5565b91507f313530303030303030303030303030303020776569206172652072657175697260008301527f656420746f206973737565203130303020746f6b656e732028302e303135206560208301527f74686572290000000000000000000000000000000000000000000000000000006040830152606082019050919050565b60006120f96023836129b5565b91507f45524332303a207472616e7366657220746f20746865207a65726f206164647260008301527f65737300000000000000000000000000000000000000000000000000000000006020830152604082019050919050565b600061215f6025836129b5565b91507f5468657265206973206e6f2073756368205075726368617365436f646520696e60008301527f20686572650000000000000000000000000000000000000000000000000000006020830152604082019050919050565b60006121c56022836129b5565b91507f45524332303a20617070726f766520746f20746865207a65726f20616464726560008301527f73730000000000000000000000000000000000000000000000000000000000006020830152604082019050919050565b600061222b6026836129b5565b91507f45524332303a207472616e7366657220616d6f756e742065786365656473206260008301527f616c616e636500000000000000000000000000000000000000000000000000006020830152604082019050919050565b6000612291602f836129b5565b91507f54686973205075726368617365436f646520697320616c72656164792070726560008301527f73656e742c2074727920616761696e00000000000000000000000000000000006020830152604082019050919050565b60006122f7602d836129b5565b91507f546f6b656e73206e6f7420617661696c61626c6520617420746865206d6f6d6560008301527f6e742c20747279206c61746572000000000000000000000000000000000000006020830152604082019050919050565b600061235d6044836129b5565b91507f373530303030303030303030303030302077656920617265207265717569726560008301527f6420746f2069737375652035303020746f6b656e732028302e3030373520657460208301527f68657229000000000000000000000000000000000000000000000000000000006040830152606082019050919050565b60006123e96028836129b5565b91507f45524332303a207472616e7366657220616d6f756e742065786365656473206160008301527f6c6c6f77616e63650000000000000000000000000000000000000000000000006020830152604082019050919050565b600061244f6045836129b5565b91507f333735303030303030303030303030302077656920617265207265717569726560008301527f6420746f2069737375652032353020746f6b656e732028302e3030333735206560208301527f74686572290000000000000000000000000000000000000000000000000000006040830152606082019050919050565b60006124db601e836129b5565b91507f546869732073746f636b206973206e6f742079657420657870697265642100006000830152602082019050919050565b600061251b6025836129b5565b91507f45524332303a207472616e736665722066726f6d20746865207a65726f20616460008301527f64726573730000000000000000000000000000000000000000000000000000006020830152604082019050919050565b60006125816024836129b5565b91507f45524332303a20617070726f76652066726f6d20746865207a65726f2061646460008301527f72657373000000000000000000000000000000000000000000000000000000006020830152604082019050919050565b60006125e76025836129b5565b91507f45524332303a2064656372656173656420616c6c6f77616e63652062656c6f7760008301527f207a65726f0000000000000000000000000000000000000000000000000000006020830152604082019050919050565b61264981612af3565b82525050565b61265881612afd565b82525050565b600061266a8284611fb0565b915081905092915050565b60006126818284611fe1565b915081905092915050565b60006020820190506126a16000830184611f59565b92915050565b600060a0820190506126bc6000830188611f59565b81810360208301526126ce8187611f77565b90506126dd6040830186612640565b6126ea6060830185612640565b6126f76080830184612640565b9695505050505050565b60006020820190506127166000830184611f68565b92915050565b600060208201905081810360008301526127368184611f77565b905092915050565b6000602082019050818103600083015261275781612060565b9050919050565b60006020820190508181036000830152612777816120ec565b9050919050565b6000602082019050818103600083015261279781612152565b9050919050565b600060208201905081810360008301526127b7816121b8565b9050919050565b600060208201905081810360008301526127d78161221e565b9050919050565b600060208201905081810360008301526127f781612284565b9050919050565b60006020820190508181036000830152612817816122ea565b9050919050565b6000602082019050818103600083015261283781612350565b9050919050565b60006020820190508181036000830152612857816123dc565b9050919050565b6000602082019050818103600083015261287781612442565b9050919050565b60006020820190508181036000830152612897816124ce565b9050919050565b600060208201905081810360008301526128b78161250e565b9050919050565b600060208201905081810360008301526128d781612574565b9050919050565b600060208201905081810360008301526128f7816125da565b9050919050565b60006020820190506129136000830184612640565b92915050565b600060208201905061292e600083018461264f565b92915050565b6000604051905081810181811067ffffffffffffffff8211171561295b5761295a612c25565b5b8060405250919050565b600067ffffffffffffffff8211156129805761297f612c25565b5b601f19601f8301169050602081019050919050565b60008190508160005260206000209050919050565b600081519050919050565b600082825260208201905092915050565b600081905092915050565b60006129dc82612af3565b91506129e783612af3565b9250827fffffffffffffffffffffffffffffffffffffffffffffffffffffffffffffffff03821115612a1c57612a1b612bc7565b5b828201905092915050565b6000612a3282612af3565b9150612a3d83612af3565b9250817fffffffffffffffffffffffffffffffffffffffffffffffffffffffffffffffff0483118215151615612a7657612a75612bc7565b5b828202905092915050565b6000612a8c82612af3565b9150612a9783612af3565b925082821015612aaa57612aa9612bc7565b5b828203905092915050565b6000612ac082612ad3565b9050919050565b60008115159050919050565b600073ffffffffffffffffffffffffffffffffffffffff82169050919050565b6000819050919050565b600060ff82169050919050565b82818337600083830152505050565b60005b83811015612b37578082015181840152602081019050612b1c565b83811115612b46576000848401525b50505050565b60006002820490506001821680612b6457607f821691505b60208210811415612b7857612b77612bf6565b5b50919050565b6000612b8982612af3565b91507fffffffffffffffffffffffffffffffffffffffffffffffffffffffffffffffff821415612bbc57612bbb612bc7565b5b600182019050919050565b7f4e487b7100000000000000000000000000000000000000000000000000000000600052601160045260246000fd5b7f4e487b7100000000000000000000000000000000000000000000000000000000600052602260045260246000fd5b7f4e487b7100000000000000000000000000000000000000000000000000000000600052604160045260246000fd5b6000601f19601f8301169050919050565b612c6e81612ab5565b8114612c7957600080fd5b50565b612c8581612af3565b8114612c9057600080fd5b5056fea2646970667358221220c33d3571537333f4a8709c097ed9d61f794d27063730afb40affedaf401b891064736f6c63430008000033",
  "immutableReferences": {},
  "source": "pragma solidity ^0.8.0;\r\n\r\nimport \"@openzeppelin/contracts/token/ERC20/ERC20.sol\";\r\nimport \"@openzeppelin/contracts/utils/Strings.sol\";\r\n\r\n\r\n\r\ncontract SafeToken is ERC20{\r\n\r\n    mapping(address => uint256) depositedEther;\r\n    mapping(address => uint256) tokensDeserved;\r\n    mapping(string => PurchaseInfo) Payments;\r\n\r\n    address public _owner;\r\n    string[] PurchaseID;\r\n\r\n    struct PurchaseInfo{\r\n\r\n        address BuyerAddress;\r\n        string stockId;\r\n        uint256 stockSize;\r\n        uint256 StartDate;\r\n        uint256 EndDate;\r\n        bool Expired;\r\n\r\n    }\r\n\r\n    constructor(uint256 initialSupply) ERC20(\"SafeToken\", \"ST\"){\r\n        _mint(msg.sender, initialSupply * (10 ** decimals()));\r\n        _owner = msg.sender;\r\n  \r\n    }\r\n\r\n    function getOwner() public view returns (address){\r\n\r\n        return _owner;\r\n    }  \r\n\r\n    function approveTransfer(address sender, uint256 supply) public returns (uint256){\r\n        \r\n        approve(sender , supply );\r\n        \r\n        \r\n        return allowance(_owner , sender);\r\n        \r\n    }\r\n\r\n    function issue250Tokens(string memory PurchaseCode, string memory stockID, uint256 PaymentDate, uint256 TokensExpiration) public payable returns (bool){      // 1.000 tokens per ETH deposited\r\n        // deposit ether in the contract\r\n        require(msg.value == 3750000000000000 wei , '3750000000000000 wei are required to issue 250 tokens (0.00375 ether)');\r\n        \r\n\r\n        // transfer the equivalent amount to buyer adding infos to contract\r\n        \r\n        require( balanceOf(_owner) >= tokensDeserved[msg.sender] , 'Tokens not available at the moment, try later');\r\n    \r\n\r\n        addPayment(PurchaseCode, msg.sender, stockID,  250 , PaymentDate, TokensExpiration);\r\n        //addInfos(PurchaseCode, h_0 , H_N);\r\n        \r\n        transferFrom(_owner, msg.sender ,  250 );\r\n\r\n        depositedEther[msg.sender] += msg.value;\r\n        tokensDeserved[msg.sender] += 250;\r\n        \r\n        \r\n        return true;\r\n\r\n    }\r\n    \r\n    function issue500Tokens(string memory PurchaseCode, string memory stockID, uint256 PaymentDate, uint256 TokensExpiration) public payable returns (bool){      // 1.000 tokens per ETH deposited\r\n        // deposit ether in the contract\r\n        require(msg.value == 7500000000000000 wei , '7500000000000000 wei are required to issue 500 tokens (0.0075 ether)');\r\n        \r\n\r\n        // transfer the equivalent amount to buyer adding infos to contract\r\n        \r\n        require( balanceOf(_owner) >= tokensDeserved[msg.sender] , 'Tokens not available at the moment, try later');\r\n    \r\n\r\n        addPayment(PurchaseCode, msg.sender, stockID,  500 , PaymentDate, TokensExpiration);\r\n        //addInfos(PurchaseCode, h_0 , H_N);\r\n        \r\n        transferFrom(_owner, msg.sender ,  500 );\r\n\r\n        depositedEther[msg.sender] += msg.value;\r\n        tokensDeserved[msg.sender] += 500;\r\n        \r\n        \r\n        return true;\r\n\r\n    }\r\n\r\n    function issue1000Tokens(string memory PurchaseCode, string memory stockID, uint256 PaymentDate, uint256 TokensExpiration) public payable returns (bool){ \r\n        \r\n        \r\n        require(msg.value == 15000000000000000 wei , '15000000000000000 wei are required to issue 1000 tokens (0.015 ether)');\r\n\r\n        // transfer the equivalent amount to buyer adding stock infos to contract\r\n        \r\n    \r\n        addPayment(PurchaseCode, msg.sender, stockID,  1000 , PaymentDate, TokensExpiration);\r\n        \r\n\r\n        transferFrom(_owner, msg.sender ,  1000 );\r\n\r\n        // deposit ether into the contract\r\n        depositedEther[msg.sender] += msg.value;\r\n        tokensDeserved[msg.sender] += 1000;\r\n\r\n        \r\n        \r\n        return true;\r\n\r\n    }\r\n\r\n    \r\n\r\n    \r\n    \r\n    function withdraw(uint256 tokensUsed, string memory purchaseCode , uint256 nowDate) public {\r\n        \r\n        uint256 stockSize = Payments[purchaseCode].stockSize;\r\n\r\n        require(Payments[purchaseCode].EndDate < nowDate , 'This stock is not yet expired!');\r\n\r\n        // transfer all tokens of the stock to the owner\r\n        transfer( _owner, stockSize );\r\n        \r\n\r\n        // Update expiration for the stock\r\n\r\n        Payments[purchaseCode].Expired = true;\r\n        \r\n        // check ether's amount reserved for owner and buyer and transfer the equivalent amount\r\n        uint256 weiToBuyer = (stockSize - tokensUsed) * 15000000000000;\r\n        uint256 weiToOwner = (tokensUsed * 15000000000000);\r\n        payable(msg.sender).transfer(weiToBuyer);\r\n        payable(_owner).transfer(weiToOwner);\r\n\r\n        // update amount of tokens still active and deposited ether\r\n        depositedEther[msg.sender] = depositedEther[msg.sender] - (stockSize * 15000000000000);\r\n        tokensDeserved[msg.sender] = tokensDeserved[msg.sender] - stockSize;\r\n\r\n        \r\n    }\r\n    \r\n    function checkAssets() public view returns(uint256){\r\n        return address(this).balance;\r\n        \r\n    }\r\n\r\n    function addPayment(string memory PurchaseCode , address buyerAddress, string memory stockID, uint256 stockSize , uint256 PaymentDate, uint256 TokenExpiration ) internal returns (bool){\r\n        //bytes32 PurchaseHash = sha256(abi.encodePacked(PurchaseCode));\r\n\r\n        //Checks if there is already this PurchaseCode in the array\r\n\r\n        for (uint256 i = 0; i < PurchaseID.length; i++) {\r\n            if(keccak256(abi.encodePacked((PurchaseCode))) == keccak256(abi.encodePacked((PurchaseID[i]))))\r\n                revert('This PurchaseCode is already present, try again');\r\n        }\r\n\r\n        //==========================================================================//\r\n\r\n        // Adds new PurchaseInfo, adds the purchaseID to PurchaseList and maps this value with the new Purchase //\r\n\r\n        PurchaseInfo memory newPurchase = PurchaseInfo(buyerAddress, stockID , stockSize, PaymentDate, TokenExpiration, false);\r\n        PurchaseID.push(PurchaseCode);\r\n        Payments[PurchaseCode] = newPurchase;\r\n\r\n        //==========================================================================//\r\n\r\n        return true;     \r\n    }\r\n\r\n    function getPayment(string memory PurchaseCode) public view returns (address, string memory, uint256 , uint256, uint256){\r\n        bool isInPayments = false;\r\n        //bytes32 PurchaseHash = sha256(abi.encodePacked(PurchaseCode));\r\n\r\n        // Checks if PurchaseCode is valid\r\n        \r\n        for (uint256 i = 0; i < PurchaseID.length; i++) {\r\n            if(keccak256(abi.encodePacked((PurchaseCode))) == keccak256(abi.encodePacked((PurchaseID[i])))){ \r\n                isInPayments = true;\r\n            }\r\n        }\r\n        if(!isInPayments)\r\n            revert('There is no such PurchaseCode in here');\r\n\r\n\r\n        //--------------------------------------------------------------------------//\r\n\r\n        \r\n\r\n        return (Payments[PurchaseCode].BuyerAddress, Payments[PurchaseCode].stockId, Payments[PurchaseCode].stockSize, Payments[PurchaseCode].StartDate , Payments[PurchaseCode].EndDate);\r\n\r\n    }\r\n\r\n    \r\n    \r\n    \r\n    \r\n    \r\n\r\n\r\n}\r\n\r\n    ",
  "sourcePath": "C:\\Users\\l\\Desktop\\Universit\\II Semestre\\Tesi\\Project\\GoodTokenProject\\contracts\\SafeToken.sol",
  "compiler": {
    "name": "solc",
    "version": "0.8.0+commit.c7dfd78e.Emscripten.clang"
  },
  "schemaVersion": "3.4.2",
  "updatedAt": "2022-05-10T17:18:33.209Z",
  "devdoc": {
    "kind": "dev",
    "methods": {
      "allowance(address,address)": {
        "details": "See {IERC20-allowance}."
      },
      "approve(address,uint256)": {
        "details": "See {IERC20-approve}. Requirements: - `spender` cannot be the zero address."
      },
      "balanceOf(address)": {
        "details": "See {IERC20-balanceOf}."
      },
      "decimals()": {
        "details": "Returns the number of decimals used to get its user representation. For example, if `decimals` equals `2`, a balance of `505` tokens should be displayed to a user as `5,05` (`505 / 10 ** 2`). Tokens usually opt for a value of 18, imitating the relationship between Ether and Wei. This is the value {ERC20} uses, unless this function is overridden; NOTE: This information is only used for _display_ purposes: it in no way affects any of the arithmetic of the contract, including {IERC20-balanceOf} and {IERC20-transfer}."
      },
      "decreaseAllowance(address,uint256)": {
        "details": "Atomically decreases the allowance granted to `spender` by the caller. This is an alternative to {approve} that can be used as a mitigation for problems described in {IERC20-approve}. Emits an {Approval} event indicating the updated allowance. Requirements: - `spender` cannot be the zero address. - `spender` must have allowance for the caller of at least `subtractedValue`."
      },
      "increaseAllowance(address,uint256)": {
        "details": "Atomically increases the allowance granted to `spender` by the caller. This is an alternative to {approve} that can be used as a mitigation for problems described in {IERC20-approve}. Emits an {Approval} event indicating the updated allowance. Requirements: - `spender` cannot be the zero address."
      },
      "name()": {
        "details": "Returns the name of the token."
      },
      "symbol()": {
        "details": "Returns the symbol of the token, usually a shorter version of the name."
      },
      "totalSupply()": {
        "details": "See {IERC20-totalSupply}."
      },
      "transfer(address,uint256)": {
        "details": "See {IERC20-transfer}. Requirements: - `recipient` cannot be the zero address. - the caller must have a balance of at least `amount`."
      },
      "transferFrom(address,address,uint256)": {
        "details": "See {IERC20-transferFrom}. Emits an {Approval} event indicating the updated allowance. This is not required by the EIP. See the note at the beginning of {ERC20}. Requirements: - `sender` and `recipient` cannot be the zero address. - `sender` must have a balance of at least `amount`. - the caller must have allowance for ``sender``'s tokens of at least `amount`."
      }
    },
    "version": 1
  },
  "userdoc": {
    "kind": "user",
    "methods": {},
    "version": 1
  }
}