{
  "contractName": "AppleContract",
  "abi": [
    {
      "inputs": [],
      "name": "eatApple",
      "outputs": [],
      "stateMutability": "nonpayable",
      "type": "function"
    },
    {
      "inputs": [],
      "name": "applesEaten",
      "outputs": [
        {
          "internalType": "uint256",
          "name": "",
          "type": "uint256"
        }
      ],
      "stateMutability": "view",
      "type": "function",
      "constant": true
    }
  ],
  "bytecode": "0x608060405234801561001057600080fd5b50610183806100206000396000f3fe608060405234801561001057600080fd5b5060043610610053576000357c0100000000000000000000000000000000000000000000000000000000900480632003250114610058578063f250bf2b14610062575b600080fd5b610060610080565b005b61006a610099565b60405161007791906100bb565b60405180910390f35b60008081548092919061009290610105565b9190505550565b60008054905090565b6000819050919050565b6100b5816100a2565b82525050565b60006020820190506100d060008301846100ac565b92915050565b7f4e487b7100000000000000000000000000000000000000000000000000000000600052601160045260246000fd5b6000610110826100a2565b91507fffffffffffffffffffffffffffffffffffffffffffffffffffffffffffffffff8203610142576101416100d6565b5b60018201905091905056fea2646970667358221220e70554b155959b1b8e260d7c0f9dd29417e642ee0bc6aef4aa75d93163378ced64736f6c63430008140033",
  "immutableReferences": {},
  "source": "// SPDX-License-Identifier: MIT\r\npragma solidity >=0.4.22 <0.9.0;\r\n\r\ncontract AppleContract {\r\n  uint private eatCount;\r\n\r\n  function eatApple() public {\r\n    eatCount++;\r\n  }\r\n\r\n  function applesEaten() public view returns (uint) {\r\n    return eatCount;\r\n  }\r\n}",
  "sourcePath": "C:\\Users\\simon\\Desktop\\Tesi\\Tesi_Magistrale\\TokenGanache\\contracts\\AppleContract.sol",
  "compiler": {
    "name": "solc",
    "version": "0.8.20+commit.a1b79de6.Emscripten.clang"
  },
  "schemaVersion": "3.4.16",
  "updatedAt": "2024-01-16T16:01:24.400Z",
  "networkType": "ethereum",
  "devdoc": {
    "kind": "dev",
    "methods": {},
    "version": 1
  },
  "userdoc": {
    "kind": "user",
    "methods": {},
    "version": 1
  }
}