{
  "contractName": "HospitalToken",
  "abi": [
    {
      "inputs": [],
      "stateMutability": "nonpayable",
      "type": "constructor"
    },
    {
      "inputs": [
        {
          "internalType": "address",
          "name": "sender",
          "type": "address"
        },
        {
          "internalType": "uint256",
          "name": "balance",
          "type": "uint256"
        },
        {
          "internalType": "uint256",
          "name": "needed",
          "type": "uint256"
        },
        {
          "internalType": "uint256",
          "name": "tokenId",
          "type": "uint256"
        }
      ],
      "name": "ERC1155InsufficientBalance",
      "type": "error"
    },
    {
      "inputs": [
        {
          "internalType": "address",
          "name": "approver",
          "type": "address"
        }
      ],
      "name": "ERC1155InvalidApprover",
      "type": "error"
    },
    {
      "inputs": [
        {
          "internalType": "uint256",
          "name": "idsLength",
          "type": "uint256"
        },
        {
          "internalType": "uint256",
          "name": "valuesLength",
          "type": "uint256"
        }
      ],
      "name": "ERC1155InvalidArrayLength",
      "type": "error"
    },
    {
      "inputs": [
        {
          "internalType": "address",
          "name": "operator",
          "type": "address"
        }
      ],
      "name": "ERC1155InvalidOperator",
      "type": "error"
    },
    {
      "inputs": [
        {
          "internalType": "address",
          "name": "receiver",
          "type": "address"
        }
      ],
      "name": "ERC1155InvalidReceiver",
      "type": "error"
    },
    {
      "inputs": [
        {
          "internalType": "address",
          "name": "sender",
          "type": "address"
        }
      ],
      "name": "ERC1155InvalidSender",
      "type": "error"
    },
    {
      "inputs": [
        {
          "internalType": "address",
          "name": "operator",
          "type": "address"
        },
        {
          "internalType": "address",
          "name": "owner",
          "type": "address"
        }
      ],
      "name": "ERC1155MissingApprovalForAll",
      "type": "error"
    },
    {
      "inputs": [
        {
          "internalType": "address",
          "name": "owner",
          "type": "address"
        }
      ],
      "name": "OwnableInvalidOwner",
      "type": "error"
    },
    {
      "inputs": [
        {
          "internalType": "address",
          "name": "account",
          "type": "address"
        }
      ],
      "name": "OwnableUnauthorizedAccount",
      "type": "error"
    },
    {
      "anonymous": false,
      "inputs": [
        {
          "indexed": true,
          "internalType": "address",
          "name": "account",
          "type": "address"
        },
        {
          "indexed": true,
          "internalType": "address",
          "name": "operator",
          "type": "address"
        },
        {
          "indexed": false,
          "internalType": "bool",
          "name": "approved",
          "type": "bool"
        }
      ],
      "name": "ApprovalForAll",
      "type": "event"
    },
    {
      "anonymous": false,
      "inputs": [
        {
          "indexed": true,
          "internalType": "address",
          "name": "previousOwner",
          "type": "address"
        },
        {
          "indexed": true,
          "internalType": "address",
          "name": "newOwner",
          "type": "address"
        }
      ],
      "name": "OwnershipTransferred",
      "type": "event"
    },
    {
      "anonymous": false,
      "inputs": [
        {
          "indexed": true,
          "internalType": "address",
          "name": "operator",
          "type": "address"
        },
        {
          "indexed": true,
          "internalType": "address",
          "name": "from",
          "type": "address"
        },
        {
          "indexed": true,
          "internalType": "address",
          "name": "to",
          "type": "address"
        },
        {
          "indexed": false,
          "internalType": "uint256[]",
          "name": "ids",
          "type": "uint256[]"
        },
        {
          "indexed": false,
          "internalType": "uint256[]",
          "name": "values",
          "type": "uint256[]"
        }
      ],
      "name": "TransferBatch",
      "type": "event"
    },
    {
      "anonymous": false,
      "inputs": [
        {
          "indexed": true,
          "internalType": "address",
          "name": "operator",
          "type": "address"
        },
        {
          "indexed": true,
          "internalType": "address",
          "name": "from",
          "type": "address"
        },
        {
          "indexed": true,
          "internalType": "address",
          "name": "to",
          "type": "address"
        },
        {
          "indexed": false,
          "internalType": "uint256",
          "name": "id",
          "type": "uint256"
        },
        {
          "indexed": false,
          "internalType": "uint256",
          "name": "value",
          "type": "uint256"
        }
      ],
      "name": "TransferSingle",
      "type": "event"
    },
    {
      "anonymous": false,
      "inputs": [
        {
          "indexed": false,
          "internalType": "string",
          "name": "value",
          "type": "string"
        },
        {
          "indexed": true,
          "internalType": "uint256",
          "name": "id",
          "type": "uint256"
        }
      ],
      "name": "URI",
      "type": "event"
    },
    {
      "inputs": [
        {
          "internalType": "address",
          "name": "account",
          "type": "address"
        },
        {
          "internalType": "uint256",
          "name": "id",
          "type": "uint256"
        }
      ],
      "name": "balanceOf",
      "outputs": [
        {
          "internalType": "uint256",
          "name": "",
          "type": "uint256"
        }
      ],
      "stateMutability": "view",
      "type": "function",
      "constant": true
    },
    {
      "inputs": [
        {
          "internalType": "address[]",
          "name": "accounts",
          "type": "address[]"
        },
        {
          "internalType": "uint256[]",
          "name": "ids",
          "type": "uint256[]"
        }
      ],
      "name": "balanceOfBatch",
      "outputs": [
        {
          "internalType": "uint256[]",
          "name": "",
          "type": "uint256[]"
        }
      ],
      "stateMutability": "view",
      "type": "function",
      "constant": true
    },
    {
      "inputs": [
        {
          "internalType": "address",
          "name": "account",
          "type": "address"
        },
        {
          "internalType": "address",
          "name": "operator",
          "type": "address"
        }
      ],
      "name": "isApprovedForAll",
      "outputs": [
        {
          "internalType": "bool",
          "name": "",
          "type": "bool"
        }
      ],
      "stateMutability": "view",
      "type": "function",
      "constant": true
    },
    {
      "inputs": [],
      "name": "owner",
      "outputs": [
        {
          "internalType": "address",
          "name": "",
          "type": "address"
        }
      ],
      "stateMutability": "view",
      "type": "function",
      "constant": true
    },
    {
      "inputs": [],
      "name": "renounceOwnership",
      "outputs": [],
      "stateMutability": "nonpayable",
      "type": "function"
    },
    {
      "inputs": [
        {
          "internalType": "address",
          "name": "from",
          "type": "address"
        },
        {
          "internalType": "address",
          "name": "to",
          "type": "address"
        },
        {
          "internalType": "uint256[]",
          "name": "ids",
          "type": "uint256[]"
        },
        {
          "internalType": "uint256[]",
          "name": "values",
          "type": "uint256[]"
        },
        {
          "internalType": "bytes",
          "name": "data",
          "type": "bytes"
        }
      ],
      "name": "safeBatchTransferFrom",
      "outputs": [],
      "stateMutability": "nonpayable",
      "type": "function"
    },
    {
      "inputs": [
        {
          "internalType": "address",
          "name": "from",
          "type": "address"
        },
        {
          "internalType": "address",
          "name": "to",
          "type": "address"
        },
        {
          "internalType": "uint256",
          "name": "id",
          "type": "uint256"
        },
        {
          "internalType": "uint256",
          "name": "value",
          "type": "uint256"
        },
        {
          "internalType": "bytes",
          "name": "data",
          "type": "bytes"
        }
      ],
      "name": "safeTransferFrom",
      "outputs": [],
      "stateMutability": "nonpayable",
      "type": "function"
    },
    {
      "inputs": [
        {
          "internalType": "address",
          "name": "operator",
          "type": "address"
        },
        {
          "internalType": "bool",
          "name": "approved",
          "type": "bool"
        }
      ],
      "name": "setApprovalForAll",
      "outputs": [],
      "stateMutability": "nonpayable",
      "type": "function"
    },
    {
      "inputs": [
        {
          "internalType": "bytes4",
          "name": "interfaceId",
          "type": "bytes4"
        }
      ],
      "name": "supportsInterface",
      "outputs": [
        {
          "internalType": "bool",
          "name": "",
          "type": "bool"
        }
      ],
      "stateMutability": "view",
      "type": "function",
      "constant": true
    },
    {
      "inputs": [
        {
          "internalType": "uint256",
          "name": "",
          "type": "uint256"
        },
        {
          "internalType": "uint256",
          "name": "",
          "type": "uint256"
        },
        {
          "internalType": "uint256",
          "name": "",
          "type": "uint256"
        }
      ],
      "name": "tokenHospitalAccessRights",
      "outputs": [
        {
          "internalType": "uint256",
          "name": "hospitalId",
          "type": "uint256"
        },
        {
          "internalType": "bytes",
          "name": "accessRights",
          "type": "bytes"
        }
      ],
      "stateMutability": "view",
      "type": "function",
      "constant": true
    },
    {
      "inputs": [
        {
          "internalType": "uint256",
          "name": "",
          "type": "uint256"
        },
        {
          "internalType": "uint256",
          "name": "",
          "type": "uint256"
        }
      ],
      "name": "tokenPersonalData",
      "outputs": [
        {
          "internalType": "string",
          "name": "name",
          "type": "string"
        },
        {
          "internalType": "string",
          "name": "surname",
          "type": "string"
        },
        {
          "internalType": "string",
          "name": "taxCode",
          "type": "string"
        }
      ],
      "stateMutability": "view",
      "type": "function",
      "constant": true
    },
    {
      "inputs": [
        {
          "internalType": "address",
          "name": "newOwner",
          "type": "address"
        }
      ],
      "name": "transferOwnership",
      "outputs": [],
      "stateMutability": "nonpayable",
      "type": "function"
    },
    {
      "inputs": [
        {
          "internalType": "uint256",
          "name": "",
          "type": "uint256"
        }
      ],
      "name": "uri",
      "outputs": [
        {
          "internalType": "string",
          "name": "",
          "type": "string"
        }
      ],
      "stateMutability": "view",
      "type": "function",
      "constant": true
    },
    {
      "inputs": [
        {
          "internalType": "address",
          "name": "account",
          "type": "address"
        },
        {
          "internalType": "string",
          "name": "name",
          "type": "string"
        },
        {
          "internalType": "string",
          "name": "surname",
          "type": "string"
        },
        {
          "internalType": "string",
          "name": "taxCode",
          "type": "string"
        }
      ],
      "name": "mintDoctor",
      "outputs": [],
      "stateMutability": "nonpayable",
      "type": "function"
    },
    {
      "inputs": [
        {
          "internalType": "address",
          "name": "account",
          "type": "address"
        },
        {
          "internalType": "string",
          "name": "name",
          "type": "string"
        },
        {
          "internalType": "string",
          "name": "surname",
          "type": "string"
        },
        {
          "internalType": "string",
          "name": "taxCode",
          "type": "string"
        }
      ],
      "name": "mintPatient",
      "outputs": [],
      "stateMutability": "nonpayable",
      "type": "function"
    },
    {
      "inputs": [
        {
          "internalType": "address",
          "name": "account",
          "type": "address"
        },
        {
          "internalType": "string",
          "name": "name",
          "type": "string"
        },
        {
          "internalType": "string",
          "name": "surname",
          "type": "string"
        },
        {
          "internalType": "string",
          "name": "taxCode",
          "type": "string"
        }
      ],
      "name": "mintAssistant",
      "outputs": [],
      "stateMutability": "nonpayable",
      "type": "function"
    },
    {
      "inputs": [
        {
          "internalType": "uint256",
          "name": "tokenType",
          "type": "uint256"
        },
        {
          "internalType": "address",
          "name": "accountowner",
          "type": "address"
        }
      ],
      "name": "getLastMintedUser",
      "outputs": [
        {
          "internalType": "address",
          "name": "account",
          "type": "address"
        },
        {
          "internalType": "uint256",
          "name": "tokenId",
          "type": "uint256"
        },
        {
          "internalType": "string",
          "name": "name",
          "type": "string"
        },
        {
          "internalType": "string",
          "name": "surname",
          "type": "string"
        },
        {
          "internalType": "string",
          "name": "taxCode",
          "type": "string"
        }
      ],
      "stateMutability": "view",
      "type": "function",
      "constant": true
    },
    {
      "inputs": [
        {
          "internalType": "uint256",
          "name": "tokenType",
          "type": "uint256"
        },
        {
          "internalType": "uint256",
          "name": "tokenID",
          "type": "uint256"
        },
        {
          "internalType": "uint256",
          "name": "hospitalId",
          "type": "uint256"
        },
        {
          "internalType": "bytes",
          "name": "accessRights",
          "type": "bytes"
        }
      ],
      "name": "setHospitalAccess",
      "outputs": [],
      "stateMutability": "nonpayable",
      "type": "function"
    },
    {
      "inputs": [
        {
          "internalType": "uint256",
          "name": "tokenType",
          "type": "uint256"
        },
        {
          "internalType": "uint256",
          "name": "tokenID",
          "type": "uint256"
        },
        {
          "internalType": "uint256",
          "name": "hospitalId",
          "type": "uint256"
        },
        {
          "internalType": "uint8",
          "name": "permission",
          "type": "uint8"
        }
      ],
      "name": "checkPermission",
      "outputs": [
        {
          "internalType": "bool",
          "name": "",
          "type": "bool"
        }
      ],
      "stateMutability": "view",
      "type": "function",
      "constant": true
    },
    {
      "inputs": [
        {
          "internalType": "uint256",
          "name": "tokenType",
          "type": "uint256"
        },
        {
          "internalType": "uint256",
          "name": "tokenID",
          "type": "uint256"
        },
        {
          "internalType": "uint256",
          "name": "hospitalId",
          "type": "uint256"
        }
      ],
      "name": "getHospitalPermissions",
      "outputs": [
        {
          "internalType": "bytes",
          "name": "",
          "type": "bytes"
        }
      ],
      "stateMutability": "view",
      "type": "function",
      "constant": true
    },
    {
      "inputs": [
        {
          "internalType": "uint256",
          "name": "tokenType",
          "type": "uint256"
        },
        {
          "internalType": "uint256",
          "name": "tokenID",
          "type": "uint256"
        }
      ],
      "name": "getAddressForToken",
      "outputs": [
        {
          "internalType": "address",
          "name": "",
          "type": "address"
        }
      ],
      "stateMutability": "view",
      "type": "function",
      "constant": true
    }
  ],
  "bytecode": "0x6080604052600060085560006009556000600a553480156200002057600080fd5b507312b405f1a1a4a11479e670e0af39312e771ff38f6040518060800160405280605a815260200162004986605a91396200006a8162000101640100000000026401000000009004565b50600073ffffffffffffffffffffffffffffffffffffffff168173ffffffffffffffffffffffffffffffffffffffff1603620000e05760006040517f1e4fbdf7000000000000000000000000000000000000000000000000000000008152600401620000d7919062000221565b60405180910390fd5b620000fa8162000116640100000000026401000000009004565b50620005a5565b8060029081620001129190620004be565b5050565b6000600360009054906101000a900473ffffffffffffffffffffffffffffffffffffffff16905081600360006101000a81548173ffffffffffffffffffffffffffffffffffffffff021916908373ffffffffffffffffffffffffffffffffffffffff1602179055508173ffffffffffffffffffffffffffffffffffffffff168173ffffffffffffffffffffffffffffffffffffffff167f8be0079c531659141344cd1fd0a4f28419497f9722a3daafe3b4186f6b6457e060405160405180910390a35050565b600073ffffffffffffffffffffffffffffffffffffffff82169050919050565b60006200020982620001dc565b9050919050565b6200021b81620001fc565b82525050565b600060208201905062000238600083018462000210565b92915050565b600081519050919050565b7f4e487b7100000000000000000000000000000000000000000000000000000000600052604160045260246000fd5b7f4e487b7100000000000000000000000000000000000000000000000000000000600052602260045260246000fd5b60006002820490506001821680620002c057607f821691505b602082108103620002d657620002d562000278565b5b50919050565b60008190508160005260206000209050919050565b60006020601f8301049050919050565b60008160020a8302905092915050565b600060088302620003437fffffffffffffffffffffffffffffffffffffffffffffffffffffffffffffffff8262000301565b6200034f868362000301565b95508019841693508086168417925050509392505050565b6000819050919050565b6000819050919050565b60006200039c62000396620003908462000367565b62000371565b62000367565b9050919050565b6000819050919050565b620003b8836200037b565b620003d0620003c782620003a3565b84845462000311565b825550505050565b600090565b620003e7620003d8565b620003f4818484620003ad565b505050565b5b818110156200041c5762000410600082620003dd565b600181019050620003fa565b5050565b601f8211156200046b576200043581620002dc565b6200044084620002f1565b8101602085101562000450578190505b620004686200045f85620002f1565b830182620003f9565b50505b505050565b60008160020a8304905092915050565b6000620004936000198460080262000470565b1980831691505092915050565b6000620004ae838362000480565b9150826002028217905092915050565b620004c9826200023e565b67ffffffffffffffff811115620004e557620004e462000249565b5b620004f18254620002a7565b620004fe82828562000420565b600060209050601f83116001811462000536576000841562000521578287015190505b6200052d8582620004a0565b8655506200059d565b601f1984166200054686620002dc565b60005b82811015620005705784890151825560018201915060208501945060208101905062000549565b868310156200059057848901516200058c601f89168262000480565b8355505b6001600288020188555050505b505050505050565b6143d180620005b56000396000f3fe608060405234801561001057600080fd5b5060043610610153576000357c0100000000000000000000000000000000000000000000000000000000900480639e63961e116100d5578063ddd0624311610099578063ddd06243146103a5578063e985e9c5146103c1578063f1173472146103f1578063f242432a1461040d578063f2fde38b14610429578063fa6dc8a01461044557610153565b80639e63961e146102dc578063a22cb465146102f8578063b11211a014610314578063b8848dc114610345578063bb9df7521461037557610153565b80633e53eb0e1161011c5780633e53eb0e14610220578063406b3ab1146102505780634e1273f414610284578063715018a6146102b45780638da5cb5b146102be57610153565b8062fdd58e1461015857806301ffc9a7146101885780630e89341c146101b8578063215c4ffa146101e85780632eb2c2d614610204575b600080fd5b610172600480360381019061016d9190612d96565b610477565b60405161017f9190612de5565b60405180910390f35b6101a2600480360381019061019d9190612e58565b6104d1565b6040516101af9190612ea0565b60405180910390f35b6101d260048036038101906101cd9190612ebb565b6105b3565b6040516101df9190612f78565b60405180910390f35b61020260048036038101906101fd919061312f565b610647565b005b61021e60048036038101906102199190613353565b61086e565b005b61023a60048036038101906102359190613422565b610916565b60405161024791906134ca565b60405180910390f35b61026a600480360381019061026591906134ec565b610b96565b60405161027b95949392919061353b565b60405180910390f35b61029e60048036038101906102999190613666565b610e6e565b6040516102ab919061379c565b60405180910390f35b6102bc610f7d565b005b6102c6610f91565b6040516102d391906137be565b60405180910390f35b6102f660048036038101906102f191906137d9565b610fbb565b005b610312600480360381019061030d9190613888565b611200565b005b61032e60048036038101906103299190613422565b611216565b60405161033c9291906138c8565b60405180910390f35b61035f600480360381019061035a91906138f8565b6112ec565b60405161036c91906137be565b60405180910390f35b61038f600480360381019061038a9190613971565b6113af565b60405161039c9190612ea0565b60405180910390f35b6103bf60048036038101906103ba919061312f565b6115bd565b005b6103db60048036038101906103d691906139d8565b6117e4565b6040516103e89190612ea0565b60405180910390f35b61040b6004803603810190610406919061312f565b611878565b005b61042760048036038101906104229190613a18565b611a9e565b005b610443600480360381019061043e9190613aaf565b611b46565b005b61045f600480360381019061045a91906138f8565b611bcc565b60405161046e93929190613adc565b60405180910390f35b600080600083815260200190815260200160002060008473ffffffffffffffffffffffffffffffffffffffff1673ffffffffffffffffffffffffffffffffffffffff16815260200190815260200160002054905092915050565b60007fd9b67a26000000000000000000000000000000000000000000000000000000007bffffffffffffffffffffffffffffffffffffffffffffffffffffffff1916827bffffffffffffffffffffffffffffffffffffffffffffffffffffffff1916148061059c57507f0e89341c000000000000000000000000000000000000000000000000000000007bffffffffffffffffffffffffffffffffffffffffffffffffffffffff1916827bffffffffffffffffffffffffffffffffffffffffffffffffffffffff1916145b806105ac57506105ab82611d9b565b5b9050919050565b6060600280546105c290613b57565b80601f01602080910402602001604051908101604052809291908181526020018280546105ee90613b57565b801561063b5780601f106106105761010080835404028352916020019161063b565b820191906000526020600020905b81548152906001019060200180831161061e57829003601f168201915b50505050509050919050565b61064f611e05565b600061065c866003610477565b1461069c576040517f08c379a000000000000000000000000000000000000000000000000000000000815260040161069390613bfa565b60405180910390fd5b600a60008154809291906106af90613c49565b91905055506106d1856003600160405180602001604052806000815250611e8c565b604051806060016040528085815260200184815260200183838080601f016020809104026020016040519081016040528093929190818152602001838380828437600081840152601f19601f8201169050808301925050505050505081525060056000600381526020019081526020016000206000600a548152602001908152602001600020600082015181600001908161076c9190613e43565b5060208201518160010190816107829190613e43565b5060408201518160020190816107989190613e43565b50905050600a54600760008773ffffffffffffffffffffffffffffffffffffffff1673ffffffffffffffffffffffffffffffffffffffff168152602001908152602001600020600060038152602001908152602001600020819055508460066000600381526020019081526020016000206000600a54815260200190815260200160002060006101000a81548173ffffffffffffffffffffffffffffffffffffffff021916908373ffffffffffffffffffffffffffffffffffffffff1602179055506108676003600a54611f25565b5050505050565b600061087861201d565b90508073ffffffffffffffffffffffffffffffffffffffff168673ffffffffffffffffffffffffffffffffffffffff16141580156108bd57506108bb86826117e4565b155b156109015780866040517fe237d9220000000000000000000000000000000000000000000000000000000081526004016108f8929190613f15565b60405180910390fd5b61090e8686868686612025565b505050505050565b6060600060066000868152602001908152602001600020600085815260200190815260200160002060009054906101000a900473ffffffffffffffffffffffffffffffffffffffff169050600073ffffffffffffffffffffffffffffffffffffffff168173ffffffffffffffffffffffffffffffffffffffff16036109d0576040517f08c379a00000000000000000000000000000000000000000000000000000000081526004016109c790613fb0565b60405180910390fd5b60005b60046000878152602001908152602001600020600086815260200190815260200160002080549050811015610b3c57836004600088815260200190815260200160002060008781526020019081526020016000208281548110610a3957610a38613fd0565b5b90600052602060002090600202016000015403610b29576004600087815260200190815260200160002060008681526020019081526020016000208181548110610a8657610a85613fd0565b5b90600052602060002090600202016001018054610aa290613b57565b80601f0160208091040260200160405190810160405280929190818152602001828054610ace90613b57565b8015610b1b5780601f10610af057610100808354040283529160200191610b1b565b820191906000526020600020905b815481529060010190602001808311610afe57829003601f168201915b505050505092505050610b8f565b8080610b3490613c49565b9150506109d3565b50600067ffffffffffffffff811115610b5857610b57612fa4565b5b6040519080825280601f01601f191660200182016040528015610b8a5781602001600182028036833780820191505090505b509150505b9392505050565b6000806060806060600080610bab888a610477565b11610beb576040517f08c379a0000000000000000000000000000000000000000000000000000000008152600401610be290614071565b60405180910390fd5b600760008873ffffffffffffffffffffffffffffffffffffffff1673ffffffffffffffffffffffffffffffffffffffff16815260200190815260200160002060008981526020019081526020016000205490508681600560008b81526020019081526020016000206000848152602001908152602001600020600001600560008c81526020019081526020016000206000858152602001908152602001600020600101600560008d81526020019081526020016000206000868152602001908152602001600020600201828054610cc190613b57565b80601f0160208091040260200160405190810160405280929190818152602001828054610ced90613b57565b8015610d3a5780601f10610d0f57610100808354040283529160200191610d3a565b820191906000526020600020905b815481529060010190602001808311610d1d57829003601f168201915b50505050509250818054610d4d90613b57565b80601f0160208091040260200160405190810160405280929190818152602001828054610d7990613b57565b8015610dc65780601f10610d9b57610100808354040283529160200191610dc6565b820191906000526020600020905b815481529060010190602001808311610da957829003601f168201915b50505050509150808054610dd990613b57565b80601f0160208091040260200160405190810160405280929190818152602001828054610e0590613b57565b8015610e525780601f10610e2757610100808354040283529160200191610e52565b820191906000526020600020905b815481529060010190602001808311610e3557829003601f168201915b5050505050905095509550955095509550509295509295909350565b60608151835114610eba57815183516040517f5b059991000000000000000000000000000000000000000000000000000000008152600401610eb1929190614091565b60405180910390fd5b6000835167ffffffffffffffff811115610ed757610ed6612fa4565b5b604051908082528060200260200182016040528015610f055781602001602082028036833780820191505090505b50905060005b8451811015610f7257610f42610f2a828761211d90919063ffffffff16565b610f3d838761213190919063ffffffff16565b610477565b828281518110610f5557610f54613fd0565b5b60200260200101818152505080610f6b90613c49565b9050610f0b565b508091505092915050565b610f85611e05565b610f8f6000612145565b565b6000600360009054906101000a900473ffffffffffffffffffffffffffffffffffffffff16905090565b610fc3611e05565b600060066000868152602001908152602001600020600085815260200190815260200160002060009054906101000a900473ffffffffffffffffffffffffffffffffffffffff169050600073ffffffffffffffffffffffffffffffffffffffff168173ffffffffffffffffffffffffffffffffffffffff160361107b576040517f08c379a000000000000000000000000000000000000000000000000000000000815260040161107290613fb0565b60405180910390fd5b6000805b6004600088815260200190815260200160002060008781526020019081526020016000208054905081101561116d578460046000898152602001908152602001600020600088815260200190815260200160002082815481106110e5576110e4613fd0565b5b9060005260206000209060020201600001540361115a5783600460008981526020019081526020016000206000888152602001908152602001600020828154811061113357611132613fd0565b5b906000526020600020906002020160010190816111509190614115565b506001915061116d565b808061116590613c49565b91505061107f565b50806111f85760046000878152602001908152602001600020600086815260200190815260200160002060405180604001604052808681526020018581525090806001815401808255809150506001900390600052602060002090600202016000909190919091506000820151816000015560208201518160010190816111f49190614115565b5050505b505050505050565b61121261120b61201d565b838361220b565b5050565b6004602052826000526040600020602052816000526040600020818154811061123e57600080fd5b9060005260206000209060020201600092509250505080600001549080600101805461126990613b57565b80601f016020809104026020016040519081016040528092919081815260200182805461129590613b57565b80156112e25780601f106112b7576101008083540402835291602001916112e2565b820191906000526020600020905b8154815290600101906020018083116112c557829003601f168201915b5050505050905082565b60008060066000858152602001908152602001600020600084815260200190815260200160002060009054906101000a900473ffffffffffffffffffffffffffffffffffffffff169050600073ffffffffffffffffffffffffffffffffffffffff168173ffffffffffffffffffffffffffffffffffffffff16036113a5576040517f08c379a000000000000000000000000000000000000000000000000000000000815260040161139c90613fb0565b60405180910390fd5b8091505092915050565b600080600090505b600460008781526020019081526020016000206000868152602001908152602001600020805490508110156115af5783600460008881526020019081526020016000206000878152602001908152602001600020828154811061141d5761141c613fd0565b5b9060005260206000209060020201600001540361159c576000600460008881526020019081526020016000206000878152602001908152602001600020828154811061146c5761146b613fd0565b5b9060005260206000209060020201600101805461148890613b57565b80601f01602080910402602001604051908101604052809291908181526020018280546114b490613b57565b80156115015780601f106114d657610100808354040283529160200191611501565b820191906000526020600020905b8154815290600101906020018083116114e457829003601f168201915b505050505090508360ff16848260008151811061152157611520613fd0565b5b60200101517f010000000000000000000000000000000000000000000000000000000000000090047f0100000000000000000000000000000000000000000000000000000000000000027f010000000000000000000000000000000000000000000000000000000000000090041660ff1614925050506115b5565b80806115a790613c49565b9150506113b7565b50600090505b949350505050565b6115c5611e05565b60006115d2866002610477565b14611612576040517f08c379a000000000000000000000000000000000000000000000000000000000815260040161160990613bfa565b60405180910390fd5b6009600081548092919061162590613c49565b9190505550611647856002600160405180602001604052806000815250611e8c565b604051806060016040528085815260200184815260200183838080601f016020809104026020016040519081016040528093929190818152602001838380828437600081840152601f19601f8201169050808301925050505050505081525060056000600281526020019081526020016000206000600954815260200190815260200160002060008201518160000190816116e29190613e43565b5060208201518160010190816116f89190613e43565b50604082015181600201908161170e9190613e43565b50905050600954600760008773ffffffffffffffffffffffffffffffffffffffff1673ffffffffffffffffffffffffffffffffffffffff168152602001908152602001600020600060028152602001908152602001600020819055508460066000600281526020019081526020016000206000600954815260200190815260200160002060006101000a81548173ffffffffffffffffffffffffffffffffffffffff021916908373ffffffffffffffffffffffffffffffffffffffff1602179055506117dd6002600954611f25565b5050505050565b6000600160008473ffffffffffffffffffffffffffffffffffffffff1673ffffffffffffffffffffffffffffffffffffffff16815260200190815260200160002060008373ffffffffffffffffffffffffffffffffffffffff1673ffffffffffffffffffffffffffffffffffffffff16815260200190815260200160002060009054906101000a900460ff16905092915050565b611880611e05565b600061188d866001610477565b146118cd576040517f08c379a00000000000000000000000000000000000000000000000000000000081526004016118c490613bfa565b60405180910390fd5b600860008154809291906118e090613c49565b91905055506119018560018060405180602001604052806000815250611e8c565b604051806060016040528085815260200184815260200183838080601f016020809104026020016040519081016040528093929190818152602001838380828437600081840152601f19601f82011690508083019250505050505050815250600560006001815260200190815260200160002060006008548152602001908152602001600020600082015181600001908161199c9190613e43565b5060208201518160010190816119b29190613e43565b5060408201518160020190816119c89190613e43565b50905050600854600760008773ffffffffffffffffffffffffffffffffffffffff1673ffffffffffffffffffffffffffffffffffffffff168152602001908152602001600020600060018152602001908152602001600020819055508460066000600181526020019081526020016000206000600854815260200190815260200160002060006101000a81548173ffffffffffffffffffffffffffffffffffffffff021916908373ffffffffffffffffffffffffffffffffffffffff160217905550611a976001600854611f25565b5050505050565b6000611aa861201d565b90508073ffffffffffffffffffffffffffffffffffffffff168673ffffffffffffffffffffffffffffffffffffffff1614158015611aed5750611aeb86826117e4565b155b15611b315780866040517fe237d922000000000000000000000000000000000000000000000000000000008152600401611b28929190613f15565b60405180910390fd5b611b3e868686868661237b565b505050505050565b611b4e611e05565b600073ffffffffffffffffffffffffffffffffffffffff168173ffffffffffffffffffffffffffffffffffffffff1603611bc05760006040517f1e4fbdf7000000000000000000000000000000000000000000000000000000008152600401611bb791906137be565b60405180910390fd5b611bc981612145565b50565b600560205281600052604060002060205280600052604060002060009150915050806000018054611bfc90613b57565b80601f0160208091040260200160405190810160405280929190818152602001828054611c2890613b57565b8015611c755780601f10611c4a57610100808354040283529160200191611c75565b820191906000526020600020905b815481529060010190602001808311611c5857829003601f168201915b505050505090806001018054611c8a90613b57565b80601f0160208091040260200160405190810160405280929190818152602001828054611cb690613b57565b8015611d035780601f10611cd857610100808354040283529160200191611d03565b820191906000526020600020905b815481529060010190602001808311611ce657829003601f168201915b505050505090806002018054611d1890613b57565b80601f0160208091040260200160405190810160405280929190818152602001828054611d4490613b57565b8015611d915780601f10611d6657610100808354040283529160200191611d91565b820191906000526020600020905b815481529060010190602001808311611d7457829003601f168201915b5050505050905083565b60007f01ffc9a7000000000000000000000000000000000000000000000000000000007bffffffffffffffffffffffffffffffffffffffffffffffffffffffff1916827bffffffffffffffffffffffffffffffffffffffffffffffffffffffff1916149050919050565b611e0d61201d565b73ffffffffffffffffffffffffffffffffffffffff16611e2b610f91565b73ffffffffffffffffffffffffffffffffffffffff1614611e8a57611e4e61201d565b6040517f118cdaa7000000000000000000000000000000000000000000000000000000008152600401611e8191906137be565b60405180910390fd5b565b600073ffffffffffffffffffffffffffffffffffffffff168473ffffffffffffffffffffffffffffffffffffffff1603611efe5760006040517f57f447ce000000000000000000000000000000000000000000000000000000008152600401611ef591906137be565b60405180910390fd5b600080611f0b8585612486565b91509150611f1d6000878484876124b6565b505050505050565b6000600190505b60048111612018576004600084815260200190815260200160002060008381526020019081526020016000206040518060400160405280838152602001600067ffffffffffffffff811115611f8457611f83612fa4565b5b6040519080825280601f01601f191660200182016040528015611fb65781602001600182028036833780820191505090505b5081525090806001815401808255809150506001900390600052602060002090600202016000909190919091506000820151816000015560208201518160010190816120029190614115565b505050808061201090613c49565b915050611f2c565b505050565b600033905090565b600073ffffffffffffffffffffffffffffffffffffffff168473ffffffffffffffffffffffffffffffffffffffff16036120975760006040517f57f447ce00000000000000000000000000000000000000000000000000000000815260040161208e91906137be565b60405180910390fd5b600073ffffffffffffffffffffffffffffffffffffffff168573ffffffffffffffffffffffffffffffffffffffff16036121095760006040517f01a8351400000000000000000000000000000000000000000000000000000000815260040161210091906137be565b60405180910390fd5b61211685858585856124b6565b5050505050565b600060208202602084010151905092915050565b600060208202602084010151905092915050565b6000600360009054906101000a900473ffffffffffffffffffffffffffffffffffffffff16905081600360006101000a81548173ffffffffffffffffffffffffffffffffffffffff021916908373ffffffffffffffffffffffffffffffffffffffff1602179055508173ffffffffffffffffffffffffffffffffffffffff168173ffffffffffffffffffffffffffffffffffffffff167f8be0079c531659141344cd1fd0a4f28419497f9722a3daafe3b4186f6b6457e060405160405180910390a35050565b600073ffffffffffffffffffffffffffffffffffffffff168273ffffffffffffffffffffffffffffffffffffffff160361227d5760006040517fced3e10000000000000000000000000000000000000000000000000000000000815260040161227491906137be565b60405180910390fd5b80600160008573ffffffffffffffffffffffffffffffffffffffff1673ffffffffffffffffffffffffffffffffffffffff16815260200190815260200160002060008473ffffffffffffffffffffffffffffffffffffffff1673ffffffffffffffffffffffffffffffffffffffff16815260200190815260200160002060006101000a81548160ff0219169083151502179055508173ffffffffffffffffffffffffffffffffffffffff168373ffffffffffffffffffffffffffffffffffffffff167f17307eab39ab6107e8899845ad3d59bd9653f200f220920489ca2b5937696c318360405161236e9190612ea0565b60405180910390a3505050565b600073ffffffffffffffffffffffffffffffffffffffff168473ffffffffffffffffffffffffffffffffffffffff16036123ed5760006040517f57f447ce0000000000000000000000000000000000000000000000000000000081526004016123e491906137be565b60405180910390fd5b600073ffffffffffffffffffffffffffffffffffffffff168573ffffffffffffffffffffffffffffffffffffffff160361245f5760006040517f01a8351400000000000000000000000000000000000000000000000000000000815260040161245691906137be565b60405180910390fd5b60008061246c8585612486565b9150915061247d87878484876124b6565b50505050505050565b60608060405191506001825283602083015260408201905060018152826020820152604081016040529250929050565b6124c285858585612568565b600073ffffffffffffffffffffffffffffffffffffffff168473ffffffffffffffffffffffffffffffffffffffff161461256157600061250061201d565b9050600184510361255057600061252160008661213190919063ffffffff16565b9050600061253960008661213190919063ffffffff16565b9050612549838989858589612916565b505061255f565b61255e818787878787612b02565b5b505b5050505050565b80518251146125b257815181516040517f5b0599910000000000000000000000000000000000000000000000000000000081526004016125a9929190614091565b60405180910390fd5b60006125bc61201d565b905060005b83518110156127d15760006125df828661213190919063ffffffff16565b905060006125f6838661213190919063ffffffff16565b9050600073ffffffffffffffffffffffffffffffffffffffff168873ffffffffffffffffffffffffffffffffffffffff161461272357600080600084815260200190815260200160002060008a73ffffffffffffffffffffffffffffffffffffffff1673ffffffffffffffffffffffffffffffffffffffff168152602001908152602001600020549050818110156126cb57888183856040517f03dee4c50000000000000000000000000000000000000000000000000000000081526004016126c294939291906141e7565b60405180910390fd5b81810360008085815260200190815260200160002060008b73ffffffffffffffffffffffffffffffffffffffff1673ffffffffffffffffffffffffffffffffffffffff16815260200190815260200160002081905550505b600073ffffffffffffffffffffffffffffffffffffffff168773ffffffffffffffffffffffffffffffffffffffff16146127be578060008084815260200190815260200160002060008973ffffffffffffffffffffffffffffffffffffffff1673ffffffffffffffffffffffffffffffffffffffff16815260200190815260200160002060008282546127b6919061422c565b925050819055505b5050806127ca90613c49565b90506125c1565b5060018351036128905760006127f160008561213190919063ffffffff16565b9050600061280960008561213190919063ffffffff16565b90508573ffffffffffffffffffffffffffffffffffffffff168773ffffffffffffffffffffffffffffffffffffffff168473ffffffffffffffffffffffffffffffffffffffff167fc3d58168c5ae7397731d063d5bbf3d657854427343f4c083240f7aacaa2d0f628585604051612881929190614091565b60405180910390a4505061290f565b8373ffffffffffffffffffffffffffffffffffffffff168573ffffffffffffffffffffffffffffffffffffffff168273ffffffffffffffffffffffffffffffffffffffff167f4a39dc06d4c0dbc64b70af90fd698a233a518aa5d07e595d983b8c0526c8f7fb8686604051612906929190614260565b60405180910390a45b5050505050565b60008473ffffffffffffffffffffffffffffffffffffffff163b1115612afa578373ffffffffffffffffffffffffffffffffffffffff1663f23a6e6187878686866040518663ffffffff167c0100000000000000000000000000000000000000000000000000000000028152600401612993959493929190614297565b6020604051808303816000875af19250505080156129cf57506040513d601f19601f820116820180604052508101906129cc9190614306565b60015b612a53573d80600081146129ff576040519150601f19603f3d011682016040523d82523d6000602084013e612a04565b606091505b506000815103612a4b57846040517f57f447ce000000000000000000000000000000000000000000000000000000008152600401612a4291906137be565b60405180910390fd5b805181602001fd5b63f23a6e617c0100000000000000000000000000000000000000000000000000000000027bffffffffffffffffffffffffffffffffffffffffffffffffffffffff1916817bffffffffffffffffffffffffffffffffffffffffffffffffffffffff191614612af857846040517f57f447ce000000000000000000000000000000000000000000000000000000008152600401612aef91906137be565b60405180910390fd5b505b505050505050565b60008473ffffffffffffffffffffffffffffffffffffffff163b1115612ce6578373ffffffffffffffffffffffffffffffffffffffff1663bc197c8187878686866040518663ffffffff167c0100000000000000000000000000000000000000000000000000000000028152600401612b7f959493929190614333565b6020604051808303816000875af1925050508015612bbb57506040513d601f19601f82011682018060405250810190612bb89190614306565b60015b612c3f573d8060008114612beb576040519150601f19603f3d011682016040523d82523d6000602084013e612bf0565b606091505b506000815103612c3757846040517f57f447ce000000000000000000000000000000000000000000000000000000008152600401612c2e91906137be565b60405180910390fd5b805181602001fd5b63bc197c817c0100000000000000000000000000000000000000000000000000000000027bffffffffffffffffffffffffffffffffffffffffffffffffffffffff1916817bffffffffffffffffffffffffffffffffffffffffffffffffffffffff191614612ce457846040517f57f447ce000000000000000000000000000000000000000000000000000000008152600401612cdb91906137be565b60405180910390fd5b505b505050505050565b6000604051905090565b600080fd5b600080fd5b600073ffffffffffffffffffffffffffffffffffffffff82169050919050565b6000612d2d82612d02565b9050919050565b612d3d81612d22565b8114612d4857600080fd5b50565b600081359050612d5a81612d34565b92915050565b6000819050919050565b612d7381612d60565b8114612d7e57600080fd5b50565b600081359050612d9081612d6a565b92915050565b60008060408385031215612dad57612dac612cf8565b5b6000612dbb85828601612d4b565b9250506020612dcc85828601612d81565b9150509250929050565b612ddf81612d60565b82525050565b6000602082019050612dfa6000830184612dd6565b92915050565b60007fffffffff0000000000000000000000000000000000000000000000000000000082169050919050565b612e3581612e00565b8114612e4057600080fd5b50565b600081359050612e5281612e2c565b92915050565b600060208284031215612e6e57612e6d612cf8565b5b6000612e7c84828501612e43565b91505092915050565b60008115159050919050565b612e9a81612e85565b82525050565b6000602082019050612eb56000830184612e91565b92915050565b600060208284031215612ed157612ed0612cf8565b5b6000612edf84828501612d81565b91505092915050565b600081519050919050565b600082825260208201905092915050565b60005b83811015612f22578082015181840152602081019050612f07565b60008484015250505050565b6000601f19601f8301169050919050565b6000612f4a82612ee8565b612f548185612ef3565b9350612f64818560208601612f04565b612f6d81612f2e565b840191505092915050565b60006020820190508181036000830152612f928184612f3f565b905092915050565b600080fd5b600080fd5b7f4e487b7100000000000000000000000000000000000000000000000000000000600052604160045260246000fd5b612fdc82612f2e565b810181811067ffffffffffffffff82111715612ffb57612ffa612fa4565b5b80604052505050565b600061300e612cee565b905061301a8282612fd3565b919050565b600067ffffffffffffffff82111561303a57613039612fa4565b5b61304382612f2e565b9050602081019050919050565b82818337600083830152505050565b600061307261306d8461301f565b613004565b90508281526020810184848401111561308e5761308d612f9f565b5b613099848285613050565b509392505050565b600082601f8301126130b6576130b5612f9a565b5b81356130c684826020860161305f565b91505092915050565b600080fd5b600080fd5b60008083601f8401126130ef576130ee612f9a565b5b8235905067ffffffffffffffff81111561310c5761310b6130cf565b5b602083019150836001820283011115613128576131276130d4565b5b9250929050565b60008060008060006080868803121561314b5761314a612cf8565b5b600061315988828901612d4b565b955050602086013567ffffffffffffffff81111561317a57613179612cfd565b5b613186888289016130a1565b945050604086013567ffffffffffffffff8111156131a7576131a6612cfd565b5b6131b3888289016130a1565b935050606086013567ffffffffffffffff8111156131d4576131d3612cfd565b5b6131e0888289016130d9565b92509250509295509295909350565b600067ffffffffffffffff82111561320a57613209612fa4565b5b602082029050602081019050919050565b600061322e613229846131ef565b613004565b90508083825260208201905060208402830185811115613251576132506130d4565b5b835b8181101561327a57806132668882612d81565b845260208401935050602081019050613253565b5050509392505050565b600082601f83011261329957613298612f9a565b5b81356132a984826020860161321b565b91505092915050565b600067ffffffffffffffff8211156132cd576132cc612fa4565b5b6132d682612f2e565b9050602081019050919050565b60006132f66132f1846132b2565b613004565b90508281526020810184848401111561331257613311612f9f565b5b61331d848285613050565b509392505050565b600082601f83011261333a57613339612f9a565b5b813561334a8482602086016132e3565b91505092915050565b600080600080600060a0868803121561336f5761336e612cf8565b5b600061337d88828901612d4b565b955050602061338e88828901612d4b565b945050604086013567ffffffffffffffff8111156133af576133ae612cfd565b5b6133bb88828901613284565b935050606086013567ffffffffffffffff8111156133dc576133db612cfd565b5b6133e888828901613284565b925050608086013567ffffffffffffffff81111561340957613408612cfd565b5b61341588828901613325565b9150509295509295909350565b60008060006060848603121561343b5761343a612cf8565b5b600061344986828701612d81565b935050602061345a86828701612d81565b925050604061346b86828701612d81565b9150509250925092565b600081519050919050565b600082825260208201905092915050565b600061349c82613475565b6134a68185613480565b93506134b6818560208601612f04565b6134bf81612f2e565b840191505092915050565b600060208201905081810360008301526134e48184613491565b905092915050565b6000806040838503121561350357613502612cf8565b5b600061351185828601612d81565b925050602061352285828601612d4b565b9150509250929050565b61353581612d22565b82525050565b600060a082019050613550600083018861352c565b61355d6020830187612dd6565b818103604083015261356f8186612f3f565b905081810360608301526135838185612f3f565b905081810360808301526135978184612f3f565b90509695505050505050565b600067ffffffffffffffff8211156135be576135bd612fa4565b5b602082029050602081019050919050565b60006135e26135dd846135a3565b613004565b90508083825260208201905060208402830185811115613605576136046130d4565b5b835b8181101561362e578061361a8882612d4b565b845260208401935050602081019050613607565b5050509392505050565b600082601f83011261364d5761364c612f9a565b5b813561365d8482602086016135cf565b91505092915050565b6000806040838503121561367d5761367c612cf8565b5b600083013567ffffffffffffffff81111561369b5761369a612cfd565b5b6136a785828601613638565b925050602083013567ffffffffffffffff8111156136c8576136c7612cfd565b5b6136d485828601613284565b9150509250929050565b600081519050919050565b600082825260208201905092915050565b6000819050602082019050919050565b61371381612d60565b82525050565b6000613725838361370a565b60208301905092915050565b6000602082019050919050565b6000613749826136de565b61375381856136e9565b935061375e836136fa565b8060005b8381101561378f5781516137768882613719565b975061378183613731565b925050600181019050613762565b5085935050505092915050565b600060208201905081810360008301526137b6818461373e565b905092915050565b60006020820190506137d3600083018461352c565b92915050565b600080600080608085870312156137f3576137f2612cf8565b5b600061380187828801612d81565b945050602061381287828801612d81565b935050604061382387828801612d81565b925050606085013567ffffffffffffffff81111561384457613843612cfd565b5b61385087828801613325565b91505092959194509250565b61386581612e85565b811461387057600080fd5b50565b6000813590506138828161385c565b92915050565b6000806040838503121561389f5761389e612cf8565b5b60006138ad85828601612d4b565b92505060206138be85828601613873565b9150509250929050565b60006040820190506138dd6000830185612dd6565b81810360208301526138ef8184613491565b90509392505050565b6000806040838503121561390f5761390e612cf8565b5b600061391d85828601612d81565b925050602061392e85828601612d81565b9150509250929050565b600060ff82169050919050565b61394e81613938565b811461395957600080fd5b50565b60008135905061396b81613945565b92915050565b6000806000806080858703121561398b5761398a612cf8565b5b600061399987828801612d81565b94505060206139aa87828801612d81565b93505060406139bb87828801612d81565b92505060606139cc8782880161395c565b91505092959194509250565b600080604083850312156139ef576139ee612cf8565b5b60006139fd85828601612d4b565b9250506020613a0e85828601612d4b565b9150509250929050565b600080600080600060a08688031215613a3457613a33612cf8565b5b6000613a4288828901612d4b565b9550506020613a5388828901612d4b565b9450506040613a6488828901612d81565b9350506060613a7588828901612d81565b925050608086013567ffffffffffffffff811115613a9657613a95612cfd565b5b613aa288828901613325565b9150509295509295909350565b600060208284031215613ac557613ac4612cf8565b5b6000613ad384828501612d4b565b91505092915050565b60006060820190508181036000830152613af68186612f3f565b90508181036020830152613b0a8185612f3f565b90508181036040830152613b1e8184612f3f565b9050949350505050565b7f4e487b7100000000000000000000000000000000000000000000000000000000600052602260045260246000fd5b60006002820490506001821680613b6f57607f821691505b602082108103613b8257613b81613b28565b5b50919050565b7f54686973206164647265737320616c7265616479206f776e207468697320746f60008201527f6b656e20747970652e0000000000000000000000000000000000000000000000602082015250565b6000613be4602983612ef3565b9150613bef82613b88565b604082019050919050565b60006020820190508181036000830152613c1381613bd7565b9050919050565b7f4e487b7100000000000000000000000000000000000000000000000000000000600052601160045260246000fd5b6000613c5482612d60565b91507fffffffffffffffffffffffffffffffffffffffffffffffffffffffffffffffff8203613c8657613c85613c1a565b5b600182019050919050565b60008190508160005260206000209050919050565b60006020601f8301049050919050565b60008160020a8302905092915050565b600060088302613cf67fffffffffffffffffffffffffffffffffffffffffffffffffffffffffffffffff82613cb6565b613d008683613cb6565b95508019841693508086168417925050509392505050565b6000819050919050565b6000613d3d613d38613d3384612d60565b613d18565b612d60565b9050919050565b6000819050919050565b613d5783613d22565b613d6b613d6382613d44565b848454613cc6565b825550505050565b600090565b613d80613d73565b613d8b818484613d4e565b505050565b5b81811015613daf57613da4600082613d78565b600181019050613d91565b5050565b601f821115613df457613dc581613c91565b613dce84613ca6565b81016020851015613ddd578190505b613df1613de985613ca6565b830182613d90565b50505b505050565b60008160020a8304905092915050565b6000613e1a60001984600802613df9565b1980831691505092915050565b6000613e338383613e09565b9150826002028217905092915050565b613e4c82612ee8565b67ffffffffffffffff811115613e6557613e64612fa4565b5b613e6f8254613b57565b613e7a828285613db3565b600060209050601f831160018114613ead5760008415613e9b578287015190505b613ea58582613e27565b865550613f0d565b601f198416613ebb86613c91565b60005b82811015613ee357848901518255600182019150602085019450602081019050613ebe565b86831015613f005784890151613efc601f891682613e09565b8355505b6001600288020188555050505b505050505050565b6000604082019050613f2a600083018561352c565b613f37602083018461352c565b9392505050565b7f546f6b656e20646f6573206e6f74206578697374206f7220686173206e6f206f60008201527f776e65722e000000000000000000000000000000000000000000000000000000602082015250565b6000613f9a602583612ef3565b9150613fa582613f3e565b604082019050919050565b60006020820190508181036000830152613fc981613f8d565b9050919050565b7f4e487b7100000000000000000000000000000000000000000000000000000000600052603260045260246000fd5b7f4164647265737320646f6573206e6f74206f776e207468697320746f6b656e2060008201527f747970652e000000000000000000000000000000000000000000000000000000602082015250565b600061405b602583612ef3565b915061406682613fff565b604082019050919050565b6000602082019050818103600083015261408a8161404e565b9050919050565b60006040820190506140a66000830185612dd6565b6140b36020830184612dd6565b9392505050565b60008190508160005260206000209050919050565b601f821115614110576140e1816140ba565b6140ea84613ca6565b810160208510156140f9578190505b61410d61410585613ca6565b830182613d90565b50505b505050565b61411e82613475565b67ffffffffffffffff81111561413757614136612fa4565b5b6141418254613b57565b61414c8282856140cf565b600060209050601f83116001811461417f576000841561416d578287015190505b6141778582613e27565b8655506141df565b601f19841661418d866140ba565b60005b828110156141b557848901518255600182019150602085019450602081019050614190565b868310156141d257848901516141ce601f891682613e09565b8355505b6001600288020188555050505b505050505050565b60006080820190506141fc600083018761352c565b6142096020830186612dd6565b6142166040830185612dd6565b6142236060830184612dd6565b95945050505050565b600061423782612d60565b915061424283612d60565b925082820190508082111561425a57614259613c1a565b5b92915050565b6000604082019050818103600083015261427a818561373e565b9050818103602083015261428e818461373e565b90509392505050565b600060a0820190506142ac600083018861352c565b6142b9602083018761352c565b6142c66040830186612dd6565b6142d36060830185612dd6565b81810360808301526142e58184613491565b90509695505050505050565b60008151905061430081612e2c565b92915050565b60006020828403121561431c5761431b612cf8565b5b600061432a848285016142f1565b91505092915050565b600060a082019050614348600083018861352c565b614355602083018761352c565b8181036040830152614367818661373e565b9050818103606083015261437b818561373e565b9050818103608083015261438f8184613491565b9050969550505050505056fea26469706673582212205a3a995db184716c5544e14fca3814d5c802b04134520f7bcb53a567f9f4d19364736f6c6343000814003368747470733a2f2f697066732e696f2f697066732f62616679626569686a6a6b77647278786a6e757765766c7174716d683369656763616463333273696f34776d6f37627632676266333471733334612f7b69647d2e6a736f6e",
  "immutableReferences": {},
  "source": "// SPDX-License-Identifier: MIT\r\n\r\npragma solidity ^0.8.0;\r\n\r\nimport \"../node_modules/@openzeppelin/contracts/token/ERC1155/ERC1155.sol\";\r\nimport \"../node_modules/@openzeppelin/contracts/access/Ownable.sol\";\r\nimport \"../node_modules/@openzeppelin/contracts/utils/Strings.sol\";\r\n\r\ncontract HospitalToken is ERC1155, Ownable {\r\n    using Strings for uint256;\r\n\r\n    uint256 constant Doctor = 1;\r\n    uint256 constant Patient = 2;\r\n    uint256 constant Assistant = 3;\r\n\r\n    // Access rights within each Hospital\r\n    struct HospitalAccess {\r\n        uint256 hospitalId;\r\n        bytes accessRights;\r\n    }\r\n    //mapping(uint256 => HospitalAccess[]) public tokenHospitalAccessRights;  \r\n    mapping(uint256 => mapping(uint256 => HospitalAccess[])) public tokenHospitalAccessRights;\r\n\r\n    // Data associated to every person \r\n    struct PersonalData {\r\n        string name;\r\n        string surname;\r\n        string taxCode;\r\n    }\r\n    mapping(uint256 => mapping(uint256 => PersonalData)) public tokenPersonalData;  // userType , tokenID -> personalData\r\n    mapping(uint256 => mapping(uint256 => address)) private addressTokenPossession; // userType , tokenID -> address\r\n\r\n    mapping(address => mapping(uint256 => uint256)) private tokenPossession; //  indirizzo , userType -> tokenID\r\n\r\n\r\n    //mapping(uint256 => mapping(uint256 => string)) private tokenMetadata2;\r\n\r\n    uint256 private tokenIdDoctor = 0;\r\n    uint256 private tokenIdPatient = 0;\r\n    uint256 private tokenIdAssistant = 0;\r\n\r\n    // Define hospital identifiers as constants\r\n    uint256 private constant H1 = 1;\r\n    uint256 private constant H2 = 2;\r\n    uint256 private constant H3 = 3;\r\n    uint256 private constant H4 = 4;\r\n\r\n    constructor() ERC1155(\"https://ipfs.io/ipfs/bafybeihjjkwdrxxjnuwevlqtqmh3iegcadc32sio4wmo7bv2gbf34qs34a/{id}.json\") Ownable(0x12b405F1a1a4A11479E670E0af39312E771Ff38F) {\r\n        // The owner is set as the deployer of the contract\r\n\r\n    }\r\n\r\n    // Define constants for each permission bit\r\n    uint8 constant PERMISSION_READ_HISTORY = 0x01;\r\n    uint8 constant PERMISSION_READ_PRESCRIPTIONS = 0x02;\r\n    uint8 constant PERMISSION_READ_TEST_RESULTS = 0x04;\r\n    uint8 constant PERMISSION_UPDATE_EMR = 0x08;  // Example new permission bit for updating EMR\r\n    uint8 constant PERMISSION_RADIOLOGY_ROOM = 0x10;\r\n    uint8 constant PERMISSION_CARDIOLOGY_ROOM = 0x20;\r\n    \r\n\r\n\r\n\r\n\r\n    // Functions to mint tokens for doctors, assistants, and patients\r\n    function mintDoctor(address account, string memory name, string memory surname, string calldata taxCode) public onlyOwner{\r\n        require(balanceOf(account, 1) == 0, \"This address already own this token type.\");\r\n        tokenIdDoctor++;\r\n        _mint(account, Doctor, 1, \"\");\r\n        tokenPersonalData[Doctor][tokenIdDoctor] = PersonalData(name, surname, taxCode);\r\n        tokenPossession[account][Doctor] = tokenIdDoctor;\r\n        addressTokenPossession[Doctor][tokenIdDoctor] = account;\r\n        // Initialize with empty permissions\r\n        initializeHospitalAccess(Doctor , tokenIdDoctor);\r\n\r\n    }\r\n\r\n    \r\n    function mintPatient(address account, string memory name, string memory surname, string calldata taxCode) public onlyOwner {\r\n        require(balanceOf(account, 2) == 0, \"This address already own this token type.\");\r\n        tokenIdPatient++;\r\n        _mint(account, Patient, 1, \"\");\r\n        tokenPersonalData[Patient][tokenIdPatient] = PersonalData(name, surname, taxCode);\r\n        tokenPossession[account][Patient] = tokenIdPatient;\r\n        addressTokenPossession[Patient][tokenIdPatient] = account;\r\n        // Initialize with empty permissions\r\n        initializeHospitalAccess(Patient , tokenIdPatient);\r\n    }\r\n\r\n\r\n    function mintAssistant(address account, string memory name, string memory surname, string calldata taxCode) public onlyOwner {\r\n            require(balanceOf(account, 3) == 0, \"This address already own this token type.\");\r\n            tokenIdAssistant++;\r\n            _mint(account, Assistant, 1, \"\");\r\n            tokenPersonalData[Assistant][tokenIdAssistant] = PersonalData(name, surname, taxCode);\r\n            tokenPossession[account][Assistant] = tokenIdAssistant;\r\n            addressTokenPossession[Assistant][tokenIdAssistant] = account;\r\n            // Initialize with empty permissions\r\n            initializeHospitalAccess(Assistant , tokenIdAssistant);\r\n        }\r\n\r\n    // Function used to retrieve informations about last user minted\r\n    function getLastMintedUser(uint256 tokenType, address accountowner) public view returns (address account, uint256 tokenId, string memory name , string memory surname, string memory taxCode) {\r\n        uint256 tokenID;\r\n        require(balanceOf(accountowner, tokenType) > 0, \"Address does not own this token type.\");\r\n\r\n        tokenID = tokenPossession[accountowner][tokenType];\r\n        \r\n        \r\n     return (accountowner, tokenID, tokenPersonalData[tokenType][tokenID].name , tokenPersonalData[tokenType][tokenID].surname , tokenPersonalData[tokenType][tokenID].taxCode);\r\n    \r\n    }\r\n\r\n    // Function used to inizialize the Array containing permissions for each Hospital (Sets permission to 0x00 for each hospital)\r\n    function initializeHospitalAccess(uint256 tokenType, uint256 tokenID) internal {\r\n    // Iterate over each hospital ID\r\n        for (uint256 i = H1; i <= H4; i++) {\r\n            // Initialize access rights for this token at the given index for each hospital\r\n            tokenHospitalAccessRights[tokenType][tokenID].push(HospitalAccess({\r\n                hospitalId: i,\r\n                accessRights: new bytes(0) // Empty access rights\r\n            }));\r\n        }\r\n    }\r\n\r\n\r\n    // Function used to update hospital access rights for a specific token instance\r\n    function setHospitalAccess(uint256 tokenType, uint256 tokenID, uint256 hospitalId, bytes memory accessRights) public onlyOwner {\r\n\r\n        address owner = addressTokenPossession[tokenType][tokenID];\r\n        require(owner != address(0), \"Token does not exist or has no owner.\");\r\n\r\n        // Find and update the specific hospital access rights for the given token instance\r\n        bool hospitalFound = false;\r\n        for (uint256 i = 0; i < tokenHospitalAccessRights[tokenType][tokenID].length; i++) {\r\n            if (tokenHospitalAccessRights[tokenType][tokenID][i].hospitalId == hospitalId) {\r\n                tokenHospitalAccessRights[tokenType][tokenID][i].accessRights = accessRights;\r\n                hospitalFound = true;\r\n                break;\r\n            }\r\n        }\r\n        \r\n        // If the hospital ID is not found, add a new entry\r\n        if (!hospitalFound) {\r\n            tokenHospitalAccessRights[tokenType][tokenID].push(HospitalAccess({\r\n                hospitalId: hospitalId,\r\n                accessRights: accessRights\r\n            }));\r\n        }\r\n    }\r\n\r\n    // Checks if the permission is granted for the specified hospital\r\n    function checkPermission(uint256 tokenType, uint256 tokenID, uint256 hospitalId, uint8 permission) public view returns (bool) {\r\n        for (uint256 i = 0; i < tokenHospitalAccessRights[tokenType][tokenID].length; i++) {\r\n            if (tokenHospitalAccessRights[tokenType][tokenID][i].hospitalId == hospitalId) {\r\n                bytes memory accessRights = tokenHospitalAccessRights[tokenType][tokenID][i].accessRights;\r\n                return (uint8(accessRights[0]) & permission) == permission;\r\n            }\r\n        }\r\n        return false;\r\n    }\r\n\r\n    // Returns the access rights for a specified hospital associated with a specific token\r\n    function getHospitalPermissions(uint256 tokenType, uint256 tokenID, uint256 hospitalId) public view returns (bytes memory) {\r\n        address owner = addressTokenPossession[tokenType][tokenID];\r\n        require(owner != address(0), \"Token does not exist or has no owner.\");\r\n        \r\n        for (uint256 i = 0; i < tokenHospitalAccessRights[tokenType][tokenID].length; i++) {\r\n            if (tokenHospitalAccessRights[tokenType][tokenID][i].hospitalId == hospitalId) {\r\n                return tokenHospitalAccessRights[tokenType][tokenID][i].accessRights;\r\n            }\r\n        }\r\n        // Return an empty byte array if no permissions are set or if the hospitalId is not found\r\n        return new bytes(0);\r\n    }\r\n\r\n    function getAddressForToken(uint256 tokenType, uint256 tokenID) public view returns (address) {\r\n        address owner = addressTokenPossession[tokenType][tokenID];\r\n        require(owner != address(0), \"Token does not exist or has no owner.\");\r\n        return owner;\r\n    }\r\n\r\n    \r\n\r\n    /* Returns all the permissions assiociated to the token\r\n    function getPermissions() public view returns ( bytes[] ) {\r\n        \r\n        accessRights[] \r\n        bytes memory accessRights[];\r\n        for (uint256 i = 0; i < tokenHospitalAccessRights[tokenId][tokenIndex].length; i++) {\r\n            if (tokenHospitalAccessRights[tokenId][tokenIndex][i].hospitalId == hospitalId) {\r\n                accessRights[i] = tokenHospitalAccessRights[tokenId][tokenIndex][i].accessRights;\r\n            }\r\n        }\r\n        return accessRights[];\r\n\r\n\r\n    }\r\n\r\n\r\n    // Override uri to include token access rights information for all associated hospitals\r\n    function uri(uint256 tokenId) public view override returns (string memory) {\r\n        HospitalAccess[] storage accesses = tokenHospitalAccessRights[tokenId];\r\n        require(accesses.length > 0, \"URI: nonexistent token\");\r\n\r\n        string memory baseURI = super.uri(tokenId);\r\n        string memory accessRightsPart;\r\n\r\n        for (uint256 i = 0; i < accesses.length; i++) {\r\n            // You'll need to define how you want to represent each set of access rights\r\n            accessRightsPart = string(abi.encodePacked(accessRightsPart, \"hospital\", accesses[i].hospitalId.toString(), \"=\", accesses[i].accessRights, \"&\"));\r\n        }\r\n\r\n        return string(abi.encodePacked(baseURI, \"?\", accessRightsPart));\r\n    }\r\n\r\n\r\n    */\r\n\r\n    \r\n\r\n\r\n    // ... Additional functions and modifiers ...\r\n}\r\n",
  "sourcePath": "C:\\Users\\simon\\Desktop\\Tesi\\Tesi_Magistrale\\TokenGanache\\contracts\\HospitalToken.sol",
  "compiler": {
    "name": "solc",
    "version": "0.8.20+commit.a1b79de6.Emscripten.clang"
  },
  "schemaVersion": "3.4.16",
  "updatedAt": "2024-04-06T14:53:15.009Z",
  "networkType": "ethereum",
  "devdoc": {
    "errors": {
      "ERC1155InsufficientBalance(address,uint256,uint256,uint256)": [
        {
          "details": "Indicates an error related to the current `balance` of a `sender`. Used in transfers.",
          "params": {
            "balance": "Current balance for the interacting account.",
            "needed": "Minimum amount required to perform a transfer.",
            "sender": "Address whose tokens are being transferred.",
            "tokenId": "Identifier number of a token."
          }
        }
      ],
      "ERC1155InvalidApprover(address)": [
        {
          "details": "Indicates a failure with the `approver` of a token to be approved. Used in approvals.",
          "params": {
            "approver": "Address initiating an approval operation."
          }
        }
      ],
      "ERC1155InvalidArrayLength(uint256,uint256)": [
        {
          "details": "Indicates an array length mismatch between ids and values in a safeBatchTransferFrom operation. Used in batch transfers.",
          "params": {
            "idsLength": "Length of the array of token identifiers",
            "valuesLength": "Length of the array of token amounts"
          }
        }
      ],
      "ERC1155InvalidOperator(address)": [
        {
          "details": "Indicates a failure with the `operator` to be approved. Used in approvals.",
          "params": {
            "operator": "Address that may be allowed to operate on tokens without being their owner."
          }
        }
      ],
      "ERC1155InvalidReceiver(address)": [
        {
          "details": "Indicates a failure with the token `receiver`. Used in transfers.",
          "params": {
            "receiver": "Address to which tokens are being transferred."
          }
        }
      ],
      "ERC1155InvalidSender(address)": [
        {
          "details": "Indicates a failure with the token `sender`. Used in transfers.",
          "params": {
            "sender": "Address whose tokens are being transferred."
          }
        }
      ],
      "ERC1155MissingApprovalForAll(address,address)": [
        {
          "details": "Indicates a failure with the `operator`s approval. Used in transfers.",
          "params": {
            "operator": "Address that may be allowed to operate on tokens without being their owner.",
            "owner": "Address of the current owner of a token."
          }
        }
      ],
      "OwnableInvalidOwner(address)": [
        {
          "details": "The owner is not a valid owner account. (eg. `address(0)`)"
        }
      ],
      "OwnableUnauthorizedAccount(address)": [
        {
          "details": "The caller account is not authorized to perform an operation."
        }
      ]
    },
    "events": {
      "ApprovalForAll(address,address,bool)": {
        "details": "Emitted when `account` grants or revokes permission to `operator` to transfer their tokens, according to `approved`."
      },
      "TransferBatch(address,address,address,uint256[],uint256[])": {
        "details": "Equivalent to multiple {TransferSingle} events, where `operator`, `from` and `to` are the same for all transfers."
      },
      "TransferSingle(address,address,address,uint256,uint256)": {
        "details": "Emitted when `value` amount of tokens of type `id` are transferred from `from` to `to` by `operator`."
      },
      "URI(string,uint256)": {
        "details": "Emitted when the URI for token type `id` changes to `value`, if it is a non-programmatic URI. If an {URI} event was emitted for `id`, the standard https://eips.ethereum.org/EIPS/eip-1155#metadata-extensions[guarantees] that `value` will equal the value returned by {IERC1155MetadataURI-uri}."
      }
    },
    "kind": "dev",
    "methods": {
      "balanceOf(address,uint256)": {
        "details": "See {IERC1155-balanceOf}."
      },
      "balanceOfBatch(address[],uint256[])": {
        "details": "See {IERC1155-balanceOfBatch}. Requirements: - `accounts` and `ids` must have the same length."
      },
      "isApprovedForAll(address,address)": {
        "details": "See {IERC1155-isApprovedForAll}."
      },
      "owner()": {
        "details": "Returns the address of the current owner."
      },
      "renounceOwnership()": {
        "details": "Leaves the contract without owner. It will not be possible to call `onlyOwner` functions. Can only be called by the current owner. NOTE: Renouncing ownership will leave the contract without an owner, thereby disabling any functionality that is only available to the owner."
      },
      "safeBatchTransferFrom(address,address,uint256[],uint256[],bytes)": {
        "details": "See {IERC1155-safeBatchTransferFrom}."
      },
      "safeTransferFrom(address,address,uint256,uint256,bytes)": {
        "details": "See {IERC1155-safeTransferFrom}."
      },
      "setApprovalForAll(address,bool)": {
        "details": "See {IERC1155-setApprovalForAll}."
      },
      "supportsInterface(bytes4)": {
        "details": "See {IERC165-supportsInterface}."
      },
      "transferOwnership(address)": {
        "details": "Transfers ownership of the contract to a new account (`newOwner`). Can only be called by the current owner."
      },
      "uri(uint256)": {
        "details": "See {IERC1155MetadataURI-uri}. This implementation returns the same URI for *all* token types. It relies on the token type ID substitution mechanism https://eips.ethereum.org/EIPS/eip-1155#metadata[defined in the EIP]. Clients calling this function must replace the `\\{id\\}` substring with the actual token type ID."
      }
    },
    "version": 1
  },
  "userdoc": {
    "kind": "user",
    "methods": {},
    "version": 1
  }
}