{
  "contractName": "MerkleTree",
  "abi": [
    {
      "inputs": [],
      "name": "merkleRoot",
      "outputs": [
        {
          "internalType": "bytes32",
          "name": "",
          "type": "bytes32"
        }
      ],
      "stateMutability": "view",
      "type": "function",
      "constant": true
    },
    {
      "inputs": [
        {
          "internalType": "bytes32",
          "name": "leaf",
          "type": "bytes32"
        },
        {
          "internalType": "bytes32[]",
          "name": "proof",
          "type": "bytes32[]"
        }
      ],
      "name": "verify",
      "outputs": [
        {
          "internalType": "bool",
          "name": "",
          "type": "bool"
        }
      ],
      "stateMutability": "view",
      "type": "function",
      "constant": true
    },
    {
      "inputs": [
        {
          "internalType": "bytes32",
          "name": "newRoot",
          "type": "bytes32"
        }
      ],
      "name": "updateMerkleRoot",
      "outputs": [
        {
          "internalType": "bool",
          "name": "",
          "type": "bool"
        }
      ],
      "stateMutability": "nonpayable",
      "type": "function"
    }
  ],
  "bytecode": "0x60806040527f15a4aec3ac5176a58a762443f28aca1bb501446a13b0398542e30a257a6367d760010260005534801561003757600080fd5b5061056f806100476000396000f3fe608060405234801561001057600080fd5b506004361061005e576000357c0100000000000000000000000000000000000000000000000000000000900480632eb4a7ab146100635780634783f0ef146100815780636df4d241146100b1575b600080fd5b61006b6100e1565b60405161007891906101c9565b60405180910390f35b61009b60048036038101906100969190610224565b6100e7565b6040516100a8919061026c565b60405180910390f35b6100cb60048036038101906100c691906103e0565b6100f9565b6040516100d8919061026c565b60405180910390f35b60005481565b60008160008190555060019050919050565b60008083905060005b83518110156101a15760008482815181106101205761011f61043c565b5b6020026020010151905080831161016157828160405160200161014492919061048c565b60405160208183030381529060405280519060200120925061018d565b808360405160200161017492919061048c565b6040516020818303038152906040528051906020012092505b508080610199906104f1565b915050610102565b50600054811491505092915050565b6000819050919050565b6101c3816101b0565b82525050565b60006020820190506101de60008301846101ba565b92915050565b6000604051905090565b600080fd5b600080fd5b610201816101b0565b811461020c57600080fd5b50565b60008135905061021e816101f8565b92915050565b60006020828403121561023a576102396101ee565b5b60006102488482850161020f565b91505092915050565b60008115159050919050565b61026681610251565b82525050565b6000602082019050610281600083018461025d565b92915050565b600080fd5b6000601f19601f8301169050919050565b7f4e487b7100000000000000000000000000000000000000000000000000000000600052604160045260246000fd5b6102d58261028c565b810181811067ffffffffffffffff821117156102f4576102f361029d565b5b80604052505050565b60006103076101e4565b905061031382826102cc565b919050565b600067ffffffffffffffff8211156103335761033261029d565b5b602082029050602081019050919050565b600080fd5b600061035c61035784610318565b6102fd565b9050808382526020820190506020840283018581111561037f5761037e610344565b5b835b818110156103a85780610394888261020f565b845260208401935050602081019050610381565b5050509392505050565b600082601f8301126103c7576103c6610287565b5b81356103d7848260208601610349565b91505092915050565b600080604083850312156103f7576103f66101ee565b5b60006104058582860161020f565b925050602083013567ffffffffffffffff811115610426576104256101f3565b5b610432858286016103b2565b9150509250929050565b7f4e487b7100000000000000000000000000000000000000000000000000000000600052603260045260246000fd5b6000819050919050565b610486610481826101b0565b61046b565b82525050565b60006104988285610475565b6020820191506104a88284610475565b6020820191508190509392505050565b7f4e487b7100000000000000000000000000000000000000000000000000000000600052601160045260246000fd5b6000819050919050565b60006104fc826104e7565b91507fffffffffffffffffffffffffffffffffffffffffffffffffffffffffffffffff820361052e5761052d6104b8565b5b60018201905091905056fea26469706673582212201252c6f6219a534e19e480092766fbf7de68382746a15d6ea120da30ca070e3864736f6c63430008140033",
  "immutableReferences": {},
  "source": "// SPDX-License-Identifier: MIT\r\npragma solidity ^0.8.9;\r\n\r\ncontract MerkleTree {\r\n    // --- PROPERTIES ---- //\r\n\r\n    // Calculated from `ConnectMyToken.js`\r\n    bytes32 public merkleRoot = \r\n        0x15a4aec3ac5176a58a762443f28aca1bb501446a13b0398542e30a257a6367d7;\r\n        \r\n\r\n    // --- FUNCTIONS ---- //\r\n\r\n    function verify (\r\n        bytes32 leaf,\r\n        bytes32[] memory proof\r\n\r\n    ) public view returns (bool) {\r\n        bytes32 computedHash = leaf;\r\n\r\n        for (uint256 i = 0; i < proof.length; i++) {\r\n        bytes32 proofElement = proof[i];\r\n\r\n        if (computedHash <= proofElement) {\r\n            // Hash(current computed hash + current element of the proof)\r\n            computedHash = keccak256(abi.encodePacked(computedHash, proofElement));\r\n        } else {\r\n            // Hash(current element of the proof + current computed hash)\r\n            computedHash = keccak256(abi.encodePacked(proofElement, computedHash));\r\n        }\r\n        }\r\n\r\n        // Check if the computed hash (root) is equal to the provided root\r\n        return computedHash == merkleRoot;\r\n    }\r\n\r\n\r\n    function updateMerkleRoot(bytes32 newRoot) public returns (bool) {\r\n            merkleRoot = newRoot;\r\n            return true;\r\n    }\r\n\r\n\r\n\r\n}\r\n",
  "sourcePath": "C:\\Users\\simon\\Desktop\\Tesi\\Tesi_Magistrale\\TokenGanache\\contracts\\MerkleTree.sol",
  "compiler": {
    "name": "solc",
    "version": "0.8.20+commit.a1b79de6.Emscripten.clang"
  },
  "schemaVersion": "3.4.16",
  "updatedAt": "2024-04-06T14:53:14.821Z",
  "networkType": "ethereum",
  "devdoc": {
    "kind": "dev",
    "methods": {},
    "version": 1
  },
  "userdoc": {
    "kind": "user",
    "methods": {},
    "version": 1
  }
}