{
  "contractName": "MyToken",
  "abi": [
    {
      "inputs": [],
      "stateMutability": "nonpayable",
      "type": "constructor"
    },
    {
      "inputs": [
        {
          "internalType": "address",
          "name": "sender",
          "type": "address"
        },
        {
          "internalType": "uint256",
          "name": "balance",
          "type": "uint256"
        },
        {
          "internalType": "uint256",
          "name": "needed",
          "type": "uint256"
        },
        {
          "internalType": "uint256",
          "name": "tokenId",
          "type": "uint256"
        }
      ],
      "name": "ERC1155InsufficientBalance",
      "type": "error"
    },
    {
      "inputs": [
        {
          "internalType": "address",
          "name": "approver",
          "type": "address"
        }
      ],
      "name": "ERC1155InvalidApprover",
      "type": "error"
    },
    {
      "inputs": [
        {
          "internalType": "uint256",
          "name": "idsLength",
          "type": "uint256"
        },
        {
          "internalType": "uint256",
          "name": "valuesLength",
          "type": "uint256"
        }
      ],
      "name": "ERC1155InvalidArrayLength",
      "type": "error"
    },
    {
      "inputs": [
        {
          "internalType": "address",
          "name": "operator",
          "type": "address"
        }
      ],
      "name": "ERC1155InvalidOperator",
      "type": "error"
    },
    {
      "inputs": [
        {
          "internalType": "address",
          "name": "receiver",
          "type": "address"
        }
      ],
      "name": "ERC1155InvalidReceiver",
      "type": "error"
    },
    {
      "inputs": [
        {
          "internalType": "address",
          "name": "sender",
          "type": "address"
        }
      ],
      "name": "ERC1155InvalidSender",
      "type": "error"
    },
    {
      "inputs": [
        {
          "internalType": "address",
          "name": "operator",
          "type": "address"
        },
        {
          "internalType": "address",
          "name": "owner",
          "type": "address"
        }
      ],
      "name": "ERC1155MissingApprovalForAll",
      "type": "error"
    },
    {
      "inputs": [
        {
          "internalType": "address",
          "name": "owner",
          "type": "address"
        }
      ],
      "name": "OwnableInvalidOwner",
      "type": "error"
    },
    {
      "inputs": [
        {
          "internalType": "address",
          "name": "account",
          "type": "address"
        }
      ],
      "name": "OwnableUnauthorizedAccount",
      "type": "error"
    },
    {
      "anonymous": false,
      "inputs": [
        {
          "indexed": true,
          "internalType": "address",
          "name": "account",
          "type": "address"
        },
        {
          "indexed": true,
          "internalType": "address",
          "name": "operator",
          "type": "address"
        },
        {
          "indexed": false,
          "internalType": "bool",
          "name": "approved",
          "type": "bool"
        }
      ],
      "name": "ApprovalForAll",
      "type": "event"
    },
    {
      "anonymous": false,
      "inputs": [
        {
          "indexed": true,
          "internalType": "address",
          "name": "previousOwner",
          "type": "address"
        },
        {
          "indexed": true,
          "internalType": "address",
          "name": "newOwner",
          "type": "address"
        }
      ],
      "name": "OwnershipTransferred",
      "type": "event"
    },
    {
      "anonymous": false,
      "inputs": [
        {
          "indexed": false,
          "internalType": "uint256",
          "name": "tokenId",
          "type": "uint256"
        },
        {
          "indexed": false,
          "internalType": "enum MyToken.RoleType",
          "name": "role",
          "type": "uint8"
        }
      ],
      "name": "TokenMinted",
      "type": "event"
    },
    {
      "anonymous": false,
      "inputs": [
        {
          "indexed": true,
          "internalType": "address",
          "name": "operator",
          "type": "address"
        },
        {
          "indexed": true,
          "internalType": "address",
          "name": "from",
          "type": "address"
        },
        {
          "indexed": true,
          "internalType": "address",
          "name": "to",
          "type": "address"
        },
        {
          "indexed": false,
          "internalType": "uint256[]",
          "name": "ids",
          "type": "uint256[]"
        },
        {
          "indexed": false,
          "internalType": "uint256[]",
          "name": "values",
          "type": "uint256[]"
        }
      ],
      "name": "TransferBatch",
      "type": "event"
    },
    {
      "anonymous": false,
      "inputs": [
        {
          "indexed": true,
          "internalType": "address",
          "name": "operator",
          "type": "address"
        },
        {
          "indexed": true,
          "internalType": "address",
          "name": "from",
          "type": "address"
        },
        {
          "indexed": true,
          "internalType": "address",
          "name": "to",
          "type": "address"
        },
        {
          "indexed": false,
          "internalType": "uint256",
          "name": "id",
          "type": "uint256"
        },
        {
          "indexed": false,
          "internalType": "uint256",
          "name": "value",
          "type": "uint256"
        }
      ],
      "name": "TransferSingle",
      "type": "event"
    },
    {
      "anonymous": false,
      "inputs": [
        {
          "indexed": false,
          "internalType": "string",
          "name": "value",
          "type": "string"
        },
        {
          "indexed": true,
          "internalType": "uint256",
          "name": "id",
          "type": "uint256"
        }
      ],
      "name": "URI",
      "type": "event"
    },
    {
      "inputs": [
        {
          "internalType": "address",
          "name": "account",
          "type": "address"
        },
        {
          "internalType": "uint256",
          "name": "id",
          "type": "uint256"
        }
      ],
      "name": "balanceOf",
      "outputs": [
        {
          "internalType": "uint256",
          "name": "",
          "type": "uint256"
        }
      ],
      "stateMutability": "view",
      "type": "function",
      "constant": true
    },
    {
      "inputs": [
        {
          "internalType": "address[]",
          "name": "accounts",
          "type": "address[]"
        },
        {
          "internalType": "uint256[]",
          "name": "ids",
          "type": "uint256[]"
        }
      ],
      "name": "balanceOfBatch",
      "outputs": [
        {
          "internalType": "uint256[]",
          "name": "",
          "type": "uint256[]"
        }
      ],
      "stateMutability": "view",
      "type": "function",
      "constant": true
    },
    {
      "inputs": [
        {
          "internalType": "uint256",
          "name": "",
          "type": "uint256"
        }
      ],
      "name": "emrHashes",
      "outputs": [
        {
          "internalType": "bytes32",
          "name": "hash",
          "type": "bytes32"
        },
        {
          "internalType": "uint256",
          "name": "lastUpdated",
          "type": "uint256"
        }
      ],
      "stateMutability": "view",
      "type": "function",
      "constant": true
    },
    {
      "inputs": [
        {
          "internalType": "address",
          "name": "account",
          "type": "address"
        },
        {
          "internalType": "address",
          "name": "operator",
          "type": "address"
        }
      ],
      "name": "isApprovedForAll",
      "outputs": [
        {
          "internalType": "bool",
          "name": "",
          "type": "bool"
        }
      ],
      "stateMutability": "view",
      "type": "function",
      "constant": true
    },
    {
      "inputs": [],
      "name": "owner",
      "outputs": [
        {
          "internalType": "address",
          "name": "",
          "type": "address"
        }
      ],
      "stateMutability": "view",
      "type": "function",
      "constant": true
    },
    {
      "inputs": [],
      "name": "renounceOwnership",
      "outputs": [],
      "stateMutability": "nonpayable",
      "type": "function"
    },
    {
      "inputs": [
        {
          "internalType": "address",
          "name": "from",
          "type": "address"
        },
        {
          "internalType": "address",
          "name": "to",
          "type": "address"
        },
        {
          "internalType": "uint256[]",
          "name": "ids",
          "type": "uint256[]"
        },
        {
          "internalType": "uint256[]",
          "name": "values",
          "type": "uint256[]"
        },
        {
          "internalType": "bytes",
          "name": "data",
          "type": "bytes"
        }
      ],
      "name": "safeBatchTransferFrom",
      "outputs": [],
      "stateMutability": "nonpayable",
      "type": "function"
    },
    {
      "inputs": [
        {
          "internalType": "address",
          "name": "from",
          "type": "address"
        },
        {
          "internalType": "address",
          "name": "to",
          "type": "address"
        },
        {
          "internalType": "uint256",
          "name": "id",
          "type": "uint256"
        },
        {
          "internalType": "uint256",
          "name": "value",
          "type": "uint256"
        },
        {
          "internalType": "bytes",
          "name": "data",
          "type": "bytes"
        }
      ],
      "name": "safeTransferFrom",
      "outputs": [],
      "stateMutability": "nonpayable",
      "type": "function"
    },
    {
      "inputs": [
        {
          "internalType": "address",
          "name": "operator",
          "type": "address"
        },
        {
          "internalType": "bool",
          "name": "approved",
          "type": "bool"
        }
      ],
      "name": "setApprovalForAll",
      "outputs": [],
      "stateMutability": "nonpayable",
      "type": "function"
    },
    {
      "inputs": [
        {
          "internalType": "bytes4",
          "name": "interfaceId",
          "type": "bytes4"
        }
      ],
      "name": "supportsInterface",
      "outputs": [
        {
          "internalType": "bool",
          "name": "",
          "type": "bool"
        }
      ],
      "stateMutability": "view",
      "type": "function",
      "constant": true
    },
    {
      "inputs": [
        {
          "internalType": "uint256",
          "name": "",
          "type": "uint256"
        },
        {
          "internalType": "uint256",
          "name": "",
          "type": "uint256"
        }
      ],
      "name": "tokenAttributes",
      "outputs": [
        {
          "internalType": "string",
          "name": "key",
          "type": "string"
        },
        {
          "internalType": "string",
          "name": "value",
          "type": "string"
        },
        {
          "internalType": "bytes",
          "name": "permissions",
          "type": "bytes"
        }
      ],
      "stateMutability": "view",
      "type": "function",
      "constant": true
    },
    {
      "inputs": [
        {
          "internalType": "uint256",
          "name": "",
          "type": "uint256"
        },
        {
          "internalType": "uint256",
          "name": "",
          "type": "uint256"
        }
      ],
      "name": "tokenHospitalAccessRights",
      "outputs": [
        {
          "internalType": "uint256",
          "name": "hospitalId",
          "type": "uint256"
        },
        {
          "internalType": "bytes",
          "name": "accessRights",
          "type": "bytes"
        }
      ],
      "stateMutability": "view",
      "type": "function",
      "constant": true
    },
    {
      "inputs": [
        {
          "internalType": "uint256",
          "name": "",
          "type": "uint256"
        }
      ],
      "name": "tokenPersonalData",
      "outputs": [
        {
          "internalType": "string",
          "name": "name",
          "type": "string"
        },
        {
          "internalType": "string",
          "name": "surname",
          "type": "string"
        },
        {
          "internalType": "uint256",
          "name": "age",
          "type": "uint256"
        }
      ],
      "stateMutability": "view",
      "type": "function",
      "constant": true
    },
    {
      "inputs": [
        {
          "internalType": "uint256",
          "name": "",
          "type": "uint256"
        }
      ],
      "name": "tokenRoles",
      "outputs": [
        {
          "internalType": "enum MyToken.RoleType",
          "name": "",
          "type": "uint8"
        }
      ],
      "stateMutability": "view",
      "type": "function",
      "constant": true
    },
    {
      "inputs": [
        {
          "internalType": "address",
          "name": "newOwner",
          "type": "address"
        }
      ],
      "name": "transferOwnership",
      "outputs": [],
      "stateMutability": "nonpayable",
      "type": "function"
    },
    {
      "inputs": [
        {
          "internalType": "address",
          "name": "account",
          "type": "address"
        },
        {
          "internalType": "string",
          "name": "name",
          "type": "string"
        },
        {
          "internalType": "string",
          "name": "surname",
          "type": "string"
        },
        {
          "internalType": "uint256",
          "name": "age",
          "type": "uint256"
        }
      ],
      "name": "mintDoctor",
      "outputs": [],
      "stateMutability": "nonpayable",
      "type": "function"
    },
    {
      "inputs": [
        {
          "internalType": "address",
          "name": "account",
          "type": "address"
        },
        {
          "internalType": "string",
          "name": "name",
          "type": "string"
        },
        {
          "internalType": "string",
          "name": "surname",
          "type": "string"
        },
        {
          "internalType": "uint256",
          "name": "age",
          "type": "uint256"
        }
      ],
      "name": "mintAssistant",
      "outputs": [],
      "stateMutability": "nonpayable",
      "type": "function"
    },
    {
      "inputs": [
        {
          "internalType": "address",
          "name": "account",
          "type": "address"
        },
        {
          "internalType": "string",
          "name": "name",
          "type": "string"
        },
        {
          "internalType": "string",
          "name": "surname",
          "type": "string"
        },
        {
          "internalType": "uint256",
          "name": "age",
          "type": "uint256"
        }
      ],
      "name": "mintPatient",
      "outputs": [],
      "stateMutability": "nonpayable",
      "type": "function"
    },
    {
      "inputs": [
        {
          "internalType": "uint256",
          "name": "tokenId",
          "type": "uint256"
        },
        {
          "internalType": "string",
          "name": "key",
          "type": "string"
        },
        {
          "internalType": "string",
          "name": "value",
          "type": "string"
        },
        {
          "internalType": "bytes",
          "name": "permissions",
          "type": "bytes"
        }
      ],
      "name": "addAttribute",
      "outputs": [],
      "stateMutability": "nonpayable",
      "type": "function"
    },
    {
      "inputs": [
        {
          "internalType": "uint256",
          "name": "tokenId",
          "type": "uint256"
        },
        {
          "internalType": "uint256",
          "name": "attributeIndex",
          "type": "uint256"
        },
        {
          "internalType": "string",
          "name": "key",
          "type": "string"
        },
        {
          "internalType": "string",
          "name": "value",
          "type": "string"
        }
      ],
      "name": "updateAttribute",
      "outputs": [],
      "stateMutability": "nonpayable",
      "type": "function"
    },
    {
      "inputs": [
        {
          "internalType": "uint256",
          "name": "tokenId",
          "type": "uint256"
        },
        {
          "internalType": "uint256",
          "name": "attributeIndex",
          "type": "uint256"
        }
      ],
      "name": "removeAttribute",
      "outputs": [],
      "stateMutability": "nonpayable",
      "type": "function"
    },
    {
      "inputs": [
        {
          "internalType": "uint256",
          "name": "tokenId",
          "type": "uint256"
        },
        {
          "internalType": "uint256",
          "name": "hospitalId",
          "type": "uint256"
        },
        {
          "internalType": "bytes",
          "name": "accessRights",
          "type": "bytes"
        }
      ],
      "name": "setHospitalAccess",
      "outputs": [],
      "stateMutability": "nonpayable",
      "type": "function"
    },
    {
      "inputs": [
        {
          "internalType": "uint256",
          "name": "tokenId",
          "type": "uint256"
        },
        {
          "internalType": "uint8",
          "name": "permission",
          "type": "uint8"
        }
      ],
      "name": "hasPermission",
      "outputs": [
        {
          "internalType": "bool",
          "name": "",
          "type": "bool"
        }
      ],
      "stateMutability": "view",
      "type": "function",
      "constant": true
    },
    {
      "inputs": [
        {
          "internalType": "uint256",
          "name": "tokenId",
          "type": "uint256"
        }
      ],
      "name": "getRoleType",
      "outputs": [
        {
          "internalType": "enum MyToken.RoleType",
          "name": "",
          "type": "uint8"
        }
      ],
      "stateMutability": "view",
      "type": "function",
      "constant": true
    },
    {
      "inputs": [
        {
          "internalType": "uint256",
          "name": "tokenId",
          "type": "uint256"
        },
        {
          "internalType": "bytes32",
          "name": "newHash",
          "type": "bytes32"
        }
      ],
      "name": "updateEMRHash",
      "outputs": [],
      "stateMutability": "nonpayable",
      "type": "function"
    },
    {
      "inputs": [
        {
          "internalType": "uint256",
          "name": "tokenId",
          "type": "uint256"
        },
        {
          "internalType": "string",
          "name": "name",
          "type": "string"
        },
        {
          "internalType": "string",
          "name": "surname",
          "type": "string"
        },
        {
          "internalType": "uint256",
          "name": "age",
          "type": "uint256"
        }
      ],
      "name": "updatePersonalData",
      "outputs": [],
      "stateMutability": "nonpayable",
      "type": "function"
    },
    {
      "inputs": [
        {
          "internalType": "uint256",
          "name": "tokenId",
          "type": "uint256"
        }
      ],
      "name": "uri",
      "outputs": [
        {
          "internalType": "string",
          "name": "",
          "type": "string"
        }
      ],
      "stateMutability": "view",
      "type": "function",
      "constant": true
    }
  ],
  "bytecode": "0x608060405260006009556000600a556000600b556000600c553480156200002557600080fd5b507312b405f1a1a4a11479e670e0af39312e771ff38f6040518060800160405280605a81526020016200541e605a91396200006f8162000106640100000000026401000000009004565b50600073ffffffffffffffffffffffffffffffffffffffff168173ffffffffffffffffffffffffffffffffffffffff1603620000e55760006040517f1e4fbdf7000000000000000000000000000000000000000000000000000000008152600401620000dc919062000226565b60405180910390fd5b620000ff816200011b640100000000026401000000009004565b50620005aa565b8060029081620001179190620004c3565b5050565b6000600360009054906101000a900473ffffffffffffffffffffffffffffffffffffffff16905081600360006101000a81548173ffffffffffffffffffffffffffffffffffffffff021916908373ffffffffffffffffffffffffffffffffffffffff1602179055508173ffffffffffffffffffffffffffffffffffffffff168173ffffffffffffffffffffffffffffffffffffffff167f8be0079c531659141344cd1fd0a4f28419497f9722a3daafe3b4186f6b6457e060405160405180910390a35050565b600073ffffffffffffffffffffffffffffffffffffffff82169050919050565b60006200020e82620001e1565b9050919050565b620002208162000201565b82525050565b60006020820190506200023d600083018462000215565b92915050565b600081519050919050565b7f4e487b7100000000000000000000000000000000000000000000000000000000600052604160045260246000fd5b7f4e487b7100000000000000000000000000000000000000000000000000000000600052602260045260246000fd5b60006002820490506001821680620002c557607f821691505b602082108103620002db57620002da6200027d565b5b50919050565b60008190508160005260206000209050919050565b60006020601f8301049050919050565b60008160020a8302905092915050565b600060088302620003487fffffffffffffffffffffffffffffffffffffffffffffffffffffffffffffffff8262000306565b62000354868362000306565b95508019841693508086168417925050509392505050565b6000819050919050565b6000819050919050565b6000620003a16200039b62000395846200036c565b62000376565b6200036c565b9050919050565b6000819050919050565b620003bd8362000380565b620003d5620003cc82620003a8565b84845462000316565b825550505050565b600090565b620003ec620003dd565b620003f9818484620003b2565b505050565b5b81811015620004215762000415600082620003e2565b600181019050620003ff565b5050565b601f82111562000470576200043a81620002e1565b6200044584620002f6565b8101602085101562000455578190505b6200046d6200046485620002f6565b830182620003fe565b50505b505050565b60008160020a8304905092915050565b6000620004986000198460080262000475565b1980831691505092915050565b6000620004b3838362000485565b9150826002028217905092915050565b620004ce8262000243565b67ffffffffffffffff811115620004ea57620004e96200024e565b5b620004f68254620002ac565b6200050382828562000425565b600060209050601f8311600181146200053b576000841562000526578287015190505b620005328582620004a5565b865550620005a2565b601f1984166200054b86620002e1565b60005b8281101562000575578489015182556001820191506020850194506020810190506200054e565b8683101562000595578489015162000591601f89168262000485565b8355505b6001600288020188555050505b505050505050565b614e6480620005ba6000396000f3fe608060405234801561001057600080fd5b50600436106101c4576000357c010000000000000000000000000000000000000000000000000000000090048063715018a611610116578063c0f2ca9b116100b4578063e7e506731161008e578063e7e506731461050b578063e985e9c51461053b578063f242432a1461056b578063f2fde38b14610587576101c4565b8063c0f2ca9b1461048d578063ceb0d747146104bf578063d6672b67146104ef576101c4565b8063903e206f116100f0578063903e206f146103f457806399e29cf314610424578063a22cb46514610440578063b6b24f9f1461045c576101c4565b8063715018a6146103b05780638702e403146103ba5780638da5cb5b146103d6576101c4565b80632eb2c2d61161018357806335e2a51f1161015d57806335e2a51f146103175780634240de59146103335780634e1273f41461036457806364d54af514610394576101c4565b80632eb2c2d6146102c35780633072aea7146102df5780633391a150146102fb576101c4565b806206f074146101c9578062fdd58e146101fb57806301ffc9a71461022b578063038805781461025b5780630e89341c146102775780631cf18667146102a7575b600080fd5b6101e360048036038101906101de9190612ead565b6105a3565b6040516101f293929190612fd2565b60405180910390f35b6102156004803603810190610210919061307c565b610782565b60405161022291906130cb565b60405180910390f35b6102456004803603810190610240919061313e565b6107dc565b6040516102529190613186565b60405180910390f35b61027560048036038101906102709190612ead565b6108be565b005b610291600480360381019061028c91906131a1565b610a28565b60405161029e91906131ce565b60405180910390f35b6102c160048036038101906102bc9190613226565b610b5b565b005b6102dd60048036038101906102d89190613463565b610ca0565b005b6102f960048036038101906102f491906135d3565b610d48565b005b61031560048036038101906103109190613672565b610e0a565b005b610331600480360381019061032c9190613711565b610f00565b005b61034d600480360381019061034891906131a1565b610fa9565b60405161035b9291906137db565b60405180910390f35b61037e600480360381019061037991906138c7565b610fcd565b60405161038b91906139fd565b60405180910390f35b6103ae60048036038101906103a99190613672565b6110dc565b005b6103b86111d2565b005b6103d460048036038101906103cf9190613a1f565b6111e6565b005b6103de61132d565b6040516103eb9190613a9d565b60405180910390f35b61040e600480360381019061040991906131a1565b611357565b60405161041b9190613b2f565b60405180910390f35b61043e60048036038101906104399190613b4a565b61146a565b005b61045a60048036038101906104559190613c15565b61154c565b005b61047660048036038101906104719190612ead565b611562565b604051610484929190613c55565b60405180910390f35b6104a760048036038101906104a291906131a1565b61162b565b6040516104b693929190613c85565b60405180910390f35b6104d960048036038101906104d49190613d03565b611765565b6040516104e69190613186565b60405180910390f35b61050960048036038101906105049190613672565b6118bc565b005b610525600480360381019061052091906131a1565b6119ee565b6040516105329190613b2f565b60405180910390f35b61055560048036038101906105509190613d43565b611a0e565b6040516105629190613186565b60405180910390f35b61058560048036038101906105809190613d83565b611aa2565b005b6105a1600480360381019061059c9190613e1a565b611b4a565b005b600660205281600052604060002081815481106105bf57600080fd5b9060005260206000209060030201600091509150508060000180546105e390613e76565b80601f016020809104026020016040519081016040528092919081815260200182805461060f90613e76565b801561065c5780601f106106315761010080835404028352916020019161065c565b820191906000526020600020905b81548152906001019060200180831161063f57829003601f168201915b50505050509080600101805461067190613e76565b80601f016020809104026020016040519081016040528092919081815260200182805461069d90613e76565b80156106ea5780601f106106bf576101008083540402835291602001916106ea565b820191906000526020600020905b8154815290600101906020018083116106cd57829003601f168201915b5050505050908060020180546106ff90613e76565b80601f016020809104026020016040519081016040528092919081815260200182805461072b90613e76565b80156107785780601f1061074d57610100808354040283529160200191610778565b820191906000526020600020905b81548152906001019060200180831161075b57829003601f168201915b5050505050905083565b600080600083815260200190815260200160002060008473ffffffffffffffffffffffffffffffffffffffff1673ffffffffffffffffffffffffffffffffffffffff16815260200190815260200160002054905092915050565b60007fd9b67a26000000000000000000000000000000000000000000000000000000007bffffffffffffffffffffffffffffffffffffffffffffffffffffffff1916827bffffffffffffffffffffffffffffffffffffffffffffffffffffffff191614806108a757507f0e89341c000000000000000000000000000000000000000000000000000000007bffffffffffffffffffffffffffffffffffffffffffffffffffffffff1916827bffffffffffffffffffffffffffffffffffffffffffffffffffffffff1916145b806108b757506108b682611bd0565b5b9050919050565b6108c6611c3a565b6006600083815260200190815260200160002080549050811061091e576040517f08c379a000000000000000000000000000000000000000000000000000000000815260040161091590613ef3565b60405180910390fd5b600060066000848152602001908152602001600020905080600182805490506109479190613f42565b8154811061095857610957613f76565b5b906000526020600020906003020181838154811061097957610978613f76565b5b90600052602060002090600302016000820181600001908161099b919061416d565b50600182018160010190816109b0919061416d565b50600282018160020190816109c591906142c6565b50905050808054806109da576109d96143ae565b5b6001900381819060005260206000209060030201600080820160006109ff9190612dc6565b600182016000610a0f9190612dc6565b600282016000610a1f9190612e06565b50509055505050565b606060006005600084815260200190815260200160002090506000818054905011610a88576040517f08c379a0000000000000000000000000000000000000000000000000000000008152600401610a7f90614429565b60405180910390fd5b6000610a9384611cc1565b9050606060005b8380549050811015610b2e5781610ad4858381548110610abd57610abc613f76565b5b906000526020600020906002020160000154611d55565b858381548110610ae757610ae6613f76565b5b9060005260206000209060020201600101604051602001610b0a939291906145f7565b60405160208183030381529060405291508080610b2690614649565b915050610a9a565b508181604051602001610b429291906146dd565b6040516020818303038152906040529350505050919050565b6000600560008481526020019081526020016000208054905011610bb4576040517f08c379a0000000000000000000000000000000000000000000000000000000008152600401610bab9061477e565b60405180910390fd5b610bbf826008611765565b610bfe576040517f08c379a0000000000000000000000000000000000000000000000000000000008152600401610bf590614810565b60405180910390fd5b6000610c0983611357565b9050600380811115610c1e57610c1d613ab8565b5b816003811115610c3157610c30613ab8565b5b14610c71576040517f08c379a0000000000000000000000000000000000000000000000000000000008152600401610c68906148a2565b60405180910390fd5b600060076000858152602001908152602001600020905082816000018190555042816001018190555050505050565b6000610caa611e23565b90508073ffffffffffffffffffffffffffffffffffffffff168673ffffffffffffffffffffffffffffffffffffffff1614158015610cef5750610ced8682611a0e565b155b15610d335780866040517fe237d922000000000000000000000000000000000000000000000000000000008152600401610d2a9291906148c2565b60405180910390fd5b610d408686868686611e2b565b505050505050565b610d50611c3a565b60066000858152602001908152602001600020805490508310610da8576040517f08c379a0000000000000000000000000000000000000000000000000000000008152600401610d9f90613ef3565b60405180910390fd5b6000600660008681526020019081526020016000208481548110610dcf57610dce613f76565b5b9060005260206000209060030201905082816000019081610df091906148eb565b5081816001019081610e0291906148eb565b505050505050565b610e12611c3a565b600c6000815480929190610e2590614649565b9190505550610e4884600c54600160405180602001604052806000815250611f23565b600360046000600c54815260200190815260200160002060006101000a81548160ff02191690836003811115610e8157610e80613ab8565b5b021790555060405180606001604052808481526020018381526020018281525060086000600c5481526020019081526020016000206000820151816000019081610ecb91906148eb565b506020820151816001019081610ee191906148eb565b5060408201518160020155905050610efa600c54611fbc565b50505050565b610f08611c3a565b6006600085815260200190815260200160002060405180606001604052808581526020018481526020018381525090806001815401808255809150506001900390600052602060002090600302016000909190919091506000820151816000019081610f7491906148eb565b506020820151816001019081610f8a91906148eb565b506040820151816002019081610fa091906149bd565b50505050505050565b60076020528060005260406000206000915090508060000154908060010154905082565b6060815183511461101957815183516040517f5b059991000000000000000000000000000000000000000000000000000000008152600401611010929190614a8f565b60405180910390fd5b6000835167ffffffffffffffff8111156110365761103561326b565b5b6040519080825280602002602001820160405280156110645781602001602082028036833780820191505090505b50905060005b84518110156110d1576110a161108982876120a290919063ffffffff16565b61109c83876120b690919063ffffffff16565b610782565b8282815181106110b4576110b3613f76565b5b602002602001018181525050806110ca90614649565b905061106a565b508091505092915050565b6110e4611c3a565b600c60008154809291906110f790614649565b919050555061111a84600c54600160405180602001604052806000815250611f23565b600260046000600c54815260200190815260200160002060006101000a81548160ff0219169083600381111561115357611152613ab8565b5b021790555060405180606001604052808481526020018381526020018281525060086000600c548152602001908152602001600020600082015181600001908161119d91906148eb565b5060208201518160010190816111b391906148eb565b50604082015181600201559050506111cc600c54611fbc565b50505050565b6111da611c3a565b6111e460006120ca565b565b6111ee611c3a565b6000805b60056000868152602001908152602001600020805490508110156112ad578360056000878152602001908152602001600020828154811061123657611235613f76565b5b9060005260206000209060020201600001540361129a578260056000878152602001908152602001600020828154811061127357611272613f76565b5b9060005260206000209060020201600101908161129091906149bd565b50600191506112ad565b80806112a590614649565b9150506111f2565b50806113275760056000858152602001908152602001600020604051806040016040528085815260200184815250908060018154018082558091505060019003906000526020600020906002020160009091909190915060008201518160000155602082015181600101908161132391906149bd565b5050505b50505050565b6000600360009054906101000a900473ffffffffffffffffffffffffffffffffffffffff16905090565b6000808211801561136a5750600c548211155b6113a9576040517f08c379a00000000000000000000000000000000000000000000000000000000081526004016113a090614b04565b60405180910390fd5b600060038111156113bd576113bc613ab8565b5b60038111156113cf576113ce613ab8565b5b6004600084815260200190815260200160002060009054906101000a900460ff16600381111561140257611401613ab8565b5b03611442576040517f08c379a000000000000000000000000000000000000000000000000000000000815260040161143990614b70565b60405180910390fd5b6004600083815260200190815260200160002060009054906101000a900460ff169050919050565b61147261132d565b73ffffffffffffffffffffffffffffffffffffffff163373ffffffffffffffffffffffffffffffffffffffff16146114df576040517f08c379a00000000000000000000000000000000000000000000000000000000081526004016114d690614c02565b60405180910390fd5b60405180606001604052808481526020018381526020018281525060086000868152602001908152602001600020600082015181600001908161152291906148eb565b50602082015181600101908161153891906148eb565b506040820151816002015590505050505050565b61155e611557611e23565b8383612190565b5050565b6005602052816000526040600020818154811061157e57600080fd5b9060005260206000209060020201600091509150508060000154908060010180546115a890613e76565b80601f01602080910402602001604051908101604052809291908181526020018280546115d490613e76565b80156116215780601f106115f657610100808354040283529160200191611621565b820191906000526020600020905b81548152906001019060200180831161160457829003601f168201915b5050505050905082565b600860205280600052604060002060009150905080600001805461164e90613e76565b80601f016020809104026020016040519081016040528092919081815260200182805461167a90613e76565b80156116c75780601f1061169c576101008083540402835291602001916116c7565b820191906000526020600020905b8154815290600101906020018083116116aa57829003601f168201915b5050505050908060010180546116dc90613e76565b80601f016020809104026020016040519081016040528092919081815260200182805461170890613e76565b80156117555780601f1061172a57610100808354040283529160200191611755565b820191906000526020600020905b81548152906001019060200180831161173857829003601f168201915b5050505050908060020154905083565b60008060066000858152602001908152602001600020905060005b81805490508110156118af5760005b8282815481106117a2576117a1613f76565b5b906000526020600020906003020160020180546117be90613e76565b905081101561189b578460ff16858484815481106117df576117de613f76565b5b90600052602060002090600302016002018381546117fc90613e76565b811061180b5761180a613f76565b5b81546001161561182a5790600052602060002090602091828204019190065b9054901a7f0100000000000000000000000000000000000000000000000000000000000000027f010000000000000000000000000000000000000000000000000000000000000090041660ff160361188857600193505050506118b6565b808061189390614649565b91505061178f565b5080806118a790614649565b915050611780565b5060009150505b92915050565b6118c4611c3a565b600c60008154809291906118d790614649565b91905055506118fa84600c54600160405180602001604052806000815250611f23565b600160046000600c54815260200190815260200160002060006101000a81548160ff0219169083600381111561193357611932613ab8565b5b021790555060405180606001604052808481526020018381526020018281525060086000600c548152602001908152602001600020600082015181600001908161197d91906148eb565b50602082015181600101908161199391906148eb565b50604082015181600201559050506119ac600c54611fbc565b7f414bf8128f67ff432c1f7eecb52e0f0835369dff048687fb1c0867a5859cf4e9600c5460016040516119e0929190614c22565b60405180910390a150505050565b60046020528060005260406000206000915054906101000a900460ff1681565b6000600160008473ffffffffffffffffffffffffffffffffffffffff1673ffffffffffffffffffffffffffffffffffffffff16815260200190815260200160002060008373ffffffffffffffffffffffffffffffffffffffff1673ffffffffffffffffffffffffffffffffffffffff16815260200190815260200160002060009054906101000a900460ff16905092915050565b6000611aac611e23565b90508073ffffffffffffffffffffffffffffffffffffffff168673ffffffffffffffffffffffffffffffffffffffff1614158015611af15750611aef8682611a0e565b155b15611b355780866040517fe237d922000000000000000000000000000000000000000000000000000000008152600401611b2c9291906148c2565b60405180910390fd5b611b428686868686612300565b505050505050565b611b52611c3a565b600073ffffffffffffffffffffffffffffffffffffffff168173ffffffffffffffffffffffffffffffffffffffff1603611bc45760006040517f1e4fbdf7000000000000000000000000000000000000000000000000000000008152600401611bbb9190613a9d565b60405180910390fd5b611bcd816120ca565b50565b60007f01ffc9a7000000000000000000000000000000000000000000000000000000007bffffffffffffffffffffffffffffffffffffffffffffffffffffffff1916827bffffffffffffffffffffffffffffffffffffffffffffffffffffffff1916149050919050565b611c42611e23565b73ffffffffffffffffffffffffffffffffffffffff16611c6061132d565b73ffffffffffffffffffffffffffffffffffffffff1614611cbf57611c83611e23565b6040517f118cdaa7000000000000000000000000000000000000000000000000000000008152600401611cb69190613a9d565b60405180910390fd5b565b606060028054611cd090613e76565b80601f0160208091040260200160405190810160405280929190818152602001828054611cfc90613e76565b8015611d495780601f10611d1e57610100808354040283529160200191611d49565b820191906000526020600020905b815481529060010190602001808311611d2c57829003601f168201915b50505050509050919050565b606060006001611d648461240b565b01905060008167ffffffffffffffff811115611d8357611d8261326b565b5b6040519080825280601f01601f191660200182016040528015611db55781602001600182028036833780820191505090505b509050600082602001820190505b600115611e18578080600190039150507f3031323334353637383961626364656600000000000000000000000000000000600a86061a8153600a8581611e0c57611e0b614c4b565b5b04945060008503611dc3575b819350505050919050565b600033905090565b600073ffffffffffffffffffffffffffffffffffffffff168473ffffffffffffffffffffffffffffffffffffffff1603611e9d5760006040517f57f447ce000000000000000000000000000000000000000000000000000000008152600401611e949190613a9d565b60405180910390fd5b600073ffffffffffffffffffffffffffffffffffffffff168573ffffffffffffffffffffffffffffffffffffffff1603611f0f5760006040517f01a83514000000000000000000000000000000000000000000000000000000008152600401611f069190613a9d565b60405180910390fd5b611f1c858585858561255e565b5050505050565b600073ffffffffffffffffffffffffffffffffffffffff168473ffffffffffffffffffffffffffffffffffffffff1603611f955760006040517f57f447ce000000000000000000000000000000000000000000000000000000008152600401611f8c9190613a9d565b60405180910390fd5b600080611fa28585612610565b91509150611fb460008784848761255e565b505050505050565b6000600190505b6004811161209e57600560008381526020019081526020016000206040518060400160405280838152602001600067ffffffffffffffff81111561200a5761200961326b565b5b6040519080825280601f01601f19166020018201604052801561203c5781602001600182028036833780820191505090505b50815250908060018154018082558091505060019003906000526020600020906002020160009091909190915060008201518160000155602082015181600101908161208891906149bd565b505050808061209690614649565b915050611fc3565b5050565b600060208202602084010151905092915050565b600060208202602084010151905092915050565b6000600360009054906101000a900473ffffffffffffffffffffffffffffffffffffffff16905081600360006101000a81548173ffffffffffffffffffffffffffffffffffffffff021916908373ffffffffffffffffffffffffffffffffffffffff1602179055508173ffffffffffffffffffffffffffffffffffffffff168173ffffffffffffffffffffffffffffffffffffffff167f8be0079c531659141344cd1fd0a4f28419497f9722a3daafe3b4186f6b6457e060405160405180910390a35050565b600073ffffffffffffffffffffffffffffffffffffffff168273ffffffffffffffffffffffffffffffffffffffff16036122025760006040517fced3e1000000000000000000000000000000000000000000000000000000000081526004016121f99190613a9d565b60405180910390fd5b80600160008573ffffffffffffffffffffffffffffffffffffffff1673ffffffffffffffffffffffffffffffffffffffff16815260200190815260200160002060008473ffffffffffffffffffffffffffffffffffffffff1673ffffffffffffffffffffffffffffffffffffffff16815260200190815260200160002060006101000a81548160ff0219169083151502179055508173ffffffffffffffffffffffffffffffffffffffff168373ffffffffffffffffffffffffffffffffffffffff167f17307eab39ab6107e8899845ad3d59bd9653f200f220920489ca2b5937696c31836040516122f39190613186565b60405180910390a3505050565b600073ffffffffffffffffffffffffffffffffffffffff168473ffffffffffffffffffffffffffffffffffffffff16036123725760006040517f57f447ce0000000000000000000000000000000000000000000000000000000081526004016123699190613a9d565b60405180910390fd5b600073ffffffffffffffffffffffffffffffffffffffff168573ffffffffffffffffffffffffffffffffffffffff16036123e45760006040517f01a835140000000000000000000000000000000000000000000000000000000081526004016123db9190613a9d565b60405180910390fd5b6000806123f18585612610565b91509150612402878784848761255e565b50505050505050565b600080600090507a184f03e93ff9f4daa797ed6e38ed64bf6a1f0100000000000000008310612469577a184f03e93ff9f4daa797ed6e38ed64bf6a1f010000000000000000838161245f5761245e614c4b565b5b0492506040810190505b6d04ee2d6d415b85acef810000000083106124a6576d04ee2d6d415b85acef8100000000838161249c5761249b614c4b565b5b0492506020810190505b662386f26fc1000083106124d557662386f26fc1000083816124cb576124ca614c4b565b5b0492506010810190505b6305f5e10083106124fe576305f5e10083816124f4576124f3614c4b565b5b0492506008810190505b612710831061252357612710838161251957612518614c4b565b5b0492506004810190505b60648310612546576064838161253c5761253b614c4b565b5b0492506002810190505b600a8310612555576001810190505b80915050919050565b61256a85858585612640565b600073ffffffffffffffffffffffffffffffffffffffff168473ffffffffffffffffffffffffffffffffffffffff16146126095760006125a8611e23565b905060018451036125f85760006125c96000866120b690919063ffffffff16565b905060006125e16000866120b690919063ffffffff16565b90506125f18389898585896129ee565b5050612607565b612606818787878787612bda565b5b505b5050505050565b60608060405191506001825283602083015260408201905060018152826020820152604081016040529250929050565b805182511461268a57815181516040517f5b059991000000000000000000000000000000000000000000000000000000008152600401612681929190614a8f565b60405180910390fd5b6000612694611e23565b905060005b83518110156128a95760006126b782866120b690919063ffffffff16565b905060006126ce83866120b690919063ffffffff16565b9050600073ffffffffffffffffffffffffffffffffffffffff168873ffffffffffffffffffffffffffffffffffffffff16146127fb57600080600084815260200190815260200160002060008a73ffffffffffffffffffffffffffffffffffffffff1673ffffffffffffffffffffffffffffffffffffffff168152602001908152602001600020549050818110156127a357888183856040517f03dee4c500000000000000000000000000000000000000000000000000000000815260040161279a9493929190614c7a565b60405180910390fd5b81810360008085815260200190815260200160002060008b73ffffffffffffffffffffffffffffffffffffffff1673ffffffffffffffffffffffffffffffffffffffff16815260200190815260200160002081905550505b600073ffffffffffffffffffffffffffffffffffffffff168773ffffffffffffffffffffffffffffffffffffffff1614612896578060008084815260200190815260200160002060008973ffffffffffffffffffffffffffffffffffffffff1673ffffffffffffffffffffffffffffffffffffffff168152602001908152602001600020600082825461288e9190614cbf565b925050819055505b5050806128a290614649565b9050612699565b5060018351036129685760006128c96000856120b690919063ffffffff16565b905060006128e16000856120b690919063ffffffff16565b90508573ffffffffffffffffffffffffffffffffffffffff168773ffffffffffffffffffffffffffffffffffffffff168473ffffffffffffffffffffffffffffffffffffffff167fc3d58168c5ae7397731d063d5bbf3d657854427343f4c083240f7aacaa2d0f628585604051612959929190614a8f565b60405180910390a450506129e7565b8373ffffffffffffffffffffffffffffffffffffffff168573ffffffffffffffffffffffffffffffffffffffff168273ffffffffffffffffffffffffffffffffffffffff167f4a39dc06d4c0dbc64b70af90fd698a233a518aa5d07e595d983b8c0526c8f7fb86866040516129de929190614cf3565b60405180910390a45b5050505050565b60008473ffffffffffffffffffffffffffffffffffffffff163b1115612bd2578373ffffffffffffffffffffffffffffffffffffffff1663f23a6e6187878686866040518663ffffffff167c0100000000000000000000000000000000000000000000000000000000028152600401612a6b959493929190614d2a565b6020604051808303816000875af1925050508015612aa757506040513d601f19601f82011682018060405250810190612aa49190614d99565b60015b612b2b573d8060008114612ad7576040519150601f19603f3d011682016040523d82523d6000602084013e612adc565b606091505b506000815103612b2357846040517f57f447ce000000000000000000000000000000000000000000000000000000008152600401612b1a9190613a9d565b60405180910390fd5b805181602001fd5b63f23a6e617c0100000000000000000000000000000000000000000000000000000000027bffffffffffffffffffffffffffffffffffffffffffffffffffffffff1916817bffffffffffffffffffffffffffffffffffffffffffffffffffffffff191614612bd057846040517f57f447ce000000000000000000000000000000000000000000000000000000008152600401612bc79190613a9d565b60405180910390fd5b505b505050505050565b60008473ffffffffffffffffffffffffffffffffffffffff163b1115612dbe578373ffffffffffffffffffffffffffffffffffffffff1663bc197c8187878686866040518663ffffffff167c0100000000000000000000000000000000000000000000000000000000028152600401612c57959493929190614dc6565b6020604051808303816000875af1925050508015612c9357506040513d601f19601f82011682018060405250810190612c909190614d99565b60015b612d17573d8060008114612cc3576040519150601f19603f3d011682016040523d82523d6000602084013e612cc8565b606091505b506000815103612d0f57846040517f57f447ce000000000000000000000000000000000000000000000000000000008152600401612d069190613a9d565b60405180910390fd5b805181602001fd5b63bc197c817c0100000000000000000000000000000000000000000000000000000000027bffffffffffffffffffffffffffffffffffffffffffffffffffffffff1916817bffffffffffffffffffffffffffffffffffffffffffffffffffffffff191614612dbc57846040517f57f447ce000000000000000000000000000000000000000000000000000000008152600401612db39190613a9d565b60405180910390fd5b505b505050505050565b508054612dd290613e76565b6000825580601f10612de45750612e03565b601f016020900490600052602060002090810190612e029190612e46565b5b50565b508054612e1290613e76565b6000825580601f10612e245750612e43565b601f016020900490600052602060002090810190612e429190612e46565b5b50565b5b80821115612e5f576000816000905550600101612e47565b5090565b6000604051905090565b600080fd5b600080fd5b6000819050919050565b612e8a81612e77565b8114612e9557600080fd5b50565b600081359050612ea781612e81565b92915050565b60008060408385031215612ec457612ec3612e6d565b5b6000612ed285828601612e98565b9250506020612ee385828601612e98565b9150509250929050565b600081519050919050565b600082825260208201905092915050565b60005b83811015612f27578082015181840152602081019050612f0c565b60008484015250505050565b6000601f19601f8301169050919050565b6000612f4f82612eed565b612f598185612ef8565b9350612f69818560208601612f09565b612f7281612f33565b840191505092915050565b600081519050919050565b600082825260208201905092915050565b6000612fa482612f7d565b612fae8185612f88565b9350612fbe818560208601612f09565b612fc781612f33565b840191505092915050565b60006060820190508181036000830152612fec8186612f44565b905081810360208301526130008185612f44565b905081810360408301526130148184612f99565b9050949350505050565b600073ffffffffffffffffffffffffffffffffffffffff82169050919050565b60006130498261301e565b9050919050565b6130598161303e565b811461306457600080fd5b50565b60008135905061307681613050565b92915050565b6000806040838503121561309357613092612e6d565b5b60006130a185828601613067565b92505060206130b285828601612e98565b9150509250929050565b6130c581612e77565b82525050565b60006020820190506130e060008301846130bc565b92915050565b60007fffffffff0000000000000000000000000000000000000000000000000000000082169050919050565b61311b816130e6565b811461312657600080fd5b50565b60008135905061313881613112565b92915050565b60006020828403121561315457613153612e6d565b5b600061316284828501613129565b91505092915050565b60008115159050919050565b6131808161316b565b82525050565b600060208201905061319b6000830184613177565b92915050565b6000602082840312156131b7576131b6612e6d565b5b60006131c584828501612e98565b91505092915050565b600060208201905081810360008301526131e88184612f44565b905092915050565b6000819050919050565b613203816131f0565b811461320e57600080fd5b50565b600081359050613220816131fa565b92915050565b6000806040838503121561323d5761323c612e6d565b5b600061324b85828601612e98565b925050602061325c85828601613211565b9150509250929050565b600080fd5b7f4e487b7100000000000000000000000000000000000000000000000000000000600052604160045260246000fd5b6132a382612f33565b810181811067ffffffffffffffff821117156132c2576132c161326b565b5b80604052505050565b60006132d5612e63565b90506132e1828261329a565b919050565b600067ffffffffffffffff8211156133015761330061326b565b5b602082029050602081019050919050565b600080fd5b600061332a613325846132e6565b6132cb565b9050808382526020820190506020840283018581111561334d5761334c613312565b5b835b8181101561337657806133628882612e98565b84526020840193505060208101905061334f565b5050509392505050565b600082601f83011261339557613394613266565b5b81356133a5848260208601613317565b91505092915050565b600080fd5b600067ffffffffffffffff8211156133ce576133cd61326b565b5b6133d782612f33565b9050602081019050919050565b82818337600083830152505050565b6000613406613401846133b3565b6132cb565b905082815260208101848484011115613422576134216133ae565b5b61342d8482856133e4565b509392505050565b600082601f83011261344a57613449613266565b5b813561345a8482602086016133f3565b91505092915050565b600080600080600060a0868803121561347f5761347e612e6d565b5b600061348d88828901613067565b955050602061349e88828901613067565b945050604086013567ffffffffffffffff8111156134bf576134be612e72565b5b6134cb88828901613380565b935050606086013567ffffffffffffffff8111156134ec576134eb612e72565b5b6134f888828901613380565b925050608086013567ffffffffffffffff81111561351957613518612e72565b5b61352588828901613435565b9150509295509295909350565b600067ffffffffffffffff82111561354d5761354c61326b565b5b61355682612f33565b9050602081019050919050565b600061357661357184613532565b6132cb565b905082815260208101848484011115613592576135916133ae565b5b61359d8482856133e4565b509392505050565b600082601f8301126135ba576135b9613266565b5b81356135ca848260208601613563565b91505092915050565b600080600080608085870312156135ed576135ec612e6d565b5b60006135fb87828801612e98565b945050602061360c87828801612e98565b935050604085013567ffffffffffffffff81111561362d5761362c612e72565b5b613639878288016135a5565b925050606085013567ffffffffffffffff81111561365a57613659612e72565b5b613666878288016135a5565b91505092959194509250565b6000806000806080858703121561368c5761368b612e6d565b5b600061369a87828801613067565b945050602085013567ffffffffffffffff8111156136bb576136ba612e72565b5b6136c7878288016135a5565b935050604085013567ffffffffffffffff8111156136e8576136e7612e72565b5b6136f4878288016135a5565b925050606061370587828801612e98565b91505092959194509250565b6000806000806080858703121561372b5761372a612e6d565b5b600061373987828801612e98565b945050602085013567ffffffffffffffff81111561375a57613759612e72565b5b613766878288016135a5565b935050604085013567ffffffffffffffff81111561378757613786612e72565b5b613793878288016135a5565b925050606085013567ffffffffffffffff8111156137b4576137b3612e72565b5b6137c087828801613435565b91505092959194509250565b6137d5816131f0565b82525050565b60006040820190506137f060008301856137cc565b6137fd60208301846130bc565b9392505050565b600067ffffffffffffffff82111561381f5761381e61326b565b5b602082029050602081019050919050565b600061384361383e84613804565b6132cb565b9050808382526020820190506020840283018581111561386657613865613312565b5b835b8181101561388f578061387b8882613067565b845260208401935050602081019050613868565b5050509392505050565b600082601f8301126138ae576138ad613266565b5b81356138be848260208601613830565b91505092915050565b600080604083850312156138de576138dd612e6d565b5b600083013567ffffffffffffffff8111156138fc576138fb612e72565b5b61390885828601613899565b925050602083013567ffffffffffffffff81111561392957613928612e72565b5b61393585828601613380565b9150509250929050565b600081519050919050565b600082825260208201905092915050565b6000819050602082019050919050565b61397481612e77565b82525050565b6000613986838361396b565b60208301905092915050565b6000602082019050919050565b60006139aa8261393f565b6139b4818561394a565b93506139bf8361395b565b8060005b838110156139f05781516139d7888261397a565b97506139e283613992565b9250506001810190506139c3565b5085935050505092915050565b60006020820190508181036000830152613a17818461399f565b905092915050565b600080600060608486031215613a3857613a37612e6d565b5b6000613a4686828701612e98565b9350506020613a5786828701612e98565b925050604084013567ffffffffffffffff811115613a7857613a77612e72565b5b613a8486828701613435565b9150509250925092565b613a978161303e565b82525050565b6000602082019050613ab26000830184613a8e565b92915050565b7f4e487b7100000000000000000000000000000000000000000000000000000000600052602160045260246000fd5b60048110613af857613af7613ab8565b5b50565b6000819050613b0982613ae7565b919050565b6000613b1982613afb565b9050919050565b613b2981613b0e565b82525050565b6000602082019050613b446000830184613b20565b92915050565b60008060008060808587031215613b6457613b63612e6d565b5b6000613b7287828801612e98565b945050602085013567ffffffffffffffff811115613b9357613b92612e72565b5b613b9f878288016135a5565b935050604085013567ffffffffffffffff811115613bc057613bbf612e72565b5b613bcc878288016135a5565b9250506060613bdd87828801612e98565b91505092959194509250565b613bf28161316b565b8114613bfd57600080fd5b50565b600081359050613c0f81613be9565b92915050565b60008060408385031215613c2c57613c2b612e6d565b5b6000613c3a85828601613067565b9250506020613c4b85828601613c00565b9150509250929050565b6000604082019050613c6a60008301856130bc565b8181036020830152613c7c8184612f99565b90509392505050565b60006060820190508181036000830152613c9f8186612f44565b90508181036020830152613cb38185612f44565b9050613cc260408301846130bc565b949350505050565b600060ff82169050919050565b613ce081613cca565b8114613ceb57600080fd5b50565b600081359050613cfd81613cd7565b92915050565b60008060408385031215613d1a57613d19612e6d565b5b6000613d2885828601612e98565b9250506020613d3985828601613cee565b9150509250929050565b60008060408385031215613d5a57613d59612e6d565b5b6000613d6885828601613067565b9250506020613d7985828601613067565b9150509250929050565b600080600080600060a08688031215613d9f57613d9e612e6d565b5b6000613dad88828901613067565b9550506020613dbe88828901613067565b9450506040613dcf88828901612e98565b9350506060613de088828901612e98565b925050608086013567ffffffffffffffff811115613e0157613e00612e72565b5b613e0d88828901613435565b9150509295509295909350565b600060208284031215613e3057613e2f612e6d565b5b6000613e3e84828501613067565b91505092915050565b7f4e487b7100000000000000000000000000000000000000000000000000000000600052602260045260246000fd5b60006002820490506001821680613e8e57607f821691505b602082108103613ea157613ea0613e47565b5b50919050565b7f41747472696275746520646f6573206e6f742065786973742e00000000000000600082015250565b6000613edd601983612ef8565b9150613ee882613ea7565b602082019050919050565b60006020820190508181036000830152613f0c81613ed0565b9050919050565b7f4e487b7100000000000000000000000000000000000000000000000000000000600052601160045260246000fd5b6000613f4d82612e77565b9150613f5883612e77565b9250828203905081811115613f7057613f6f613f13565b5b92915050565b7f4e487b7100000000000000000000000000000000000000000000000000000000600052603260045260246000fd5b600081549050613fb481613e76565b9050919050565b60008190508160005260206000209050919050565b60006020601f8301049050919050565b60008160020a8302905092915050565b6000600883026140207fffffffffffffffffffffffffffffffffffffffffffffffffffffffffffffffff82613fe0565b61402a8683613fe0565b95508019841693508086168417925050509392505050565b6000819050919050565b600061406761406261405d84612e77565b614042565b612e77565b9050919050565b6000819050919050565b6140818361404c565b61409561408d8261406e565b848454613ff0565b825550505050565b600090565b6140aa61409d565b6140b5818484614078565b505050565b5b818110156140d9576140ce6000826140a2565b6001810190506140bb565b5050565b601f82111561411e576140ef81613fbb565b6140f884613fd0565b81016020851015614107578190505b61411b61411385613fd0565b8301826140ba565b50505b505050565b60008160020a8304905092915050565b600061414460001984600802614123565b1980831691505092915050565b600061415d8383614133565b9150826002028217905092915050565b81810361417b575050614253565b61418482613fa5565b67ffffffffffffffff81111561419d5761419c61326b565b5b6141a78254613e76565b6141b28282856140dd565b6000601f8311600181146141e157600084156141cf578287015490505b6141d98582614151565b86555061424c565b601f1984166141ef87613fbb565b96506141fa86613fbb565b60005b82811015614222578489015482556001820191506001850194506020810190506141fd565b8683101561423f578489015461423b601f891682614133565b8355505b6001600288020188555050505b5050505050505b565b60008154905061426481613e76565b9050919050565b60008190508160005260206000209050919050565b601f8211156142c1576142928161426b565b61429b84613fd0565b810160208510156142aa578190505b6142be6142b685613fd0565b8301826140ba565b50505b505050565b8181036142d45750506143ac565b6142dd82614255565b67ffffffffffffffff8111156142f6576142f561326b565b5b6143008254613e76565b61430b828285614280565b6000601f83116001811461433a5760008415614328578287015490505b6143328582614151565b8655506143a5565b601f1984166143488761426b565b96506143538661426b565b60005b8281101561437b57848901548255600182019150600185019450602081019050614356565b868310156143985784890154614394601f891682614133565b8355505b6001600288020188555050505b5050505050505b565b7f4e487b7100000000000000000000000000000000000000000000000000000000600052603160045260246000fd5b7f5552493a206e6f6e6578697374656e7420746f6b656e00000000000000000000600082015250565b6000614413601683612ef8565b915061441e826143dd565b602082019050919050565b6000602082019050818103600083015261444281614406565b9050919050565b600081905092915050565b600061445f82612eed565b6144698185614449565b9350614479818560208601612f09565b80840191505092915050565b7f686f73706974616c000000000000000000000000000000000000000000000000600082015250565b60006144bb600883614449565b91506144c682614485565b600882019050919050565b7f3d00000000000000000000000000000000000000000000000000000000000000600082015250565b6000614507600183614449565b9150614512826144d1565b600182019050919050565b600081905092915050565b6000815461453581613e76565b61453f818661451d565b9450600182166000811461455a576001811461456f576145a2565b60ff19831686528115158202860193506145a2565b6145788561426b565b60005b8381101561459a5781548189015260018201915060208101905061457b565b838801955050505b50505092915050565b7f2600000000000000000000000000000000000000000000000000000000000000600082015250565b60006145e1600183614449565b91506145ec826145ab565b600182019050919050565b60006146038286614454565b915061460e826144ae565b915061461a8285614454565b9150614625826144fa565b91506146318284614528565b915061463c826145d4565b9150819050949350505050565b600061465482612e77565b91507fffffffffffffffffffffffffffffffffffffffffffffffffffffffffffffffff820361468657614685613f13565b5b600182019050919050565b7f3f00000000000000000000000000000000000000000000000000000000000000600082015250565b60006146c7600183614449565b91506146d282614691565b600182019050919050565b60006146e98285614454565b91506146f4826146ba565b91506147008284614454565b91508190509392505050565b7f546f6b656e20646f6573206e6f74206578697374206f7220686173206e6f206860008201527f6f73706974616c20616363657373207269676874732e00000000000000000000602082015250565b6000614768603683612ef8565b91506147738261470c565b604082019050919050565b600060208201905081810360008301526147978161475b565b9050919050565b7f4163636573732064656e6965643a2055736572206c61636b732055312070657260008201527f6d697373696f6e2e000000000000000000000000000000000000000000000000602082015250565b60006147fa602883612ef8565b91506148058261479e565b604082019050919050565b60006020820190508181036000830152614829816147ed565b9050919050565b7f454d522063616e206f6e6c79206265207570646174656420666f72207061746960008201527f656e74732e000000000000000000000000000000000000000000000000000000602082015250565b600061488c602583612ef8565b915061489782614830565b604082019050919050565b600060208201905081810360008301526148bb8161487f565b9050919050565b60006040820190506148d76000830185613a8e565b6148e46020830184613a8e565b9392505050565b6148f482612eed565b67ffffffffffffffff81111561490d5761490c61326b565b5b6149178254613e76565b6149228282856140dd565b600060209050601f8311600181146149555760008415614943578287015190505b61494d8582614151565b8655506149b5565b601f19841661496386613fbb565b60005b8281101561498b57848901518255600182019150602085019450602081019050614966565b868310156149a857848901516149a4601f891682614133565b8355505b6001600288020188555050505b505050505050565b6149c682612f7d565b67ffffffffffffffff8111156149df576149de61326b565b5b6149e98254613e76565b6149f4828285614280565b600060209050601f831160018114614a275760008415614a15578287015190505b614a1f8582614151565b865550614a87565b601f198416614a358661426b565b60005b82811015614a5d57848901518255600182019150602085019450602081019050614a38565b86831015614a7a5784890151614a76601f891682614133565b8355505b6001600288020188555050505b505050505050565b6000604082019050614aa460008301856130bc565b614ab160208301846130bc565b9392505050565b7f546f6b656e20646f6573206e6f742065786973742e0000000000000000000000600082015250565b6000614aee601583612ef8565b9150614af982614ab8565b602082019050919050565b60006020820190508181036000830152614b1d81614ae1565b9050919050565b7f546f6b656e20726f6c65206e6f742061737369676e65642e0000000000000000600082015250565b6000614b5a601883612ef8565b9150614b6582614b24565b602082019050919050565b60006020820190508181036000830152614b8981614b4d565b9050919050565b7f4f6e6c7920746865206f776e65722063616e207570646174652074686569722060008201527f6461746100000000000000000000000000000000000000000000000000000000602082015250565b6000614bec602483612ef8565b9150614bf782614b90565b604082019050919050565b60006020820190508181036000830152614c1b81614bdf565b9050919050565b6000604082019050614c3760008301856130bc565b614c446020830184613b20565b9392505050565b7f4e487b7100000000000000000000000000000000000000000000000000000000600052601260045260246000fd5b6000608082019050614c8f6000830187613a8e565b614c9c60208301866130bc565b614ca960408301856130bc565b614cb660608301846130bc565b95945050505050565b6000614cca82612e77565b9150614cd583612e77565b9250828201905080821115614ced57614cec613f13565b5b92915050565b60006040820190508181036000830152614d0d818561399f565b90508181036020830152614d21818461399f565b90509392505050565b600060a082019050614d3f6000830188613a8e565b614d4c6020830187613a8e565b614d5960408301866130bc565b614d6660608301856130bc565b8181036080830152614d788184612f99565b90509695505050505050565b600081519050614d9381613112565b92915050565b600060208284031215614daf57614dae612e6d565b5b6000614dbd84828501614d84565b91505092915050565b600060a082019050614ddb6000830188613a8e565b614de86020830187613a8e565b8181036040830152614dfa818661399f565b90508181036060830152614e0e818561399f565b90508181036080830152614e228184612f99565b9050969550505050505056fea2646970667358221220f7c5f7923845dd55409f57b2fa52b9dec4f847ffc26798d5f6f157208322490b64736f6c6343000814003368747470733a2f2f697066732e696f2f697066732f62616679626569686a6a6b77647278786a6e757765766c7174716d683369656763616463333273696f34776d6f37627632676266333471733334612f7b69647d2e6a736f6e",
  "immutableReferences": {},
  "source": "// SPDX-License-Identifier: MIT\r\n\r\npragma solidity ^0.8.16;\r\n\r\nimport \"../node_modules/@openzeppelin/contracts/token/ERC1155/ERC1155.sol\";\r\nimport \"../node_modules/@openzeppelin/contracts/access/Ownable.sol\";\r\nimport \"../node_modules/@openzeppelin/contracts/utils/Strings.sol\";\r\n\r\ncontract MyToken is ERC1155, Ownable {\r\n    using Strings for uint256;\r\n\r\n    // Roles and Mapping for the Hospital Environment\r\n    enum RoleType { Undefined, Doctor, Assistant, Patient }\r\n    mapping(uint256 => RoleType) public tokenRoles;\r\n\r\n    // Access rights within each Hospital\r\n    struct HospitalAccess {\r\n        uint256 hospitalId;\r\n        bytes accessRights;\r\n    }\r\n    mapping(uint256 => HospitalAccess[]) public tokenHospitalAccessRights;  \r\n\r\n    // Attribute assignement to each User\r\n   struct Attribute {\r\n        string key;\r\n        string value;\r\n        bytes permissions; // A bytes array to hold multiple permissions\r\n    }\r\n\r\n    mapping(uint256 => Attribute[]) public tokenAttributes;\r\n\r\n    // EMR Hash for each User\r\n    struct EMRHash {\r\n        bytes32 hash; // The hash of the EMR data\r\n        uint256 lastUpdated; // Timestamp of the last update\r\n        // ... any other relevant information\r\n    }\r\n    // Mapping from token ID (representing a user) to their EMR hash\r\n    mapping(uint256 => EMRHash) public emrHashes;\r\n\r\n    // Data associated to every person \r\n    struct PersonalData {\r\n        string name;\r\n        string surname;\r\n        uint256 age;\r\n    }\r\n    mapping(uint256 => PersonalData) public tokenPersonalData;\r\n\r\n \r\n\r\n    // Counters for each role category\r\n    uint256 private doctorCounter = 0;\r\n    uint256 private assistantCounter = 0;\r\n    uint256 private patientCounter = 0;\r\n\r\n    uint256 private tokenIdCounter = 0;\r\n\r\n    // Define hospital identifiers as constants\r\n    uint256 private constant H1 = 1;\r\n    uint256 private constant H2 = 2;\r\n    uint256 private constant H3 = 3;\r\n    uint256 private constant H4 = 4;\r\n\r\n    constructor() ERC1155(\"https://ipfs.io/ipfs/bafybeihjjkwdrxxjnuwevlqtqmh3iegcadc32sio4wmo7bv2gbf34qs34a/{id}.json\") Ownable(0x12b405F1a1a4A11479E670E0af39312E771Ff38F) {\r\n        // The owner is set as the deployer of the contract\r\n    }\r\n\r\n    // Define constants for each permission bit\r\n    uint8 constant PERMISSION_READ_HISTORY = 0x01;\r\n    uint8 constant PERMISSION_READ_PRESCRIPTIONS = 0x02;\r\n    uint8 constant PERMISSION_READ_TEST_RESULTS = 0x04;\r\n    uint8 constant PERMISSION_UPDATE_EMR = 0x08;  // Example new permission bit for updating EMR\r\n\r\n\r\n    event TokenMinted(uint256 tokenId, RoleType role);\r\n\r\n\r\n\r\n    // Functions to mint tokens for doctors, assistants, and patients\r\n    function mintDoctor(address account, string memory name, string memory surname, uint256 age) public onlyOwner {\r\n        tokenIdCounter++;\r\n        _mint(account, tokenIdCounter, 1, \"\");\r\n        tokenRoles[tokenIdCounter] = RoleType.Doctor;\r\n        tokenPersonalData[tokenIdCounter] = PersonalData(name, surname, age);\r\n        // Initialize with empty permissions\r\n        initializeHospitalAccess(tokenIdCounter);\r\n\r\n        // Inside the mint function\r\n        emit TokenMinted(tokenIdCounter, RoleType.Doctor);\r\n    }\r\n\r\n    function mintAssistant(address account, string memory name, string memory surname, uint256 age) public onlyOwner {\r\n        tokenIdCounter++;\r\n        _mint(account, tokenIdCounter, 1, \"\");\r\n        tokenRoles[tokenIdCounter] = RoleType.Assistant;\r\n        tokenPersonalData[tokenIdCounter] = PersonalData(name, surname, age);\r\n        // Initialize with empty permissions\r\n        initializeHospitalAccess(tokenIdCounter);\r\n    }\r\n\r\n    function mintPatient(address account, string memory name, string memory surname, uint256 age) public onlyOwner {\r\n        tokenIdCounter++;\r\n        _mint(account, tokenIdCounter, 1, \"\");\r\n        tokenRoles[tokenIdCounter] = RoleType.Patient;\r\n        tokenPersonalData[tokenIdCounter] = PersonalData(name, surname, age);\r\n        // Initialize with empty permissions\r\n        initializeHospitalAccess(tokenIdCounter);\r\n    }\r\n\r\n    function initializeHospitalAccess(uint256 tokenId) internal {\r\n        // Set empty permissions for each hospital upon minting\r\n        for (uint256 i = H1; i <= H4; i++) {\r\n            tokenHospitalAccessRights[tokenId].push(HospitalAccess({\r\n                hospitalId: i,\r\n                accessRights: new bytes(0) // Empty access rights\r\n            }));\r\n        }\r\n    }\r\n\r\n\r\n    function addAttribute(uint256 tokenId, string memory key, string memory value, bytes memory permissions) public onlyOwner {\r\n        tokenAttributes[tokenId].push(Attribute({\r\n            key: key,\r\n            value: value,\r\n            permissions: permissions\r\n        }));\r\n    }\r\n\r\n\r\n    function updateAttribute(uint256 tokenId, uint256 attributeIndex, string memory key, string memory value) public onlyOwner {\r\n        require(attributeIndex < tokenAttributes[tokenId].length, \"Attribute does not exist.\");\r\n        Attribute storage attribute = tokenAttributes[tokenId][attributeIndex];\r\n        attribute.key = key;\r\n        attribute.value = value;\r\n    }\r\n\r\n    function removeAttribute(uint256 tokenId, uint256 attributeIndex) public onlyOwner {\r\n        require(attributeIndex < tokenAttributes[tokenId].length, \"Attribute does not exist.\");\r\n        Attribute[] storage attributes = tokenAttributes[tokenId];\r\n        attributes[attributeIndex] = attributes[attributes.length - 1];\r\n        attributes.pop();\r\n    }\r\n\r\n    // Function to update hospital access rights for a token\r\n    function setHospitalAccess(uint256 tokenId, uint256 hospitalId, bytes memory accessRights) public onlyOwner {\r\n        bool hospitalFound = false;\r\n        for (uint256 i = 0; i < tokenHospitalAccessRights[tokenId].length; i++) {\r\n            if (tokenHospitalAccessRights[tokenId][i].hospitalId == hospitalId) {\r\n                tokenHospitalAccessRights[tokenId][i].accessRights = accessRights;\r\n                hospitalFound = true;\r\n                break;\r\n            }\r\n        }\r\n        if (!hospitalFound) {\r\n            tokenHospitalAccessRights[tokenId].push(HospitalAccess({\r\n                hospitalId: hospitalId,\r\n                accessRights: accessRights\r\n            }));\r\n        }\r\n    }\r\n\r\n    // Check if the given token has a specific permission in any of the associated hospitals\r\n    function hasPermission(uint256 tokenId, uint8 permission) public view returns (bool) {\r\n        Attribute[] storage attributes = tokenAttributes[tokenId];\r\n        for (uint256 i = 0; i < attributes.length; i++) {\r\n            // Loop through each bit in the permissions bytes array\r\n            for (uint j = 0; j < attributes[i].permissions.length; j++) {\r\n                if (uint8(attributes[i].permissions[j]) & permission == permission) {\r\n                    return true;\r\n                }\r\n            }\r\n        }\r\n        return false;\r\n    }\r\n\r\n\r\n    function getRoleType(uint256 tokenId) public view returns (RoleType) {\r\n        require(tokenId > 0 && tokenId <= tokenIdCounter, \"Token does not exist.\"); // Updated to use tokenIdCounter\r\n        require(tokenRoles[tokenId] != RoleType(0), \"Token role not assigned.\"); // Additional check to ensure role is assigned\r\n        return tokenRoles[tokenId];\r\n    }\r\n\r\n\r\n    // Modifier to check if the token has the update permission in any hospital\r\n    modifier canUpdateEMR(uint256 tokenId) {\r\n        require(hasPermission(tokenId, PERMISSION_UPDATE_EMR), \"Access denied: Cannot update EMR.\");\r\n        _;\r\n    }\r\n\r\n    // Function to update EMR hash if the user has \"U1\" permission and the token represents a patient\r\n    function updateEMRHash(uint256 tokenId, bytes32 newHash) public {\r\n        // Check if the token exists and has \"U1\" permission in any associated hospital\r\n        require(tokenHospitalAccessRights[tokenId].length > 0, \"Token does not exist or has no hospital access rights.\");\r\n        require(hasPermission(tokenId, PERMISSION_UPDATE_EMR), \"Access denied: User lacks U1 permission.\");\r\n        \r\n        // Ensure the tokenId corresponds to a patient\r\n        RoleType role = getRoleType(tokenId);\r\n        require(role == RoleType.Patient, \"EMR can only be updated for patients.\");\r\n\r\n        // Perform the update\r\n        EMRHash storage emrHash = emrHashes[tokenId];\r\n        emrHash.hash = newHash;\r\n        emrHash.lastUpdated = block.timestamp; // Current block timestamp\r\n\r\n        // Emit an event or take additional actions as needed\r\n    }\r\n\r\n\r\n\r\n    function updatePersonalData(uint256 tokenId, string memory name, string memory surname, uint256 age) public {\r\n        require(msg.sender == owner(), \"Only the owner can update their data\");\r\n        tokenPersonalData[tokenId] = PersonalData(name, surname, age);\r\n    }\r\n\r\n    // Override uri to include token access rights information for all associated hospitals\r\n    function uri(uint256 tokenId) public view override returns (string memory) {\r\n        HospitalAccess[] storage accesses = tokenHospitalAccessRights[tokenId];\r\n        require(accesses.length > 0, \"URI: nonexistent token\");\r\n\r\n        string memory baseURI = super.uri(tokenId);\r\n        string memory accessRightsPart;\r\n\r\n        for (uint256 i = 0; i < accesses.length; i++) {\r\n            // You'll need to define how you want to represent each set of access rights\r\n            accessRightsPart = string(abi.encodePacked(accessRightsPart, \"hospital\", accesses[i].hospitalId.toString(), \"=\", accesses[i].accessRights, \"&\"));\r\n        }\r\n\r\n        return string(abi.encodePacked(baseURI, \"?\", accessRightsPart));\r\n    }\r\n\r\n\r\n    // ... Additional functions and modifiers ...\r\n}\r\n",
  "sourcePath": "C:\\Users\\simon\\Desktop\\Tesi\\Tesi_Magistrale\\TokenGanache\\contracts\\MyToken.sol",
  "compiler": {
    "name": "solc",
    "version": "0.8.20+commit.a1b79de6.Emscripten.clang"
  },
  "schemaVersion": "3.4.16",
  "updatedAt": "2024-04-04T20:17:11.051Z",
  "networkType": "ethereum",
  "devdoc": {
    "errors": {
      "ERC1155InsufficientBalance(address,uint256,uint256,uint256)": [
        {
          "details": "Indicates an error related to the current `balance` of a `sender`. Used in transfers.",
          "params": {
            "balance": "Current balance for the interacting account.",
            "needed": "Minimum amount required to perform a transfer.",
            "sender": "Address whose tokens are being transferred.",
            "tokenId": "Identifier number of a token."
          }
        }
      ],
      "ERC1155InvalidApprover(address)": [
        {
          "details": "Indicates a failure with the `approver` of a token to be approved. Used in approvals.",
          "params": {
            "approver": "Address initiating an approval operation."
          }
        }
      ],
      "ERC1155InvalidArrayLength(uint256,uint256)": [
        {
          "details": "Indicates an array length mismatch between ids and values in a safeBatchTransferFrom operation. Used in batch transfers.",
          "params": {
            "idsLength": "Length of the array of token identifiers",
            "valuesLength": "Length of the array of token amounts"
          }
        }
      ],
      "ERC1155InvalidOperator(address)": [
        {
          "details": "Indicates a failure with the `operator` to be approved. Used in approvals.",
          "params": {
            "operator": "Address that may be allowed to operate on tokens without being their owner."
          }
        }
      ],
      "ERC1155InvalidReceiver(address)": [
        {
          "details": "Indicates a failure with the token `receiver`. Used in transfers.",
          "params": {
            "receiver": "Address to which tokens are being transferred."
          }
        }
      ],
      "ERC1155InvalidSender(address)": [
        {
          "details": "Indicates a failure with the token `sender`. Used in transfers.",
          "params": {
            "sender": "Address whose tokens are being transferred."
          }
        }
      ],
      "ERC1155MissingApprovalForAll(address,address)": [
        {
          "details": "Indicates a failure with the `operator`s approval. Used in transfers.",
          "params": {
            "operator": "Address that may be allowed to operate on tokens without being their owner.",
            "owner": "Address of the current owner of a token."
          }
        }
      ],
      "OwnableInvalidOwner(address)": [
        {
          "details": "The owner is not a valid owner account. (eg. `address(0)`)"
        }
      ],
      "OwnableUnauthorizedAccount(address)": [
        {
          "details": "The caller account is not authorized to perform an operation."
        }
      ]
    },
    "events": {
      "ApprovalForAll(address,address,bool)": {
        "details": "Emitted when `account` grants or revokes permission to `operator` to transfer their tokens, according to `approved`."
      },
      "TransferBatch(address,address,address,uint256[],uint256[])": {
        "details": "Equivalent to multiple {TransferSingle} events, where `operator`, `from` and `to` are the same for all transfers."
      },
      "TransferSingle(address,address,address,uint256,uint256)": {
        "details": "Emitted when `value` amount of tokens of type `id` are transferred from `from` to `to` by `operator`."
      },
      "URI(string,uint256)": {
        "details": "Emitted when the URI for token type `id` changes to `value`, if it is a non-programmatic URI. If an {URI} event was emitted for `id`, the standard https://eips.ethereum.org/EIPS/eip-1155#metadata-extensions[guarantees] that `value` will equal the value returned by {IERC1155MetadataURI-uri}."
      }
    },
    "kind": "dev",
    "methods": {
      "balanceOf(address,uint256)": {
        "details": "See {IERC1155-balanceOf}."
      },
      "balanceOfBatch(address[],uint256[])": {
        "details": "See {IERC1155-balanceOfBatch}. Requirements: - `accounts` and `ids` must have the same length."
      },
      "isApprovedForAll(address,address)": {
        "details": "See {IERC1155-isApprovedForAll}."
      },
      "owner()": {
        "details": "Returns the address of the current owner."
      },
      "renounceOwnership()": {
        "details": "Leaves the contract without owner. It will not be possible to call `onlyOwner` functions. Can only be called by the current owner. NOTE: Renouncing ownership will leave the contract without an owner, thereby disabling any functionality that is only available to the owner."
      },
      "safeBatchTransferFrom(address,address,uint256[],uint256[],bytes)": {
        "details": "See {IERC1155-safeBatchTransferFrom}."
      },
      "safeTransferFrom(address,address,uint256,uint256,bytes)": {
        "details": "See {IERC1155-safeTransferFrom}."
      },
      "setApprovalForAll(address,bool)": {
        "details": "See {IERC1155-setApprovalForAll}."
      },
      "supportsInterface(bytes4)": {
        "details": "See {IERC165-supportsInterface}."
      },
      "transferOwnership(address)": {
        "details": "Transfers ownership of the contract to a new account (`newOwner`). Can only be called by the current owner."
      }
    },
    "version": 1
  },
  "userdoc": {
    "kind": "user",
    "methods": {},
    "version": 1
  }
}